:100000000C942A000C9447000C9447000C94470071
:100010000C9447000C9447000C9447000C94470044
:100020000C9447000C9447000C9447000C94470034
:100030000C9447000C9447000C9447000C94470024
:100040000C9447000C9447000C9447000C94470014
:100050000C94470011241FBECFE5D8E0DEBFCDBF12
:1000600010E0A0E6B0E0E8E1FEE102C005900D92EC
:10007000A237B107D9F710E0A2E7B0E001C01D92A6
:10008000A337B107E1F70E94070C0C940A0F0C94F8
:100090000000EF92FF920F931F937B018C0120E0F1
:1000A00030E040E05FE40E94490388238CF0C801FF
:1000B000B70120E030E040E05FE40E94C1010E940F
:1000C000A9039B01AC01205030404040504806C07D
:1000D000C801B7010E94A9039B01AC01B901CA0183
:1000E0001F910F91FF90EF900895A0E0B0E0EBE733
:1000F000F0E00C94D30EDC012B01FA019C919230BC
:1001000008F439C1EB018881823008F433C194309E
:1001100069F4843009F02FC111969C91119789815F
:10012000981709F428C1A0E6B0E025C1843009F48D
:1001300021C18230A9F4923009F01DC19A01AD01AC
:1001400088E0EA010990AE01E90109929E0181501F
:10015000C1F7E201898111969C918923818308C1AD
:10016000923009F407C112962D903C901397EB0141
:100170008A819B811496AD90BD90CD90DC901797AD
:10018000EC80FD800E811F819101281B390BB90184
:1001900037FF04C066277727621B730B6032710537
:1001A0000CF061C0121613066CF537014801062EDB
:1001B00004C096948794779467940A94D2F721E0C8
:1001C00030E040E050E004C0220F331F441F551FB1
:1001D0006A95D2F721503040404050402E213F21B7
:1001E00040235123211531054105510521F021E01E
:1001F00030E040E050E079018A01E628F72808293C
:1002000019293CC0232BD1F1260E371E350146019A
:10021000062E04C096948794779467940A94D2F734
:1002200021E030E040E050E004C0220F331F441FC3
:10023000551F6A95D2F721503040404050402A2146
:100240003B214C215D21211531054105510521F04E
:1002500021E030E040E050E059016A01A628B728CB
:10026000C828D9280BC0821593052CF01C01AA249C
:10027000BB24650103C0EE24FF24870111969C91E5
:10028000D20111968C91981709F445C0992339F041
:10029000A80197012A193B094C095D0906C0A6016E
:1002A00095012E193F09400B510B57FD08C01182D3
:1002B0003382228224833583468357831DC081E0A5
:1002C00081833382228288279927DC01821B930B4A
:1002D000A40BB50B84839583A683B7830DC0220F2F
:1002E000331F441F551F24833583468357838281E0
:1002F000938101979383828324813581468157813D
:10030000DA01C9010197A109B1098F5F9F4FAF4F72
:10031000BF4328F30BC0918333822282EA0CFB1C7B
:100320000C1D1D1DE482F5820683178383E0808304
:10033000248135814681578157FF1AC0C901AA27F8
:1003400097FDA095BA2F81709070A070B0705695EF
:10035000479537952795822B932BA42BB52B848318
:100360009583A683B7838281938101969383828349
:10037000DF0101C0D201CD01CDB7DEB7E2E10C94BF
:10038000EF0EA0E2B0E0E7ECF1E00C94DF0E698341
:100390007A838B839C832D833E834F835887E9E048
:1003A000EE2EF12CEC0EFD1ECE010196B7010E943F
:1003B000D2048E010F5E1F4FCE010596B8010E9438
:1003C000D2048A8991E089278A8BC701B801AE01DE
:1003D000475E5F4F0E9475000E94FD03A096E6E015
:1003E0000C94FB0EA0E2B0E0E8EFF1E00C94DF0E1D
:1003F00069837A838B839C832D833E834F835887C5
:10040000F9E0EF2EF12CEC0EFD1ECE010196B701A6
:100410000E94D2048E010F5E1F4FCE010596B801D7
:100420000E94D204C701B801AE01475E5F4F0E942F
:1004300075000E94FD03A096E6E00C94FB0EA0E27E
:10044000B0E0E5E2F2E00C94D30E69837A838B830B
:100450009C832D833E834F835887CE010196BE0136
:10046000675F7F4F0E94D204CE010596BE016F5E8A
:100470007F4F0E94D2049985923088F0898982301A
:10048000C8F0943019F4823051F404C0843029F457
:10049000923081F480E690E0C6C0923049F420E0CA
:1004A0009A858A89981321E02A87CE010996BBC0D4
:1004B000823049F420E09A858A89981321E02A8BBA
:1004C000CE014196B0C02D843E844F8458886D88FB
:1004D0007E888F88988CEE24FF248701AA24BB2471
:1004E000650140E050E060E070E0E0E0F0E0C10174
:1004F00081709070892BE9F0E60CF71C081D191D1E
:100500009A01AB012A0D3B1D4C1D5D1D80E090E062
:10051000A0E0B0E0E614F7040805190520F481E036
:1005200090E0A0E0B0E0BA01A901480F591F6A1F8E
:100530007B1FAA0CBB1CCC1CDD1C97FE08C081E0F5
:1005400090E0A0E0B0E0A82AB92ACA2ADB2A3196B6
:10055000E032F10549F0660C771C881C991C569412
:10056000479437942794C3CFFA85EA892B893C892D
:100570008B859C85280F391F2E5F3F4F17C0CA01FE
:1005800081709070892B61F016950795F794E79428
:1005900080E090E0A0E0B0E8E82AF92A0A2B1B2BC3
:1005A00076956795579547952F5F3F4F77FDE7CF36
:1005B0000CC0440F551F661F771F17FD4160EE0CDE
:1005C000FF1C001F111F21503040403090E05907A0
:1005D00090E0690790E4790760F32B8F3C8FDB0193
:1005E000CA018F779070A070B07080349105A1051A
:1005F000B10561F447FD0AC0E114F10401051105DC
:1006000029F0405C5F4F6F4F7F4F40781A8EFE1786
:1006100011F081E08A8F4D8F5E8F6F8F78A383E01A
:10062000898FCE0149960E94FD03A096E2E10C94C9
:10063000EF0EA8E1B0E0EFE1F3E00C94DF0E698388
:100640007A838B839C832D833E834F83588789E0F5
:10065000E82EF12CEC0EFD1ECE010196B7010E9492
:10066000D2048E010F5E1F4FCE010596B8010E9485
:10067000D2048985823040F08989823028F0C70110
:10068000B8010E944A0501C08FEF6896E6E00C941D
:10069000FB0EA8E1B0E0EFE4F3E00C94DF0E698319
:1006A0007A838B839C832D833E834F83588789E095
:1006B000E82EF12CEC0EFD1ECE010196B7010E9432
:1006C000D2048E010F5E1F4FCE010596B8010E9425
:1006D000D2048985823040F08989823028F0C701B0
:1006E000B8010E944A0501C08FEF6896E6E00C94BD
:1006F000FB0EA8E1B0E0EFE7F3E00C94DF0E6983B6
:100700007A838B839C832D833E834F83588789E034
:10071000E82EF12CEC0EFD1ECE010196B7010E94D1
:10072000D2048E010F5E1F4FCE010596B8010E94C4
:10073000D2048985823040F08989823028F0C7014F
:10074000B8010E944A0501C081E06896E6E00C9479
:10075000FB0EACE0B0E0EFEAF3E00C94E30E69834B
:100760007A838B839C83CE010196BE016B5F7F4FA2
:100770000E94D2048D81823061F1823050F1843048
:1007800021F48E81882351F12EC02F81388537FDC9
:1007900020C06E812F3131051CF06623F9F023C093
:1007A0008EE190E0821B930B29853A854B855C8511
:1007B00004C056954795379527958A95D2F76623B5
:1007C000B1F050954095309521953F4F4F4F5F4F79
:1007D0000EC020E030E040E050E009C02FEF3FEFD6
:1007E0004FEF5FE704C020E030E040E050E8B9019F
:1007F000CA012C96E2E00C94FF0EDF92EF92FF927A
:100800000F931F93FC01E480F58006811781D1804E
:100810008081823048F480E090E0A0E1B0E0E82AF6
:10082000F92A0A2B1B2BA5C0843009F49FC0823003
:1008300021F4EE24FF24870105C0E114F104010531
:10084000110519F4E0E0F0E096C0628173819FEF3A
:10085000623879070CF05BC022E83FEF261B370BAC
:100860002A3131052CF020E030E040E050E02AC091
:10087000B801A701022E04C0769567955795479554
:100880000A94D2F781E090E0A0E0B0E004C0880FC5
:10089000991FAA1FBB1F2A95D2F70197A109B10979
:1008A0008E219F21A023B1230097A105B10521F03E
:1008B00081E090E0A0E0B0E09A01AB01282B392B59
:1008C0004A2B5B2BDA01C9018F779070A070B07052
:1008D00080349105A105B10539F427FF09C0205CDA
:1008E0003F4F4F4F5F4F04C0215C3F4F4F4F5F4F13
:1008F000E0E0F0E02030A0E03A07A0E04A07A0E402
:100900005A0710F0E1E0F0E079018A0127C0603871
:10091000710564F5FB01E158FF4FD801C7018F77DE
:100920009070A070B07080349105A105B10539F4C4
:10093000E7FE0DC080E490E0A0E0B0E004C08FE3EB
:1009400090E0A0E0B0E0E80EF91E0A1F1B1F17FFA1
:1009500005C016950795F794E794319687E01695AC
:100960000795F794E7948A95D1F705C0EE24FF2404
:100970008701EFEFF0E06E2F679566276795902F60
:100980009F77D794DD24D7948E2F8695492F462BB9
:10099000582F5D29B701CA011F910F91FF90EF9069
:1009A000DF900895FC01DB01408151812281622F9B
:1009B0006F7770E0221F2227221F9381892F880FD3
:1009C000822B282F30E0991F9927991F11969C930D
:1009D000119721153105A9F54115510561057105DD
:1009E00011F482E037C082E89FEF13969C938E93B8
:1009F00012979A01AB0167E0220F331F441F551F66
:100A00006A95D1F783E08C930DC0220F331F441FEA
:100A1000551F12968D919C911397019713969C9355
:100A20008E931297203080E0380780E0480780E4FA
:100A3000580758F314962D933D934D935C93179755
:100A400008952F3F310579F4411551056105710570
:100A500019F484E08C93089564FF03C081E08C93C3
:100A600012C01C9210C02F57304013963C932E9307
:100A7000129783E08C9387E0440F551F661F771F02
:100A80008A95D1F7706414964D935D936D937C9322
:100A9000179708951F93DC01FB019C91923008F495
:100AA00047C08081823008F443C0943051F41196DD
:100AB0001C91843099F58181682F70E0611B710968
:100AC0003FC0843021F0923031F48230B9F181811D
:100AD000882389F12DC011961C9111978230F1F075
:100AE00081811817D9F412962D913C911397828128
:100AF00093818217930794F028173907BCF0149656
:100B00008D919D910D90BC91A02D248135814681C0
:100B10005781281739074A075B0718F4112341F05A
:100B20000AC082179307A407B50740F4112319F0F0
:100B300061E070E005C06FEF7FEF02C060E070E041
:100B4000CB011F910895DF93CF9300D000D000D048
:100B5000CDB7DEB78A836B8319828B81813019F41C
:100B60008FEF898307C08B81882311F4198202C01B
:100B70008B8189838A81282F30E03E832D838D816C
:100B80009E8182309105E1F02D813E812330310537
:100B900034F48D819E818130910561F023C02D81D7
:100BA0003E812330310591F08D819E818430910505
:100BB00099F018C0EAE3F0E0898180831C8214C0B8
:100BC000E7E3F0E0898180831C820EC0E4E3F0E07B
:100BD000898180831C8208C0E1E3F0E08981808301
:100BE0001C8202C091E09C838C8126960FB6F894FB
:100BF000DEBF0FBECDBFCF91DF910895DF93CF93BE
:100C0000CDB7DEB762970FB6F894DEBF0FBECDBF8B
:100C100089836A834B838A81883008F010C18B8175
:100C2000882321F08B81813009F006C18981282F2A
:100C300030E03A8B298B89899A898230910509F4B1
:100C400050C0E989FA89E330F10534F429893A89F9
:100C50002130310571F0EDC089899A898330910581
:100C600009F477C0E989FA89E430F10509F4A9C0EB
:100C7000E0C02AE330E0388B2F878B818823B9F4DA
:100C8000AAE3B0E0EAE3F0E08081482F8A81282FD0
:100C900030E081E090E0022E02C0880F991F0A9494
:100CA000E2F7809584238C933C913E8714C0AAE39D
:100CB000B0E0EAE3F0E08081482F8A81282F30E01D
:100CC00081E090E002C0880F991F2A95E2F7842BFB
:100CD0008C938C918E872E85EF85F88920831D86D5
:100CE000B0C087E390E09C878B878B818823B9F421
:100CF000A7E3B0E0E7E3F0E08081482F8A81282F66
:100D000030E081E090E0022E02C0880F991F0A9423
:100D1000E2F7809584238C939C919A8714C0A7E373
:100D2000B0E0E7E3F0E08081482F8A81282F30E0AF
:100D300081E090E002C0880F991F2A95E2F7842B8A
:100D40008C93EC91EA872A85EB85FC8520831D86B0
:100D500078C084E390E0998788878B818823B9F4F1
:100D6000A4E3B0E0E4E3F0E08081482F8A81282FFB
:100D700030E081E090E0022E02C0880F991F0A94B3
:100D8000E2F7809584238C939C919F8314C0A4E305
:100D9000B0E0E4E3F0E08081482F8A81282F30E042
:100DA00081E090E002C0880F991F2A95E2F7842B1A
:100DB0008C93EC91EF832F81E885F98520831D8644
:100DC00040C081E390E09E838D838B818823B9F4BA
:100DD000A1E3B0E0E1E3F0E08081482F8A81282F91
:100DE00030E081E090E0022E02C0880F991F0A9443
:100DF000E2F7809584238C939C919C8314C0A1E39B
:100E0000B0E0E1E3F0E08081482F8A81282F30E0D4
:100E100081E090E002C0880F991F2A95E2F7842BA9
:100E20008C93EC91EC832C81ED81FE8120831D86D7
:100E300008C031E03D8705C083E08D8702C092E0A5
:100E40009D878D8562960FB6F894DEBF0FBECDBF2D
:100E5000CF91DF910895DF93CF9300D000D000D0E1
:100E6000CDB7DEB78A836B8319828B81813019F409
:100E70008FEF898307C08B81882311F4198202C008
:100E80008B8189838A81282F30E03E832D838D8159
:100E90009E8182309105E1F02D813E812330310524
:100EA00034F48D819E818130910561F023C02D81C4
:100EB0003E812330310591F08D819E8184309105F2
:100EC00099F018C0EBE3F0E0898180831C8214C0A4
:100ED000E8E3F0E0898180831C820EC0E5E3F0E066
:100EE000898180831C8208C0E2E3F0E089818083ED
:100EF0001C8202C091E09C838C8126960FB6F894E8
:100F0000DEBF0FBECDBFCF91DF910895DF93CF93AA
:100F1000CDB7DEB72E970FB6F894DEBF0FBECDBFAC
:100F200089836A834B838A81883008F0EAC08B8189
:100F3000882321F08B81813009F0E0C08981282F3E
:100F400030E03E872D878D859E858230910509F49E
:100F500046C02D853E852330310534F48D859E8530
:100F60008130910571F0C7C02D853E852330310554
:100F700009F464C08D859E858430910509F48CC088
:100F8000BAC08B818823B1F4ABE3B0E0EBE3F0E0CF
:100F90008081482F8A81282F30E081E090E0022E66
:100FA00002C0880F991F0A94E2F7809584238C93DE
:100FB0009C9113C0ABE3B0E0EBE3F0E08081482FFD
:100FC0008A81282F30E081E090E002C0880F991FCD
:100FD0002A95E2F7842B8C932C911A8694C08B81EE
:100FE0008823B1F4A8E3B0E0E8E3F0E08081482F83
:100FF0008A81282F30E081E090E0022E02C0880F25
:10100000991F0A94E2F7809584238C933C9114C035
:10101000A8E3B0E0E8E3F0E08081482F8A81282F40
:1010200030E081E090E0022E02C0880F991F0A9400
:10103000E2F7842B8C938C911A8665C08B81882370
:10104000B1F4A5E3B0E0E5E3F0E08081482F8A81C8
:10105000282F30E081E090E0022E02C0880F991F17
:101060000A94E2F7809584238C939C9113C0A5E3A6
:10107000B0E0E5E3F0E08081482F8A81282F30E05E
:1010800081E090E002C0880F991F2A95E2F7842B37
:101090008C932C911A8637C08B818823B1F4A2E3FC
:1010A000B0E0E2E3F0E08081482F8A81282F30E031
:1010B00081E090E0022E02C0880F991F0A94E2F7A7
:1010C000809584238C933C9114C0A2E3B0E0E2E3CA
:1010D000F0E08081482F8A81282F30E081E090E085
:1010E000022E02C0880F991F0A94E2F7842B8C937A
:1010F0008C911A8608C091E09A8705C023E02A8760
:1011000002C032E03A878A852E960FB6F894DEBF89
:101110000FBECDBFCF91DF910895DF93CF9300D065
:1011200000D0CDB7DEB789838981282F30E03C839A
:101130002B838B819C8182309105F9F02B813C813E
:101140002330310534F48B819C818130910561F02D
:101150002FC02B813C8123303105C1F08B819C81D4
:1011600084309105E1F024C0ABE3B0E0EBE3F0E0C4
:10117000808180958C931A821DC0A8E3B0E0E8E3DB
:10118000F0E0808180958C931A8214C0A5E3B0E0D2
:10119000E5E3F0E0808180958C931A820BC0A2E396
:1011A000B0E0E2E3F0E0808180958C931A8202C087
:1011B00091E09A838A810F900F900F900F90CF91BA
:1011C000DF910895DF93CF9300D000D00F92CDB779
:1011D000DEB789836A838A81883008F078C0898184
:1011E000282F30E03D832C838C819D8182309105B6
:1011F00061F12C813D812330310534F48C819D8156
:101200008130910569F060C02C813D81233031052A
:1012100089F18C819D818430910509F440C054C0CE
:10122000ABE3B0E0EBE3F0E08081482F8A81282F28
:1012300030E081E090E0022E02C0880F991F0A94EE
:10124000E2F784278C931B8244C0A8E3B0E0E8E374
:10125000F0E08081482F8A81282F30E081E090E003
:10126000022E02C0880F991F0A94E2F784278C93FC
:101270001B822FC0A5E3B0E0E5E3F0E08081482FBA
:101280008A81282F30E081E090E0022E02C0880F92
:10129000991F0A94E2F784278C931B821AC0A2E359
:1012A000B0E0E2E3F0E08081482F8A81282F30E02F
:1012B00081E090E0022E02C0880F991F0A94E2F7A5
:1012C00084278C931B8205C091E09B8302C022E09F
:1012D0002B838B810F900F900F900F900F90CF91D9
:1012E000DF910895DF93CF9300D000D0CDB7DEB764
:1012F00089838981282F30E03C832B838B819C81DB
:1013000082309105D9F02B813C812330310534F4B2
:101310008B819C818130910561F01FC02B813C81C4
:101320002330310581F08B819C818430910581F0DF
:1013300014C0E9E3F0E090819A8311C0E6E3F0E0A5
:1013400020812A830CC0E3E3F0E030813A8307C0B8
:10135000E0E3F0E080818A8302C09AEA9A838A817E
:101360000F900F900F900F90CF91DF910895DF9322
:10137000CF9300D000D00F92CDB7DEB789836A83B8
:101380008A81883008F06FC08981282F30E03D8342
:101390002C834C815D814230510549F18C819D81C6
:1013A0008330910534F42C813D812130310561F089
:1013B00057C04C815D814330510561F18C819D8125
:1013C00084309105D1F14CC0E9E3F0E08081282F11
:1013D00030E08A81882F90E0A90102C05595479599
:1013E0008A95E2F7CA01582F51705B833EC0E6E34D
:1013F000F0E08081282F30E08A81882F90E0A901D9
:1014000002C0559547958A95E2F7CA01582F517049
:101410005B832BC0E3E3F0E08081282F30E08A81FA
:10142000882F90E0A90102C0559547958A95E2F76B
:10143000CA01582F51705B8318C0E0E3F0E080814F
:10144000282F30E08A81882F90E0A90102C05595AD
:1014500047958A95E2F7CA01582F51705B8305C002
:1014600082E08B8302C093E09B838B810F900F906F
:101470000F900F900F90CF91DF910895DF93CF934E
:1014800000D000D000D0CDB7DEB78A836B8319823D
:101490008B81813019F48FEF898307C08B8188237A
:1014A00011F4198202C08B8189838A81282F30E050
:1014B0003E832D838D819E8182309105E1F02D81C7
:1014C0003E812330310534F48D819E818130910538
:1014D00061F023C02D813E812330310591F08D8153
:1014E0009E818430910599F018C0EBE3F0E089818A
:1014F00080831C8214C0E8E3F0E0898180831C8231
:101500000EC0E5E3F0E0898180831C8208C0E2E33D
:10151000F0E0898180831C8202C091E09C838C81F1
:1015200026960FB6F894DEBF0FBECDBFCF91DF91E8
:101530000895DF93CF93CDB7DEB72E970FB6F8940B
:10154000DEBF0FBECDBF89836A834B838B81813021
:1015500021F08B81882309F0E7C08A81883008F068
:10156000E0C08981282F30E03E872D878D859E85BC
:101570008230910509F446C02D853E852330310522
:1015800034F48D859E858130910571F0C7C02D851D
:101590003E852330310509F464C08D859E858430F5
:1015A000910509F48CC0BAC08B818823B1F4ABE3F8
:1015B000B0E0EBE3F0E08081482F8A81282F30E013
:1015C00081E090E0022E02C0880F991F0A94E2F792
:1015D000809584238C939C9113C0ABE3B0E0EBE344
:1015E000F0E08081482F8A81282F30E081E090E070
:1015F00002C0880F991F2A95E2F7842B8C932C91B7
:101600001A8694C08B818823B1F4A8E3B0E0E8E3A4
:10161000F0E08081482F8A81282F30E081E090E03F
:10162000022E02C0880F991F0A94E2F78095842346
:101630008C933C9114C0A8E3B0E0E8E3F0E0808133
:10164000482F8A81282F30E081E090E0022E02C0EE
:10165000880F991F0A94E2F7842B8C938C911A8639
:1016600065C08B818823B1F4A5E3B0E0E5E3F0E049
:101670008081482F8A81282F30E081E090E0022E7F
:1016800002C0880F991F0A94E2F7809584238C93F7
:101690009C9113C0A5E3B0E0E5E3F0E08081482F22
:1016A0008A81282F30E081E090E002C0880F991FE6
:1016B0002A95E2F7842B8C932C911A8637C08B8164
:1016C0008823B1F4A2E3B0E0E2E3F0E08081482FA8
:1016D0008A81282F30E081E090E0022E02C0880F3E
:1016E000991F0A94E2F7809584238C933C9114C04F
:1016F000A2E3B0E0E2E3F0E08081482F8A81282F66
:1017000030E081E090E0022E02C0880F991F0A9419
:10171000E2F7842B8C938C911A8608C091E09A870B
:1017200005C022E02A8702C033E03A878A852E96D8
:101730000FB6F894DEBF0FBECDBFCF91DF910895F5
:10174000DF93CF930F92CDB7DEB7898389810E9453
:10175000D50B0F90CF91DF910895DF93CF9300D0F9
:10176000CDB7DEB789836A838A81882F90E0FC0138
:10177000E859FF4F90818981692F0E94F70B0F90E4
:101780000F90CF91DF910895DF93CF9300D0CDB725
:10179000DEB789836A8389816A8141E00E94FE0500
:1017A0000F900F90CF91DF910895DF93CF930F9219
:1017B000CDB7DEB78983898161E00E94A3050F90D0
:1017C000CF91DF910895DF93CF9300D00F92CDB7E3
:1017D000DEB789836A834B8389816A814B810E944A
:1017E00086070F900F900F90CF91DF910895DF93B0
:1017F000CF9300D0CDB7DEB789836A8389816A81B0
:101800000E942B070F900F90CF91DF910895DF93E7
:10181000CF93CDB7DEB7ED970FB6F894DEBF0FBE0E
:10182000CDBF81E00E94A00B83E060E040E00E9419
:10183000FE0583E060E041E00E94990A83E061E0F8
:1018400040E00E94FE0583E061E041E00E94990AC9
:1018500083E062E040E00E94FE0583E062E041E058
:101860000E94990A82E067E041E00E94FE0582E062
:1018700066E041E00E94FE0582E065E041E00E94F2
:10188000FE0582E064E041E00E94FE0582E067E040
:1018900040E00E94860782E066E040E00E94860702
:1018A00082E065E040E00E94860782E064E040E07C
:1018B0000E9486071DAE1CAE1BAE1AAE19AE4AC200
:1018C00083E060E00E94B709882321F481E08093DF
:1018D000720015C083E061E00E94B709882319F403
:1018E000109272000CC083E062E00E94B709882366
:1018F00031F4109272001DAE1CAE1BAE1AAE82E027
:1019000067E041E00E94860782E066E040E00E94D6
:10191000860782E065E040E00E94860782E064E09E
:1019200040E00E94860781E06DAD0E94AD0B80E033
:1019300090E0A0E0B0E48DAB9EABAFABB8AF6DA9CB
:101940007EA98FA998AD20E030E04AEF54E40E94D0
:101950001F02DC01CB0189AB9AABABABBCAB69A975
:101960007AA98BA99CA920E030E040E85FE30E94BF
:10197000790388232CF481E090E098AB8FA73FC0D7
:1019800069A97AA98BA99CA920E03FEF4FE757E40A
:101990000E94190318164CF56DA97EA98FA998AD60
:1019A00020E030E040E251E40E941F02DC01CB0164
:1019B000BC01CD010E944900DC01CB0198AB8FA78F
:1019C0000FC088EC90E09EA78DA78DA59EA50197DE
:1019D000F1F79EA78DA78FA598A9019798AB8FA720
:1019E0008FA598A9009769F714C069A97AA98BA94E
:1019F0009CA90E944900DC01CB0198AB8FA78FA561
:101A000098A99CA78BA78BA59CA50197F1F79CA7EC
:101A10008BA782E067E040E00E94860782E066E0F4
:101A200041E00E94860782E065E040E00E94860770
:101A300082E064E040E00E94860781E06CAD0E9495
:101A4000AD0B80E090E0A0E0B0E48FA398A7A9A739
:101A5000BAA76FA178A589A59AA520E030E04AEF42
:101A600054E40E941F02DC01CB018BA39CA3ADA315
:101A7000BEA36BA17CA18DA19EA120E030E040E837
:101A80005FE30E94790388232CF481E090E09AA31D
:101A900089A33FC06BA17CA18DA19EA120E03FEF57
:101AA0004FE757E40E94190318164CF56FA178A56B
:101AB00089A59AA520E030E040E251E40E941F028F
:101AC000DC01CB01BC01CD010E944900DC01CB014E
:101AD0009AA389A30FC088EC90E098A38F8F8F8D75
:101AE00098A10197F1F798A38F8F89A19AA10197E7
:101AF0009AA389A389A19AA1009769F714C06BA141
:101B00007CA18DA19EA10E944900DC01CB019AA37A
:101B100089A389A19AA19E8F8D8F8D8D9E8D01970E
:101B2000F1F79E8F8D8F82E067E040E00E9486078C
:101B300082E066E040E00E94860782E065E041E0E6
:101B40000E94860782E064E040E00E94860781E010
:101B50006BAD0E94AD0B80E090E0A0E0B0E4898F17
:101B60009A8FAB8FBC8F698D7A8D8B8D9C8D20E089
:101B700030E04AEF54E40E941F02DC01CB018D8B60
:101B80009E8BAF8BB88F6D897E898F89988D20E071
:101B900030E040E85FE30E94790388232CF481E081
:101BA00090E09C8B8B8B3FC06D897E898F89988D4F
:101BB00020E03FEF4FE757E40E94190318164CF559
:101BC000698D7A8D8B8D9C8D20E030E040E251E470
:101BD0000E941F02DC01CB01BC01CD010E94490023
:101BE000DC01CB019C8B8B8B0FC088EC90E09A8B37
:101BF000898B89899A890197F1F79A8B898B8B89CF
:101C00009C8901979C8B8B8B8B899C89009769F7AA
:101C100014C06D897E898F89988D0E944900DC01EE
:101C2000CB019C8B8B8B8B899C89988B8F878F8525
:101C300098890197F1F7988B8F8782E067E040E001
:101C40000E94860782E066E040E00E94860782E00C
:101C500065E040E00E94860782E064E041E00E9487
:101C6000860781E06AAD0E94AD0B80E090E0A0E0C5
:101C7000B0E48B879C87AD87BE876B857C858D851F
:101C80009E8520E030E04AEF54E40E941F02DC0110
:101C9000CB018F839887A987BA876F8178858985DB
:101CA0009A8520E030E040E85FE30E9479038823D2
:101CB0002CF481E090E09E838D833FC06F81788516
:101CC00089859A8520E03FEF4FE757E40E9419038A
:101CD00018164CF56B857C858D859E8520E030E05F
:101CE00040E251E40E941F02DC01CB01BC01CD01A6
:101CF0000E944900DC01CB019E838D830FC088ECDC
:101D000090E09C838B838B819C810197F1F79C836E
:101D10008B838D819E8101979E838D838D819E8192
:101D2000009769F714C06F81788589859A850E942C
:101D30004900DC01CB019E838D838D819E819A8336
:101D4000898389819A810197F1F79A83898389AD83
:101D50008F5F89AF89AD8D3708F4B2CD8091720065
:101D6000813009F0ABCD8DAD8F5F8DAF8DAD8A30F9
:101D700021F41DAE8CAD8F5F8CAF8CAD863029F415
:101D80001DAE1CAE8BAD8F5F8BAF8BAD8A3021F457
:101D90001BAE8AAD8F5F8AAF8AAD863009F08ECDDB
:101DA0001BAE1AAE8BCD2F923F924F925F926F92E5
:101DB0007F928F929F92AF92BF92CF92DF92EF92DB
:101DC000FF920F931F93CF93DF93CDB7DEB7CA1B5C
:101DD000DB0B0FB6F894DEBF0FBECDBF09942A8887
:101DE000398848885F846E847D848C849B84AA842F
:101DF000B984C884DF80EE80FD800C811B81AA81BC
:101E0000B981CE0FD11D0FB6F894DEBF0FBECDBF86
:081E1000ED010895F894FFCFE5
:101E18000000000000000000C0F9A4B0999282F808
:021E28008090A8
:00000001FF
