:100000000C942A000C9404060C9426020C946702AB
:100010000C943C000C943C000C943C000C943C0070
:100020000C943C000C943C000C943C000C943C0060
:100030000C943C000C943C000C943C000C943C0050
:100040000C943C000C943C000C943C000C943C0040
:100050000C943C0011241FBECFE5D8E0DEBFCDBF1D
:1000600010E0A0E6B0E001C01D92A636B107E1F7AE
:100070000E94E0050C9431060C940000DF93CF93AE
:1000800000D000D000D0CDB7DEB76B837C838D83EA
:100090009E8319C01A82198205C089819A810196AE
:1000A0009A83898389819A812FE0803A9207A8F305
:1000B0008B819C81AD81BE810197A109B1098B83A0
:1000C0009C83AD83BE838B819C81AD81BE81009773
:1000D000A105B105F9F626960FB6F894DEBF0FBE5E
:1000E000CDBFCF91DF910895DF93CF9300D000D0A3
:1000F000CDB7DEB789838981282F30E03B832A83FF
:100100008A819B81009731F02A813B812130310522
:1001100049F00FC0AFE5B0E0EFE5F0E080818F7708
:100120008C9307C0AFE5B0E0EFE5F0E08081806838
:100130008C930F900F900F900F90CF91DF910895B7
:10014000DF93CF93CDB7DEB72B970FB6F894DEBF12
:100150000FBECDBF89836A838981282F30E03A871B
:10016000298789859A858130910551F129853A85BC
:100170002230310509F443C089859A85009709F03A
:100180005CC08A81282F30E038872F838F81988543
:10019000009731F02F8138852130310549F04DC06D
:1001A000ABE5B0E0EBE5F0E080818F7B8C9345C060
:1001B000ABE5B0E0EBE5F0E0808180648C933DC07E
:1001C0008A81282F30E03E832D838D819E81009788
:1001D00031F02D813E812130310549F02EC0ABE553
:1001E000B0E0EBE5F0E080818F778C9326C0ABE543
:1001F000B0E0EBE5F0E0808180688C931EC08A81DE
:10020000282F30E03C832B838B819C81009731F039
:100210002B813C812130310549F00FC0ABE5B0E0C6
:10022000EBE5F0E080818F7D8C9307C0ABE5B0E01B
:10023000EBE5F0E0808180628C932B960FB6F8940A
:10024000DEBF0FBECDBFCF91DF910895DF93CF9377
:10025000CDB7DEB72B970FB6F894DEBF0FBECDBF7C
:1002600089836A838981282F30E03A8729878985A5
:100270009A8581309105C1F129853A852230310571
:1002800009F45EC089859A85009709F076C08A8155
:10029000282F30E038872F838F8198850097A9F029
:1002A0002F8138852130310509F067C0A5E5B0E020
:1002B000E5E5F0E0808181608C93A5E5B0E0E5E5BF
:1002C000F0E0808182608C9358C0A5E5B0E0E5E560
:1002D000F0E080818E7F8C93A5E5B0E0E5E5F0E06D
:1002E000808182608C9349C08A81282F30E03E83D0
:1002F0002D838D819E810097A1F02D813E8121303B
:100300003105D9F5A5E5B0E0E5E5F0E08081846050
:100310008C93A5E5B0E0E5E5F0E0808188608C9302
:100320002CC0A5E5B0E0E5E5F0E080818B7F8C9303
:10033000A5E5B0E0E5E5F0E0808188608C931DC024
:100340008A81282F30E03C832B838B819C8100970E
:1003500069F02B813C812130310579F4A4E5B0E0CE
:10036000E4E5F0E0808180648C9307C0A4E5B0E010
:10037000E4E5F0E080818F7B8C932B960FB6F894A8
:10038000DEBF0FBECDBFCF91DF910895DF93CF9336
:1003900000D000D0CDB7DEB789838981282F30E027
:1003A0003B832A838A819B818130910589F02A8150
:1003B0003B8122303105A1F08A819B810097B9F4FD
:1003C000AAE5B0E0EAE5F0E0808180648C930FC09C
:1003D000AAE5B0E0EAE5F0E0808180688C9307C090
:1003E000AAE5B0E0EAE5F0E0808180628C930F90AE
:1003F0000F900F900F90CF91DF910895DF93CF93DF
:1004000000D00F92CDB7DEB79A838983CE010196D3
:1004100090936100809360000F900F900F90CF91A8
:10042000DF910895DF93CF9300D00F92CDB7DEB761
:100430009A838983CE010196909363008093620032
:100440000F900F900F90CF91DF9108951F920F9210
:100450000FB60F9211242F933F934F935F936F9397
:100460007F938F939F93AF93BF93EF93FF93DF930C
:10047000CF93CDB7DEB7E0916200F09163000995AC
:10048000CF91DF91FF91EF91BF91AF919F918F91AC
:100490007F916F915F914F913F912F910F900FBE80
:1004A0000F901F901895DF93CF9300D00F92CDB788
:1004B000DEB79A838983CE0101969093650080937D
:1004C00064000F900F900F90CF91DF9108951F92CD
:1004D0000F920FB60F9211242F933F934F935F9378
:1004E0006F937F938F939F93AF93BF93EF93FF93FC
:1004F000DF93CF93CDB7DEB7E0916400F091650054
:100500000995CF91DF91FF91EF91BF91AF919F91AD
:100510008F917F916F915F914F913F912F910F90AC
:100520000FBE0F901F901895DF93CF93CDB7DEB716
:1005300028970FB6F894DEBF0FBECDBF8A836B83BA
:100540004C8319828B81883008F0F4C08C81882319
:1005500009F077C08A81282F30E038872F838F8178
:1005600098858130910559F12F81388522303105E8
:100570002CF48F819885009769F060C02F813885B1
:100580002230310589F18F8198858330910509F4F6
:1005900040C054C0AAE3B0E0EAE3F0E08081482F15
:1005A0008B81282F30E081E090E0022E02C0880F7E
:1005B000991F0A94E2F7809584238C93BDC0A7E32A
:1005C000B0E0E7E3F0E08081482F8B81282F30E016
:1005D00081E090E0022E02C0880F991F0A94E2F792
:1005E000809584238C93A8C0A4E3B0E0E4E3F0E01A
:1005F0008081482F8B81282F30E081E090E0022E0F
:1006000002C0880F991F0A94E2F7809584238C9387
:1006100093C0A1E3B0E0E1E3F0E08081482F8B815B
:10062000282F30E081E090E0022E02C0880F991F51
:100630000A94E2F7809584238C937EC081E08983BD
:100640007BC08C81813009F072C08A81282F30E014
:100650003E832D838D819E818130910549F12D81CD
:100660003E81223031052CF48D819E81009761F00E
:100670005BC02D813E812230310571F18D819E81DB
:1006800083309105E9F150C0AAE3B0E0EAE3F0E07D
:100690008081482F8B81282F30E081E090E0022E6E
:1006A00002C0880F991F0A94E2F7842B8C9344C0F0
:1006B000A7E3B0E0E7E3F0E08081482F8B81282FAB
:1006C00030E081E090E0022E02C0880F991F0A946A
:1006D000E2F7842B8C9330C0A4E3B0E0E4E3F0E0D5
:1006E0008081482F8B81282F30E081E090E0022E1E
:1006F00002C0880F991F0A94E2F7842B8C931CC0C8
:10070000A1E3B0E0E1E3F0E08081482F8B81282F66
:1007100030E081E090E0022E02C0880F991F0A9419
:10072000E2F7842B8C9308C081E0898305C081E0C7
:10073000898302C081E08983898128960FB6F89465
:10074000DEBF0FBECDBFCF91DF910895DF93CF9372
:1007500000D000D00F92CDB7DEB78A836B831982A9
:100760008A81282F30E03D832C838C819D818130CC
:100770009105D1F02C813D81223031052CF48C8102
:100780009D81009761F01FC02C813D812230310591
:1007900081F08C819D818330910581F014C0EAE362
:1007A000F0E08B81808311C0E7E3F0E08B818083F0
:1007B0000CC0E4E3F0E08B81808307C0E1E3F0E06C
:1007C0008B81808302C081E0898389810F900F90A3
:1007D0000F900F900F90CF91DF910895DF93CF93FB
:1007E000CDB7DEB728970FB6F894DEBF0FBECDBFEA
:1007F0008A836B834C8319828B81883008F0F4C024
:100800008C81882309F077C08A81282F30E03887CF
:100810002F838F8198858130910559F12F813885FB
:10082000223031052CF48F819885009769F060C0E3
:100830002F8138852230310589F18F819885833069
:10084000910509F440C054C0ABE3B0E0EBE3F0E045
:100850008081482F8B81282F30E081E090E0022EAC
:1008600002C0880F991F0A94E2F7809584238C9325
:10087000BDC0A8E3B0E0E8E3F0E08081482F8B81C1
:10088000282F30E081E090E0022E02C0880F991FEF
:100890000A94E2F7809584238C93A8C0A5E3B0E086
:1008A000E5E3F0E08081482F8B81282F30E081E064
:1008B00090E0022E02C0880F991F0A94E2F78095FB
:1008C00084238C9393C0A2E3B0E0E2E3F0E0808164
:1008D000482F8B81282F30E081E090E0022E02C06B
:1008E000880F991F0A94E2F7809584238C937EC029
:1008F00081E089837BC08C81813009F072C08A815C
:10090000282F30E03E832D838D819E81813091059B
:1009100049F12D813E81223031052CF48D819E815B
:10092000009761F05BC02D813E812230310571F16D
:100930008D819E8183309105E9F150C0ABE3B0E039
:10094000EBE3F0E08081482F8B81282F30E081E0BD
:1009500090E0022E02C0880F991F0A94E2F7842BC0
:100960008C9344C0A8E3B0E0E8E3F0E08081482F36
:100970008B81282F30E081E090E0022E02C0880FAA
:10098000991F0A94E2F7842B8C9330C0A5E3B0E062
:10099000E5E3F0E08081482F8B81282F30E081E073
:1009A00090E0022E02C0880F991F0A94E2F7842B70
:1009B0008C931CC0A2E3B0E0E2E3F0E08081482F1A
:1009C0008B81282F30E081E090E0022E02C0880F5A
:1009D000991F0A94E2F7842B8C9308C081E08983E5
:1009E00005C081E0898302C081E0898389812896DE
:1009F0000FB6F894DEBF0FBECDBFCF91DF91089543
:100A0000DF93CF9300D000D00F92CDB7DEB78A83AB
:100A10006B8319828A81282F30E03D832C838C815F
:100A20009D8181309105D1F02C813D8122303105AD
:100A30002CF48C819D81009761F01FC02C813D8139
:100A40002230310581F08C819D818330910581F0C8
:100A500014C0EBE3F0E08B81808311C0E8E3F0E0A9
:100A60008B8180830CC0E5E3F0E08B81808307C03D
:100A7000E2E3F0E08B81808302C081E08983898199
:100A80000F900F900F900F900F90CF91DF910895DE
:100A9000DF93CF93CDB7DEB727970FB6F894DEBFBD
:100AA0000FBECDBF8A836B835D834C8319828C819B
:100AB0009D81009709F478C08B81883008F074C05C
:100AC0008A81282F30E03F832E834E815F81413021
:100AD000510559F18E819F818230910534F42E8128
:100AE0003F812115310569F05CC04E815F81423044
:100AF000510579F18E819F818330910509F43DC0C4
:100B000050C0E9E3F0E08081282F30E08B81882F0E
:100B100090E0A90102C0559547958A95E2F7CA0170
:100B20008170EC81FD81808341C0E6E3F0E080814B
:100B3000282F30E08B81882F90E0A90102C05595C5
:100B400047958A95E2F7CA018170EC81FD81808327
:100B50002DC0E3E3F0E08081282F30E08B81882FE7
:100B600090E0A90102C0559547958A95E2F7CA0120
:100B70008170EC81FD81808319C0E0E3F0E0808129
:100B8000282F30E08B81882F90E0A90102C0559575
:100B900047958A95E2F7CA018170EC81FD818083D7
:100BA00005C081E0898302C081E08983898127961D
:100BB0000FB6F894DEBF0FBECDBFCF91DF91089581
:100BC000DF93CF93CDB7DEB780E061E041E00E94D4
:100BD000940280E061E040E00E94EE0383E062E086
:100BE00040E00E94940283E062E041E00E94EE0354
:100BF00080E060E00E94260181E00E94740080E0B5
:100C000061E00E94A000FFCF1F920F920FB60F92DB
:100C100011242F933F934F935F936F937F938F9301
:100C20009F93AF93BF93EF93FF93DF93CF93CDB792
:100C3000DEB780E061E041E00E94EE03CF91DF91FA
:100C4000FF91EF91BF91AF919F918F917F916F91A4
:100C50005F914F913F912F910F900FBE0F901F907A
:060C60001895F894FFCF87
:00000001FF
