:100000000C942A000C9450060C947D060C94AA06BD
:100010000C9447000C9447000C9447000C94470044
:100020000C9447000C9447000C9447000C94470034
:100030000C9447000C9447000C9447000C94470024
:100040000C9447000C9447000C9447000C94470014
:100050000C94470011241FBECFE5D8E0DEBFCDBF12
:1000600011E0A0E6B0E0E0E6FAE302C005900D92F0
:10007000A039B107D9F711E0A0E9B1E001C01D92A4
:10008000A639B107E1F70E94431A0C942E1D0C9477
:100090000000EF92FF920F931F937B018C0120E0F1
:1000A00030E040E05FE40E94490388238CF0C801FF
:1000B000B70120E030E040E05FE40E94C1010E940F
:1000C00007049B01AC01205030404040504806C01E
:1000D000C801B7010E9407049B01AC01B901CA0124
:1000E0001F910F91FF90EF900895A0E0B0E0EBE733
:1000F000F0E00C94561ADC012B01FA019C9192302D
:1001000008F439C1EB018881823008F433C194309E
:1001100069F4843009F02FC111969C91119789815F
:10012000981709F428C1A0E7B0E025C1843009F48C
:1001300021C18230A9F4923009F01DC19A01AD01AC
:1001400088E0EA010990AE01E90109929E0181501F
:10015000C1F7E201898111969C918923818308C1AD
:10016000923009F407C112962D903C901397EB0141
:100170008A819B811496AD90BD90CD90DC901797AD
:10018000EC80FD800E811F819101281B390BB90184
:1001900037FF04C066277727621B730B6032710537
:1001A0000CF061C0121613066CF537014801062EDB
:1001B00004C096948794779467940A94D2F721E0C8
:1001C00030E040E050E004C0220F331F441F551FB1
:1001D0006A95D2F721503040404050402E213F21B7
:1001E00040235123211531054105510521F021E01E
:1001F00030E040E050E079018A01E628F72808293C
:1002000019293CC0232BD1F1260E371E350146019A
:10021000062E04C096948794779467940A94D2F734
:1002200021E030E040E050E004C0220F331F441FC3
:10023000551F6A95D2F721503040404050402A2146
:100240003B214C215D21211531054105510521F04E
:1002500021E030E040E050E059016A01A628B728CB
:10026000C828D9280BC0821593052CF01C01AA249C
:10027000BB24650103C0EE24FF24870111969C91E5
:10028000D20111968C91981709F445C0992339F041
:10029000A80197012A193B094C095D0906C0A6016E
:1002A00095012E193F09400B510B57FD08C01182D3
:1002B0003382228224833583468357831DC081E0A5
:1002C00081833382228288279927DC01821B930B4A
:1002D000A40BB50B84839583A683B7830DC0220F2F
:1002E000331F441F551F24833583468357838281E0
:1002F000938101979383828324813581468157813D
:10030000DA01C9010197A109B1098F5F9F4FAF4F72
:10031000BF4328F30BC0918333822282EA0CFB1C7B
:100320000C1D1D1DE482F5820683178383E0808304
:10033000248135814681578157FF1AC0C901AA27F8
:1003400097FDA095BA2F81709070A070B0705695EF
:10035000479537952795822B932BA42BB52B848318
:100360009583A683B7838281938101969383828349
:10037000DF0101C0D201CD01CDB7DEB7E2E10C94BF
:10038000721AA0E2B0E0E7ECF1E00C94621A698323
:100390007A838B839C832D833E834F835887E9E048
:1003A000EE2EF12CEC0EFD1ECE010196B7010E943F
:1003B0007F058E010F5E1F4FCE010596B8010E948A
:1003C0007F058A8991E089278A8BC701B801AE0130
:1003D000475E5F4F0E9475000E94AA04A096E6E067
:1003E0000C947E1AA0E2B0E0E8EFF1E00C94621AFF
:1003F00069837A838B839C832D833E834F835887C5
:10040000F9E0EF2EF12CEC0EFD1ECE010196B701A6
:100410000E947F058E010F5E1F4FCE010596B80129
:100420000E947F05C701B801AE01475E5F4F0E9481
:1004300075000E94AA04A096E6E00C947E1AA0E241
:10044000B0E0E5E2F2E00C94561A69837A838B837C
:100450009C832D833E834F835887CE010196BE0136
:10046000675F7F4F0E947F05CE010596BE016F5EDC
:100470007F4F0E947F059985923088F0898982306C
:10048000C8F0943019F4823051F404C0843029F457
:10049000923081F480E790E0C6C0923049F420E0C9
:1004A0009A858A89981321E02A87CE010996BBC0D4
:1004B000823049F420E09A858A89981321E02A8BBA
:1004C000CE014196B0C02D843E844F8458886D88FB
:1004D0007E888F88988CEE24FF248701AA24BB2471
:1004E000650140E050E060E070E0E0E0F0E0C10174
:1004F00081709070892BE9F0E60CF71C081D191D1E
:100500009A01AB012A0D3B1D4C1D5D1D80E090E062
:10051000A0E0B0E0E614F7040805190520F481E036
:1005200090E0A0E0B0E0BA01A901480F591F6A1F8E
:100530007B1FAA0CBB1CCC1CDD1C97FE08C081E0F5
:1005400090E0A0E0B0E0A82AB92ACA2ADB2A3196B6
:10055000E032F10549F0660C771C881C991C569412
:10056000479437942794C3CFFA85EA892B893C892D
:100570008B859C85280F391F2E5F3F4F17C0CA01FE
:1005800081709070892B61F016950795F794E79428
:1005900080E090E0A0E0B0E8E82AF92A0A2B1B2BC3
:1005A00076956795579547952F5F3F4F77FDE7CF36
:1005B0000CC0440F551F661F771F17FD4160EE0CDE
:1005C000FF1C001F111F21503040403090E05907A0
:1005D00090E0690790E4790760F32B8F3C8FDB0193
:1005E000CA018F779070A070B07080349105A1051A
:1005F000B10561F447FD0AC0E114F10401051105DC
:1006000029F0405C5F4F6F4F7F4F40781A8EFE1786
:1006100011F081E08A8F4D8F5E8F6F8F78A383E01A
:10062000898FCE0149960E94AA04A096E2E10C941B
:10063000721AA8E1B0E0EFE1F3E00C94621A69836A
:100640007A838B839C832D833E834F83588789E0F5
:10065000E82EF12CEC0EFD1ECE010196B7010E9492
:100660007F058E010F5E1F4FCE010596B8010E94D7
:100670007F058985823040F08989823028F0C70162
:10068000B8010E94F70501C08FEF6896E6E00C9470
:100690007E1AA8E1B0E0EFE4F3E00C94621A6983FB
:1006A0007A838B839C832D833E834F83588789E095
:1006B000E82EF12CEC0EFD1ECE010196B7010E9432
:1006C0007F058E010F5E1F4FCE010596B8010E9477
:1006D0007F058985823040F08989823028F0C70102
:1006E000B8010E94F70501C08FEF6896E6E00C9410
:1006F0007E1AA8E1B0E0EFE7F3E00C94621A698398
:100700007A838B839C832D833E834F83588789E034
:10071000E82EF12CEC0EFD1ECE010196B7010E94D1
:100720007F058E010F5E1F4FCE010596B8010E9416
:100730007F058985823040F08989823028F0C701A1
:10074000B8010E94F70501C081E06896E6E00C94CC
:100750007E1AA8E0B0E0EFEAF3E00C945F1A9B0188
:10076000AC0183E08983DA01C9018827B7FD83954D
:100770009927AA27BB27B82E211531054105510518
:1007800019F482E089833AC08823A9F0203080E000
:10079000380780E0480780E8580729F460E070E0F7
:1007A00080E09FEC30C0EE24FF248701E21AF30AB8
:1007B000040B150B02C079018A018EE1C82ED12CE1
:1007C000DC82CB82ED82FE820F831887C801B701DD
:1007D0000E945B0401971816190684F4082E04C0C1
:1007E000EE0CFF1C001F111F0A94D2F7ED82FE824F
:1007F0000F831887C81AD90ADC82CB82BA82CE014D
:1008000001960E94AA042896E9E00C947B1AACE0B9
:10081000B0E0EDE0F4E00C94661A69837A838B8390
:100820009C83CE010196BE016B5F7F4F0E947F05C6
:100830008D81823061F1823050F1843021F48E81DB
:10084000882351F12EC02F81388537FD20C06E815D
:100850002F3131051CF06623F9F023C08EE190E0C2
:10086000821B930B29853A854B855C8504C0569580
:100870004795379527958A95D2F76623B1F050951D
:100880004095309521953F4F4F4F5F4F0EC020E070
:1008900030E040E050E009C02FEF3FEF4FEF5FE75F
:1008A00004C020E030E040E050E8B901CA012C96D5
:1008B000E2E00C94821AEF92FF920F931F937B0158
:1008C0008C0180E0E81680E0F80681E0080780E00F
:1008D000180788F48FEFE816F1040105110531F0CF
:1008E00028F088E090E0A0E0B0E017C080E090E061
:1008F000A0E0B0E012C080E0E81680E0F80680E0FA
:10090000080781E0180728F088E190E0A0E0B0E057
:1009100004C080E190E0A0E0B0E020E230E040E000
:1009200050E0281B390B4A0B5B0B04C0169507954A
:10093000F794E7948A95D2F7F701E858FF4F808142
:10094000281B310941095109C9011F910F91FF90DD
:10095000EF900895DF92EF92FF920F931F93FC01A7
:10096000E480F58006811781D1808081823048F44F
:1009700080E090E0A0E1B0E0E82AF92A0A2B1B2BE6
:10098000A5C0843009F49FC0823021F4EE24FF24F6
:10099000870105C0E114F1040105110519F4E0E037
:1009A000F0E096C0628173819FEF623879070CF0A6
:1009B0005BC022E83FEF261B370B2A3131052CF0B4
:1009C00020E030E040E050E02AC0B801A701022E4C
:1009D00004C076956795579547950A94D2F781E0BC
:1009E00090E0A0E0B0E004C0880F991FAA1FBB1FD1
:1009F0002A95D2F70197A109B1098E219F21A02341
:100A0000B1230097A105B10521F081E090E0A0E0BD
:100A1000B0E09A01AB01282B392B4A2B5B2BDA0172
:100A2000C9018F779070A070B07080349105A105D6
:100A3000B10539F427FF09C0205C3F4F4F4F5F4F8E
:100A400004C0215C3F4F4F4F5F4FE0E0F0E02030AB
:100A5000A0E03A07A0E04A07A0E45A0710F0E1E05E
:100A6000F0E079018A0127C06038710564F5FB0167
:100A7000E158FF4FD801C7018F779070A070B07018
:100A800080349105A105B10539F4E7FE0DC080E47D
:100A900090E0A0E0B0E004C08FE390E0A0E0B0E020
:100AA000E80EF91E0A1F1B1F17FF05C016950795B4
:100AB000F794E794319687E016950795F794E794B5
:100AC0008A95D1F705C0EE24FF248701EFEFF0E00F
:100AD0006E2F679566276795902F9F77D794DD24B3
:100AE000D7948E2F8695492F462B582F5D29B70115
:100AF000CA011F910F91FF90EF90DF900895FC01C4
:100B0000DB01408151812281622F6F7770E0221FCB
:100B10002227221F9381892F880F822B282F30E0D4
:100B2000991F9927991F11969C93119721153105AB
:100B3000A9F5411551056105710511F482E037C031
:100B400082E89FEF13969C938E9312979A01AB01C4
:100B500067E0220F331F441F551F6A95D1F783E0CA
:100B60008C930DC0220F331F441F551F12968D9179
:100B70009C911397019713969C938E931297203014
:100B800080E0380780E0480780E4580758F314965F
:100B90002D933D934D935C93179708952F3F310507
:100BA00079F4411551056105710519F484E08C93C0
:100BB000089564FF03C081E08C9312C01C9210C0A2
:100BC0002F57304013963C932E93129783E08C93CB
:100BD00087E0440F551F661F771F8A95D1F7706411
:100BE00014964D935D936D937C93179708951F937F
:100BF000DC01FB019C91923008F447C08081823077
:100C000008F443C0943051F411961C91843099F546
:100C10008181682F70E0611B71093FC0843021F031
:100C2000923031F48230B9F18181882389F12DC06D
:100C300011961C9111978230F1F081811817D9F427
:100C400012962D913C91139782819381821793077D
:100C500094F028173907BCF014968D919D910D9052
:100C6000BC91A02D248135814681578128173907F1
:100C70004A075B0718F4112341F00AC08217930753
:100C8000A407B50740F4112319F061E070E005C036
:100C90006FEF7FEF02C060E070E0CB011F9108951D
:100CA0001F920F920FB60F9211242F933F934F93E1
:100CB0005F936F937F938F939F93AF93BF93EF93C4
:100CC000FF93DF93CF93CDB7DEB7E0919001F09122
:100CD00091010995CF91DF91FF91EF91BF91AF9174
:100CE0009F918F917F916F915F914F913F912F9144
:100CF0000F900FBE0F901F9018951F920F920FB676
:100D00000F9211242F933F934F935F936F937F9391
:100D10008F939F93AF93BF93EF93FF93DF93CF9303
:100D2000CDB7DEB7E0919201F09193010995CF9193
:100D3000DF91FF91EF91BF91AF919F918F917F9143
:100D40006F915F914F913F912F910F900FBE0F9038
:100D50001F9018951F920F920FB60F9211242F9388
:100D60003F934F935F936F937F938F939F93AF9333
:100D7000BF93EF93FF93DF93CF93CDB7DEB7E091AF
:100D80009401F09195010995CF91DF91FF91EF9139
:100D9000BF91AF919F918F917F916F915F914F9193
:100DA0003F912F910F900FBE0F901F901895DF93DA
:100DB000CF9300D000D0CDB7DEB789838981282FAB
:100DC00030E03C832B838B819C81009731F02B8119
:100DD0003C812130310549F010C0AFE5B0E0EFE5CE
:100DE000F0E0808180688C930AC0AFE5B0E0EFE569
:100DF000F0E080818F778C9302C01A8202C031E0CC
:100E00003A838A810F900F900F900F90CF91DF91CE
:100E10000895DF93CF9300D000D0CDB7DEB789839C
:100E2000ABE5B0E0EBE5F0E0808180648C938981F4
:100E3000282F30E03C832B838B819C810097A1F08D
:100E40002B813C8121303105F1F4A5E5B0E0E5E5E9
:100E5000F0E0808181608C93A5E5B0E0E5E5F0E00D
:100E6000808182608C9311C0A5E5B0E0E5E5F0E0FB
:100E700080818E7F8C93A5E5B0E0E5E5F0E0808190
:100E800082608C9302C01A8202C031E03A838A8168
:100E90000F900F900F900F90CF91DF910895DF93F7
:100EA000CF9300D0CDB7DEB79A83898389819A81A9
:100EB000909391018093900181E00F900F90CF91DA
:100EC000DF910895DF93CF9300D000D0CDB7DEB788
:100ED0008983ABE5B0E0EBE5F0E0808180688C933E
:100EE0008981282F30E03C832B838B819C81009764
:100EF000B1F02B813C812130310511F5A5E5B0E041
:100F0000E5E5F0E0808184608C93A5E5B0E0E5E55F
:100F1000F0E0808188608C9331E03A8312C0A5E5CF
:100F2000B0E0E5E5F0E080818B7F8C93A5E5B0E053
:100F3000E5E5F0E0808188608C9381E08A8301C0E0
:100F40001A828A810F900F900F900F90CF91DF91AE
:100F50000895DF93CF9300D0CDB7DEB79A8389830E
:100F600089819A81909393018093920181E00F90FF
:100F70000F90CF91DF910895DF93CF9300D000D0F1
:100F8000CDB7DEB78983ABE5B0E0EBE5F0E080817B
:100F900080628C938981282F30E03C832B838B8166
:100FA0009C81009779F02B813C8121303105A1F49F
:100FB000A4E5B0E0E4E5F0E0808180648C9331E06A
:100FC0003A830BC0A4E5B0E0E4E5F0E080818F7BDC
:100FD0008C9381E08A8301C01A828A810F900F90DE
:100FE0000F900F90CF91DF910895DF93CF9300D0B2
:100FF000CDB7DEB79A83898389819A8190939501D1
:101000008093940181E00F900F90CF91DF9108952C
:10101000DF93CF93CDB7DEB7EAE3F0E01082E7E3EA
:10102000F0E01082E4E3F0E01082E1E3F0E010820F
:10103000EBE3F0E01082E8E3F0E01082E5E3F0E0BB
:101040001082E2E3F0E01082A0E5B0E0E0E5F0E03D
:1010500080818B7F8C93CF91DF910895DF93CF9325
:10106000CDB7DEB72E970FB6F894DEBF0FBECDBF5B
:1010700089836A834B838A81883010F01E860EC173
:101080008981282F30E03D872C878C859D85813094
:10109000910509F451C02C853D85223031052CF491
:1010A0008C859D85009771F0F5C02C853D8522309B
:1010B000310509F47BC08C859D858330910509F449
:1010C000AFC0E8C08B81282F30E03B872A878A8514
:1010D0009B85009731F02A853B8521303105B1F0A1
:1010E00029C0AAE3B0E0EAE3F0E08081482F8A81DA
:1010F000282F30E081E090E0022E02C0880F991F77
:101100000A94E2F7809584238C93C6C0AAE3B0E0EA
:10111000EAE3F0E08081482F8A81282F30E081E0E7
:1011200090E0022E02C0880F991F0A94E2F7842BE8
:101130008C93B2C01E86B2C08B81282F30E03987D5
:10114000288788859985009731F028853985213051
:101150003105B1F029C0A7E3B0E0E7E3F0E080811A
:10116000482F8A81282F30E081E090E0022E02C0D3
:10117000880F991F0A94E2F7809584238C938CC082
:10118000A7E3B0E0E7E3F0E08081482F8A81282FD1
:1011900030E081E090E0022E02C0880F991F0A948F
:1011A000E2F7842B8C9378C01E8678C08B81282F21
:1011B00030E03F832E838E819F81009731F02E8116
:1011C0003F8121303105B1F029C0A4E3B0E0E4E370
:1011D000F0E08081482F8A81282F30E081E090E084
:1011E000022E02C0880F991F0A94E2F7809584238B
:1011F0008C9352C0A4E3B0E0E4E3F0E08081482F98
:101200008A81282F30E081E090E0022E02C0880F12
:10121000991F0A94E2F7842B8C933EC01E863EC031
:101220008B81282F30E03D832C838C819D8100971A
:1012300031F02C813D8121303105B1F029C0A1E38D
:10124000B0E0E1E3F0E08081482F8A81282F30E090
:1012500081E090E0022E02C0880F991F0A94E2F705
:10126000809584238C9318C0A1E3B0E0E1E3F0E023
:101270008081482F8A81282F30E081E090E0022E83
:1012800002C0880F991F0A94E2F7842B8C9304C044
:101290001E8604C01E8602C031E03E878E852E96D3
:1012A0000FB6F894DEBF0FBECDBFCF91DF9108958A
:1012B000DF93CF9300D000D00F92CDB7DEB78983F4
:1012C0006A838981282F30E03D832C838C819D8126
:1012D00081309105D1F02C813D81223031052CF4F3
:1012E0008C819D81009761F01FC02C813D8122304F
:1012F000310581F08C819D818330910581F014C08E
:10130000EAE3F0E08A81808311C0E7E3F0E08A81BC
:1013100080830CC0E4E3F0E08A81808307C0E1E3CE
:10132000F0E08A81808302C01B8202C091E09B832F
:101330008B810F900F900F900F900F90CF91DF91B6
:101340000895DF93CF93CDB7DEB72E970FB6F894FD
:10135000DEBF0FBECDBF89836A834B838A8188300D
:1013600010F01E860EC18981282F30E03D872C8722
:101370008C859D858130910509F451C02C853D8572
:10138000223031052CF48C859D85009771F0F5C0D5
:101390002C853D852230310509F47BC08C859D85E7
:1013A0008330910509F4AFC0E8C08B81282F30E06D
:1013B0003B872A878A859B85009731F02A853B8564
:1013C00021303105B1F029C0ABE3B0E0EBE3F0E050
:1013D0008081482F8A81282F30E081E090E0022E22
:1013E00002C0880F991F0A94E2F7809584238C939A
:1013F000C6C0ABE3B0E0EBE3F0E08081482F8A8128
:10140000282F30E081E090E0022E02C0880F991F63
:101410000A94E2F7842B8C93B2C01E86B2C08B81F3
:10142000282F30E03987288788859985009731F003
:101430002885398521303105B1F029C0A8E3B0E015
:10144000E8E3F0E08081482F8A81282F30E081E0B6
:1014500090E0022E02C0880F991F0A94E2F780954F
:1014600084238C938CC0A8E3B0E0E8E3F0E08081B3
:10147000482F8A81282F30E081E090E0022E02C0C0
:10148000880F991F0A94E2F7842B8C9378C01E86EC
:1014900078C08B81282F30E03F832E838E819F81FF
:1014A000009731F02E813F8121303105B1F029C004
:1014B000A5E3B0E0E5E3F0E08081482F8A81282FA2
:1014C00030E081E090E0022E02C0880F991F0A945C
:1014D000E2F7809584238C9352C0A5E3B0E0E5E366
:1014E000F0E08081482F8A81282F30E081E090E071
:1014F000022E02C0880F991F0A94E2F7842B8C9366
:101500003EC01E863EC08B81282F30E03D832C8359
:101510008C819D81009731F02C813D8121303105F6
:10152000B1F029C0A2E3B0E0E2E3F0E08081482F0F
:101530008A81282F30E081E090E0022E02C0880FDF
:10154000991F0A94E2F7809584238C9318C0A2E334
:10155000B0E0E2E3F0E08081482F8A81282F30E07C
:1015600081E090E0022E02C0880F991F0A94E2F7F2
:10157000842B8C9304C01E8604C01E8602C031E0FA
:101580003E878E852E960FB6F894DEBF0FBECDBF78
:10159000CF91DF910895DF93CF9300D000D00F92C9
:1015A000CDB7DEB789836A838981282F30E03D83F8
:1015B0002C838C819D8181309105D1F02C813D81DE
:1015C000223031052CF48C819D81009761F01FC081
:1015D0002C813D812230310581F08C819D818330C9
:1015E000910581F014C0EBE3F0E08A81808311C0A3
:1015F000E8E3F0E08A8180830CC0E5E3F0E08A81D3
:10160000808307C0E2E3F0E08A81808302C01B820E
:1016100002C091E09B838B810F900F900F900F90F1
:101620000F90CF91DF910895DF93CF93CDB7DEB7C1
:1016300027970FB6F894DEBF0FBECDBF89836A83AC
:101640005C834B838A81883010F01F8275C089814A
:10165000282F30E03E832D834D815E81413051053E
:1016600059F18D819E818230910534F42D813E8126
:101670002115310569F05CC04D815E814230510514
:1016800079F18D819E818330910509F43DC050C070
:10169000E9E3F0E08081282F30E08A81882F90E014
:1016A000A90102C0559547958A95E2F7CA01817054
:1016B000EB81FC8180833EC0E6E3F0E08081282F4F
:1016C00030E08A81882F90E0A90102C055954795A6
:1016D0008A95E2F7CA018170EB81FC8180832AC080
:1016E000E3E3F0E08081282F30E08A81882F90E0CA
:1016F000A90102C0559547958A95E2F7CA01817004
:10170000EB81FC81808316C0E0E3F0E08081282F2C
:1017100030E08A81882F90E0A90102C05595479555
:101720008A95E2F7CA018170EB81FC81808302C057
:101730001F8202C051E05F838F8127960FB6F89415
:10174000DEBF0FBECDBFCF91DF910895DF93CF9362
:1017500000D000D00F92CDB7DEB789836A838A812B
:10176000883010F01D8273C08981282F30E03C83BF
:101770002B838B819C818130910549F12B813C81A8
:10178000223031052CF48B819C81009761F05BC085
:101790002B813C812230310571F18B819C8183301A
:1017A0009105E9F150C0ABE3B0E0EBE3F0E08081FC
:1017B000482F8A81282F30E081E090E0022E02C07D
:1017C000880F991F0A94E2F784278C933EC0A8E300
:1017D000B0E0E8E3F0E08081482F8A81282F30E0F4
:1017E00081E090E0022E02C0880F991F0A94E2F770
:1017F00084278C932AC0A5E3B0E0E5E3F0E0808184
:10180000482F8A81282F30E081E090E0022E02C02C
:10181000880F991F0A94E2F784278C9316C0A2E3DD
:10182000B0E0E2E3F0E08081482F8A81282F30E0A9
:1018300081E090E0022E02C0880F991F0A94E2F71F
:1018400084278C9302C01D8202C091E09D838D810C
:101850000F900F900F900F900F90CF91DF91089500
:10186000DF93CF93CDB7DEB72E970FB6F894DEBFD8
:101870000FBECDBF89836A834B838A81883010F085
:101880001E860EC18981282F30E03D872C878C85EC
:101890009D858130910509F451C02C853D8522300C
:1018A00031052CF48C859D85009771F0F5C02C8551
:1018B0003D852230310509F47BC08C859D858330C0
:1018C000910509F4AFC0E8C08B81282F30E03B8739
:1018D0002A878A859B85009731F02A853B852130B0
:1018E0003105B1F029C0ABE3B0E0EBE3F0E080817B
:1018F000482F8A81282F30E081E090E0022E02C03C
:10190000880F991F0A94E2F7809584238C93C6C0B0
:10191000ABE3B0E0EBE3F0E08081482F8A81282F31
:1019200030E081E090E0022E02C0880F991F0A94F7
:10193000E2F7842B8C93B2C01E86B2C08B81282F15
:1019400030E03987288788859985009731F0288588
:10195000398521303105B1F029C0A8E3B0E0E8E3D2
:10196000F0E08081482F8A81282F30E081E090E0EC
:10197000022E02C0880F991F0A94E2F780958423F3
:101980008C938CC0A8E3B0E0E8E3F0E08081482FBE
:101990008A81282F30E081E090E0022E02C0880F7B
:1019A000991F0A94E2F7842B8C9378C01E8678C026
:1019B0008B81282F30E03F832E838E819F8100977B
:1019C00031F02E813F8121303105B1F029C0A5E3EE
:1019D000B0E0E5E3F0E08081482F8A81282F30E0F5
:1019E00081E090E0022E02C0880F991F0A94E2F76E
:1019F000809584238C9352C0A5E3B0E0E5E3F0E04A
:101A00008081482F8A81282F30E081E090E0022EEB
:101A100002C0880F991F0A94E2F7842B8C933EC072
:101A20001E863EC08B81282F30E03D832C838C8125
:101A30009D81009731F02C813D8121303105B1F03D
:101A400029C0A2E3B0E0E2E3F0E08081482F8A8180
:101A5000282F30E081E090E0022E02C0880F991F0D
:101A60000A94E2F7809584238C9318C0A2E3B0E037
:101A7000E2E3F0E08081482F8A81282F30E081E086
:101A800090E0022E02C0880F991F0A94E2F7842B7F
:101A90008C9304C01E8604C01E8602C031E03E87BF
:101AA0008E852E960FB6F894DEBF0FBECDBFCF91B8
:101AB000DF910895DF93CF93CDB7DEB76E970FB662
:101AC000F894DEBF0FBECDBF89836A834B838981C3
:101AD000282F30E03E8F2D8F8D8D9E8D813091058A
:101AE00009F44FC22D8D3E8D2230310534F48D8D99
:101AF0009E8D009781F00C943F162D8D3E8D2230E7
:101B0000310509F468C48D8D9E8D8330910509F4EB
:101B10008CC60C943F168A81282F30E03C8F2B8F87
:101B20008B8D9C8D009739F02B8D3C8D21303105AC
:101B300009F418C124C280E06FEF0E94580980E0C8
:101B400067E040E00E94A1098B81282F30E03A8FA6
:101B5000298F898D9A8D8430910509F492C0298D41
:101B60003A8D25303105ECF4898D9A8D81309105BF
:101B700009F44BC0298D3A8D223031052CF4898D22
:101B80009A8D009799F1EBC0298D3A8D223031055D
:101B900009F44FC0898D9A8D8330910509F45DC099
:101BA000DEC0298D3A8D2730310509F4A6C0898D14
:101BB0009A8D883091056CF4298D3A8D2530310548
:101BC00009F478C0898D9A8D8630910509F486C014
:101BD000C6C0298D3A8D2830310509F4A7C0898DFA
:101BE0009A8D8930910509F4ABC0B9C080E06FEFE0
:101BF0000E94580980E06FEF0E94CB0A80E066E007
:101C000040E00E94A1090C94411680E06FEF0E9411
:101C1000580980E060E00E94CB0A80E061E041E08A
:101C20000E94A10980E062E041E00E94A1090C94B9
:101C3000411680E06FEF0E94580980E06FEF0E942C
:101C4000CB0A80E062E040E00E94A10980E065E00C
:101C500040E00E94A1090C94411680E06FEF0E94C1
:101C6000580980E06FEF0E94CB0A80E064E040E01A
:101C70000E94A10980E065E040E00E94A1090C9467
:101C8000411680E06FEF0E94580980E06FEF0E94DC
:101C9000CB0A80E060E040E00E94A10980E063E0C0
:101CA00040E00E94A10980E064E040E00E94A109B8
:101CB0000C94411680E06FEF0E94580980E06FEFAE
:101CC0000E94CB0A80E061E040E00E94A10980E030
:101CD00064E040E00E94A1090C94411680E06FEF9F
:101CE0000E94580980E06FEF0E94CB0A80E061E01B
:101CF00040E00E94A1090C94411680E06FEF0E9421
:101D0000580980E060E00E94CB0A80E060E041E09A
:101D10000E94A10980E061E041E00E94A10980E009
:101D200062E041E00E94A1090C94411680E06FEF4F
:101D30000E94580980E06FEF0E94CB0A0C94411674
:101D400080E06FEF0E94580980E06FEF0E94CB0A9D
:101D500080E064E040E00E94A1090C944116188ED6
:101D60000C94431680E06FEF0E94580980E067E012
:101D700041E00E94A1098B81282F30E03F8B2E8B00
:101D80008E899F898430910509F48FC02E893F89FF
:101D900025303105ECF48E899F898130910509F455
:101DA0004BC02E893F89223031052CF48E899F89C2
:101DB000009799F1E2C02E893F892230310509F45C
:101DC0004EC08E899F898330910509F45BC0D5C0D0
:101DD0002E893F892730310509F4A0C08E899F895B
:101DE000883091056CF42E893F892530310509F43E
:101DF00074C08E899F898630910509F481C0BDC069
:101E00002E893F892830310509F4A0C08E899F8929
:101E10008930910509F4A3C0B0C080E06FEF0E9443
:101E2000580980E060E00E94CB0A80E066E041E073
:101E30000E94A1090C94411680E06FEF0E9458099E
:101E400080E06FEF0E94CB0A80E061E040E00E94FA
:101E5000A10980E062E040E00E94A10912C780E091
:101E60006FEF0E94580980E060E00E94CB0A80E09A
:101E700062E041E00E94A10980E065E041E00E944B
:101E8000A109FFC680E06FEF0E94580980E060E082
:101E90000E94CB0A80E064E041E00E94A10980E05A
:101EA00065E041E00E94A109ECC680E06FEF0E946E
:101EB000580980E060E00E94CB0A80E060E041E0E9
:101EC0000E94A10980E063E041E00E94A10980E056
:101ED00064E041E00E94A109D4C680E06FEF0E9457
:101EE000580980E060E00E94CB0A80E061E041E0B8
:101EF0000E94A10980E064E041E00E94A109C1C6FE
:101F000080E06FEF0E94580980E060E00E94CB0AF9
:101F100080E061E041E00E94A109B3C680E06FEF7C
:101F20000E94580980E06FEF0E94CB0A80E060E0D9
:101F300040E00E94A10980E061E040E00E94A10928
:101F400080E062E040E00E94A1099BC680E06FEF64
:101F50000E94580980E060E00E94CB0A92C680E0AF
:101F60006FEF0E94580980E060E00E94CB0A80E099
:101F700064E041E00E94A10984C6188E84C6188ED0
:101F800082C68A81282F30E03D8B2C8B8C899D89DD
:101F9000009739F02C893D892130310509F40DC1B4
:101FA00018C281E06FEF0E94580981E067E040E0CD
:101FB0000E94A1098B81282F30E03B8B2A8B8A89D4
:101FC0009B898430910509F48EC02A893B8925308C
:101FD0003105ECF48A899B898130910509F44AC066
:101FE0002A893B89223031052CF48A899B89009704
:101FF00099F1E1C02A893B892230310509F44DC0AD
:102000008A899B898330910509F45AC0D4C02A89F2
:102010003B892730310509F49FC08A899B89883024
:1020200091056CF42A893B892530310509F473C088
:102030008A899B898630910509F480C0BCC02A89B1
:102040003B892830310509F49FC08A899B898930F2
:10205000910509F4A2C0AFC081E06FEF0E9458095A
:1020600081E06FEF0E94CB0A81E066E040E00E94D1
:10207000A10907C681E06FEF0E94580981E060E086
:102080000E94CB0A81E061E041E00E94A10981E069
:1020900062E041E00E94A109F4C581E06FEF0E9477
:1020A000580981E06FEF0E94CB0A81E062E040E0D6
:1020B0000E94A10981E065E040E00E94A109E1C51C
:1020C00081E06FEF0E94580981E06FEF0E94CB0A18
:1020D00081E064E040E00E94A10981E065E040E029
:1020E0000E94A109CEC581E06FEF0E94580981E0EE
:1020F0006FEF0E94CB0A81E060E040E00E94A109FE
:1021000081E063E040E00E94A10981E064E040E0FA
:102110000E94A109B6C581E06FEF0E94580981E0D5
:102120006FEF0E94CB0A81E061E040E00E94A109CC
:1021300081E064E040E00E94A109A3C581E06FEF67
:102140000E94580981E06FEF0E94CB0A81E061E0B4
:1021500040E00E94A10995C581E06FEF0E945809F7
:1021600081E060E00E94CB0A81E060E041E00E94F3
:10217000A10981E061E041E00E94A10981E062E003
:1021800041E00E94A1097DC581E06FEF0E945809DE
:1021900081E06FEF0E94CB0A74C581E06FEF0E946F
:1021A000580981E06FEF0E94CB0A81E064E040E0D3
:1021B0000E94A10966C5188E66C581E06FEF0E9476
:1021C000580981E067E041E00E94A1098B81282F36
:1021D00030E0398B288B888999898430910509F4FE
:1021E0008EC02889398925303105ECF48889998990
:1021F0008130910509F44AC0288939892230310596
:102200002CF488899989009799F1E1C02889398946
:102210002230310509F44DC08889998983309105B0
:1022200009F45AC0D4C0288939892730310509F406
:102230009FC088899989883091056CF428893989EB
:102240002530310509F473C0888999898630910554
:1022500009F480C0BCC0288939892830310509F4C7
:102260009FC0888999898930910509F4A2C0AFC0BF
:1022700081E06FEF0E94580981E060E00E94CB0A84
:1022800081E066E041E00E94A109FBC481E06FEFBC
:102290000E94580981E06FEF0E94CB0A81E061E063
:1022A00040E00E94A10981E062E040E00E94A109B3
:1022B000E8C481E06FEF0E94580981E060E00E946D
:1022C000CB0A81E062E041E00E94A10981E065E083
:1022D00041E00E94A109D5C481E06FEF0E94580936
:1022E00081E060E00E94CB0A81E064E041E00E946E
:1022F000A10981E065E041E00E94A109C2C481E03A
:102300006FEF0E94580981E060E00E94CB0A81E0F3
:1023100060E041E00E94A10981E063E041E00E94A9
:10232000A10981E064E041E00E94A109AAC481E022
:102330006FEF0E94580981E060E00E94CB0A81E0C3
:1023400061E041E00E94A10981E064E041E00E9477
:10235000A10997C481E06FEF0E94580981E060E015
:102360000E94CB0A81E061E041E00E94A10989C49A
:1023700081E06FEF0E94580981E06FEF0E94CB0A65
:1023800081E060E040E00E94A10981E061E040E07E
:102390000E94A10981E062E040E00E94A10971C4AD
:1023A00081E06FEF0E94580981E060E00E94CB0A53
:1023B00068C481E06FEF0E94580981E060E00E94EC
:1023C000CB0A81E064E041E00E94A1095AC4188E62
:1023D0005AC4188E58C48A81282F30E03F872E8730
:1023E0008E859F85009739F02E853F8521303105F8
:1023F00009F40DC118C282E06FEF0E94580982E013
:1024000067E040E00E94A1098B81282F30E03D87E2
:102410002C878C859D858430910509F48EC02C8590
:102420003D8525303105ECF48C859D858130910505
:1024300009F44AC02C853D85223031052CF48C8569
:102440009D85009799F1E1C02C853D8522303105AD
:1024500009F44DC08C859D858330910509F45AC0DF
:10246000D4C02C853D852730310509F49FC08C856B
:102470009D85883091056CF42C853D85253031058E
:1024800009F473C08C859D858630910509F480C060
:10249000BCC02C853D852830310509F49FC08C8552
:1024A0009D858930910509F4A2C0AFC082E06FEF2D
:1024B0000E94580982E06FEF0E94CB0A82E066E03A
:1024C00040E00E94A109DDC382E06FEF0E9458093D
:1024D00082E060E00E94CB0A82E061E041E00E947D
:1024E000A10982E062E041E00E94A109CAC382E042
:1024F0006FEF0E94580982E06FEF0E94CB0A82E0E2
:1025000062E040E00E94A10982E065E040E00E94B4
:10251000A109B7C382E06FEF0E94580982E06FEF14
:102520000E94CB0A82E064E040E00E94A10982E0C0
:1025300065E040E00E94A109A4C382E06FEF0E9421
:10254000580982E06FEF0E94CB0A82E060E040E031
:102550000E94A10982E063E040E00E94A10982E0BC
:1025600064E040E00E94A1098CC382E06FEF0E940A
:10257000580982E06FEF0E94CB0A82E061E040E000
:102580000E94A10982E064E040E00E94A10979C3B1
:1025900082E06FEF0E94580982E06FEF0E94CB0A41
:1025A00082E061E040E00E94A1096BC382E06FEF2E
:1025B0000E94580982E060E00E94CB0A82E060E05D
:1025C00041E00E94A10982E061E041E00E94A1098E
:1025D00082E062E041E00E94A10953C382E06FEF14
:1025E0000E94580982E06FEF0E94CB0A4AC382E042
:1025F0006FEF0E94580982E06FEF0E94CB0A82E0E1
:1026000064E040E00E94A1093CC3188E3CC382E014
:102610006FEF0E94580982E067E041E00E94A10943
:102620008B81282F30E03B872A878A859B858430E1
:10263000910509F48EC02A853B8525303105ECF4DF
:102640008A859B858130910509F44AC02A853B859E
:10265000223031052CF48A859B85009799F1E1C0E1
:102660002A853B852230310509F44DC08A859B853A
:102670008330910509F45AC0D4C02A853B852730A0
:10268000310509F49FC08A859B85883091056CF4DB
:102690002A853B852530310509F473C08A859B85E1
:1026A0008630910509F480C0BCC02A853B8528305E
:1026B000310509F49FC08A859B858930910509F40D
:1026C000A2C0AFC082E06FEF0E94580982E060E0D4
:1026D0000E94CB0A82E066E041E00E94A109D1C2DB
:1026E00082E06FEF0E94580982E06FEF0E94CB0AF0
:1026F00082E061E040E00E94A10982E062E040E007
:102700000E94A109BEC282E06FEF0E94580982E0D8
:1027100060E00E94CB0A82E062E041E00E94A109F1
:1027200082E065E041E00E94A109ABC282E06FEF68
:102730000E94580982E060E00E94CB0A82E064E0D7
:1027400041E00E94A10982E065E041E00E94A10908
:1027500098C282E06FEF0E94580982E060E00E9418
:10276000CB0A82E060E041E00E94A10982E063E0E0
:1027700041E00E94A10982E064E041E00E94A109D9
:1027800080C282E06FEF0E94580982E060E00E9400
:10279000CB0A82E061E041E00E94A10982E064E0AE
:1027A00041E00E94A1096DC282E06FEF0E945809CA
:1027B00082E060E00E94CB0A82E061E041E00E949A
:1027C000A1095FC282E06FEF0E94580982E06FEFBB
:1027D0000E94CB0A82E060E040E00E94A10982E012
:1027E00061E040E00E94A10982E062E040E00E94D6
:1027F000A10947C282E06FEF0E94580982E060E0C1
:102800000E94CB0A3EC282E06FEF0E94580982E02C
:1028100060E00E94CB0A82E064E041E00E94A109EE
:1028200030C2188E30C2188E2EC28A81282F30E016
:102830003987288788859985009739F028853985D3
:102840002130310509F40DC118C283E06FEF0E94F9
:10285000580983E067E040E00E94A1098B81282F9E
:1028600030E03F832E838E819F818430910509F46F
:102870008EC02E813F8125303105ECF48E819F8101
:102880008130910509F44AC02E813F812230310503
:102890002CF48E819F81009799F1E1C02E813F81B8
:1028A0002230310509F44DC08E819F81833091051E
:1028B00009F45AC0D4C02E813F812730310509F474
:1028C0009FC08E819F81883091056CF42E813F815D
:1028D0002530310509F473C08E819F8186309105C2
:1028E00009F480C0BCC02E813F812830310509F435
:1028F0009FC08E819F818930910509F4A2C0AFC02D
:1029000083E06FEF0E94580983E06FEF0E94CB0ACB
:1029100083E066E040E00E94A109B3C183E06FEF6D
:102920000E94580983E060E00E94CB0A83E061E0E6
:1029300041E00E94A10983E062E041E00E94A10918
:10294000A0C183E06FEF0E94580983E06FEF0E94FF
:10295000CB0A83E062E040E00E94A10983E065E0E9
:1029600040E00E94A1098DC183E06FEF0E945809E9
:1029700083E06FEF0E94CB0A83E064E040E00E94B6
:10298000A10983E065E040E00E94A1097AC183E0EB
:102990006FEF0E94580983E06FEF0E94CB0A83E03B
:1029A00060E040E00E94A10983E063E040E00E9413
:1029B000A10983E064E040E00E94A10962C183E0D4
:1029C0006FEF0E94580983E06FEF0E94CB0A83E00B
:1029D00061E040E00E94A10983E064E040E00E94E1
:1029E000A1094FC183E06FEF0E94580983E06FEFA8
:1029F0000E94CB0A83E061E040E00E94A10941C14E
:102A000083E06FEF0E94580983E060E00E94CB0AE8
:102A100083E060E041E00E94A10983E061E041E0E1
:102A20000E94A10983E062E041E00E94A10929C15E
:102A300083E06FEF0E94580983E06FEF0E94CB0A9A
:102A400020C183E06FEF0E94580983E06FEF0E947E
:102A5000CB0A83E064E040E00E94A10912C1188E15
:102A600012C183E06FEF0E94580983E067E041E004
:102A70000E94A1098B81282F30E03D832C838C811B
:102A80009D818430910509F48EC02C813D812530D3
:102A90003105ECF48C819D818130910509F44AC0A7
:102AA0002C813D81223031052CF48C819D81009751
:102AB00099F1E1C02C813D812230310509F44DC0EE
:102AC0008C819D818330910509F45AC0D4C02C813A
:102AD0003D812730310509F49FC08C819D8188306C
:102AE00091056CF42C813D812530310509F473C0CA
:102AF0008C819D818630910509F480C0BCC02C81F9
:102B00003D812830310509F49FC08C819D81893039
:102B1000910509F4A2C0AFC083E06FEF0E9458098D
:102B200083E060E00E94CB0A83E066E041E00E941F
:102B3000A109A7C083E06FEF0E94580983E06FEFFF
:102B40000E94CB0A83E061E040E00E94A10983E09B
:102B500062E040E00E94A10994C083E06FEF0E9410
:102B6000580983E060E00E94CB0A83E062E041E024
:102B70000E94A10983E065E041E00E94A10981C0B3
:102B800083E06FEF0E94580983E060E00E94CB0A67
:102B900083E064E041E00E94A10983E065E041E058
:102BA0000E94A1096EC083E06FEF0E94580983E084
:102BB00060E00E94CB0A83E060E041E00E94A1094E
:102BC00083E063E041E00E94A10983E064E041E02A
:102BD0000E94A10956C083E06FEF0E94580983E06C
:102BE00060E00E94CB0A83E061E041E00E94A1091D
:102BF00083E064E041E00E94A10943C083E06FEFFD
:102C00000E94580983E060E00E94CB0A83E061E003
:102C100041E00E94A10935C083E06FEF0E9458098E
:102C200083E06FEF0E94CB0A83E060E040E00E9407
:102C3000A10983E061E040E00E94A10983E062E035
:102C400040E00E94A1091DC083E06FEF0E94580977
:102C500083E060E00E94CB0A14C083E06FEF0E9423
:102C6000580983E060E00E94CB0A83E064E041E021
:102C70000E94A10906C0188E06C0188E04C0188EC6
:102C800002C091E0988F888D6E960FB6F894DEBFE3
:102C90000FBECDBFCF91DF910895DF93CF93CDB716
:102CA000DEB72E970FB6F894DEBF0FBECDBF80E023
:102CB00061E00E94580982E060E041E00E942E0835
:102CC00082E061E041E00E942E0882E062E041E0A3
:102CD0000E942E0880E090E0A0E2B2E48B879C87FF
:102CE000AD87BE876B857C858D859E8520E030E035
:102CF0004AEF54E40E941F02DC01CB018F839887C6
:102D0000A987BA876F81788589859A8520E030E028
:102D100040E85FE30E94790388232CF481E090E08F
:102D20009E838D833FC06F81788589859A8520E059
:102D30003FEF4FE757E40E94190318164CF56B85D7
:102D40007C858D859E8520E030E040E251E40E9444
:102D50001F02DC01CB01BC01CD010E944900DC0156
:102D6000CB019E838D830FC088EC90E09C838B8386
:102D70008B819C810197F1F79C838B838D819E8150
:102D800001979E838D838D819E81009769F714C082
:102D90006F81788589859A850E944900DC01CB0185
:102DA0009E838D838D819E819A83898389819A8177
:102DB0000197F1F79A83898388E30E94EE168FE0EA
:102DC0000E94EE1681E00E94EE162E960FB6F89441
:102DD000DEBF0FBECDBFCF91DF910895DF93CF93BC
:102DE000CDB7DEB72F970FB6F894DEBF0FBECDBFBD
:102DF0008F8782E060E040E00E94A10982E061E00C
:102E000040E00E94A10980E06F850E94CB0A82E029
:102E100062E041E00E94A10980E090E0A0E0B0E41F
:102E20008B879C87AD87BE876B857C858D859E85CE
:102E300020E030E04AEF54E40E941F02DC01CB01A5
:102E40008F839887A987BA876F81788589859A85C6
:102E500020E030E040E85FE30E94790388232CF40F
:102E600081E090E09E838D833FC06F817885898566
:102E70009A8520E03FEF4FE757E40E9419031816A8
:102E80004CF56B857C858D859E8520E030E040E2A9
:102E900051E40E941F02DC01CB01BC01CD010E9464
:102EA0004900DC01CB019E838D830FC088EC90E04C
:102EB0009C838B838B819C810197F1F79C838B830F
:102EC0008D819E8101979E838D838D819E81009748
:102ED00069F714C06F81788589859A850E944900B9
:102EE000DC01CB019E838D838D819E819A838983B2
:102EF00089819A810197F1F79A83898382E062E060
:102F000040E00E94A1092F960FB6F894DEBF0FBED5
:102F1000CDBFCF91DF910895DF93CF93CDB7DEB7CB
:102F20002F970FB6F894DEBF0FBECDBF8F8782E01C
:102F300060E041E00E94A10982E061E040E00E947F
:102F4000A10980E06F850E94CB0A82E062E041E047
:102F50000E94A10980E090E0A0E0B0E48B879C870C
:102F6000AD87BE876B857C858D859E8520E030E0B2
:102F70004AEF54E40E941F02DC01CB018F83988743
:102F8000A987BA876F81788589859A8520E030E0A6
:102F900040E85FE30E94790388232CF481E090E00D
:102FA0009E838D833FC06F81788589859A8520E0D7
:102FB0003FEF4FE757E40E94190318164CF56B8555
:102FC0007C858D859E8520E030E040E251E40E94C2
:102FD0001F02DC01CB01BC01CD010E944900DC01D4
:102FE000CB019E838D830FC088EC90E09C838B8304
:102FF0008B819C810197F1F79C838B838D819E81CE
:1030000001979E838D838D819E81009769F714C0FF
:103010006F81788589859A850E944900DC01CB0102
:103020009E838D838D819E819A83898389819A81F4
:103030000197F1F79A83898382E062E040E00E9481
:10304000A1092F960FB6F894DEBF0FBECDBFCF916A
:10305000DF910895DF93CF9300D00F92CDB7DEB705
:103060009B838A8319820EC08981282F30E08A8150
:103070009B81FC01E20FF31F80810E948C178981E4
:103080008F5F89838981282F30E08A819B81FC01B1
:10309000E20FF31F8081882339F70F900F900F9074
:1030A000CF91DF910895DF93CF9300D000D0CDB7BB
:1030B000DEB78A836B838A81882349F48B81898375
:1030C000898180580E94EE1681E08C830EC08A812F
:1030D000813051F48B81805C8983898180580E9482
:1030E000EE1681E08C8301C01C828C810F900F90C2
:1030F0000F900F90CF91DF910895DF93CF93CDB7CD
:10310000DEB727970FB6F894DEBF0FBECDBF9C8306
:103110008B836D834E832F831A828D81882F90E05D
:10312000880F991F880F991F880F991F8A838A819A
:10313000805C0E94EE1619820EC08981282F30E033
:103140008B819C81FC01E20FF31F80810E948C1710
:1031500089818F5F89838981883078F38E816F813F
:103160000E9453188D810E948C1727960FB6F894F1
:10317000DEBF0FBECDBFCF91DF910895DF93CF9318
:10318000CDB7DEB728970FB6F894DEBF0FBECDBF20
:1031900088878885282F30E000D000D000D0EDB798
:1031A000FEB73196CE0101969183808380E690E050
:1031B00093838283358324830E948D1A8DB79EB7B3
:1031C00006960FB6F8949EBF0FBE8DBFCE01019636
:1031D0000E942A1828960FB6F894DEBF0FBECDBF06
:1031E000CF91DF910895DF93CF93CDB7DEB7A69748
:1031F0000FB6F894DEBF0FBECDBF6D8F7E8F8F8F61
:1032000098A36D8D7E8D8F8D98A120E030E040E0F9
:1032100050E00E94790388232CF423E630E03EA39B
:103220002DA304C045E650E05EA34DA38DA19EA151
:103230009C878B876D8D7E8D8F8D98A120E030E0EF
:1032400040E050E00E947903882364F48D8D9E8DC8
:10325000AF8DB8A19C01AD01505829A33AA34BA34F
:103260005CA308C08D8D9E8DAF8DB8A189A39AA354
:10327000ABA3BCA329A13AA14BA15CA12F833887A2
:1032800049875A876F81788589859A850E94490088
:10329000DC01CB018E838E81882F90E0AA2797FDD9
:1032A000A095BA2FBC01CD010E94A9039B01AC01DE
:1032B0006F81788589859A850E94C101DC01CB01E7
:1032C0008A839B83AC83BD836A817B818C819D8152
:1032D00020E030E44CE156E40E941F02DC01CB0107
:1032E000BC01CD010E944900DC01CB0189838E81A4
:1032F000482F50E08981282F30E08DB79EB70A977C
:103300000FB6F8949EBF0FBE8DBFEDB7FEB73196D6
:10331000CE010D969183808386E690E0938382832D
:103320008B859C859583848357834683318720874B
:103330000E948D1AADB7BEB71A960FB6F894BEBFED
:103340000FBEADBFCE010D960E942A18A6960FB6ED
:10335000F894DEBF0FBECDBFCF91DF910895DF930C
:10336000CF9300D000D00F92CDB7DEB78FEF898317
:103370001B827AC081E06FEF0E9458098B81882FF1
:1033800090E0FC01E858FE4F908181E0692F40E019
:103390000E94A1091A8255C08A81882F90E0FC0101
:1033A000E458FE4F908181E0692F40E00E942E0892
:1033B0008A81882F90E0FC01E458FE4F908181E0E3
:1033C000692F40E00E94300C8A81882F90E0FC0138
:1033D000E458FE4F90819E012C5F3F4F81E0692FA2
:1033E000A9010E94140B8C81882341F58A81482F02
:1033F00050E08B81282F30E0CA01880F991F880F79
:10340000991F820F931FFC01E058FE4F8081898332
:103410000FC08A81882F90E0FC01E458FE4F908114
:103420009E012C5F3F4F81E0692FA9010E94140B80
:103430008C81882371F389818D831CC08A818F5F81
:103440008A838A81843008F4A7CF8B81882F90E00B
:10345000FC01E858FE4F908181E0692F41E00E9415
:10346000A1098B818F5F8B838B81843008F482CF9D
:1034700089818D838D810F900F900F900F900F9009
:10348000CF91DF910895DF93CF930F92CDB7DEB741
:103490000E9408080E944D160E94AF1989838981F5
:1034A0008F3FD1F389810E94BE18F6CF2F923F92B1
:1034B0004F925F926F927F928F929F92AF92BF9244
:1034C000CF92DF92EF92FF920F931F93CF93DF93F0
:1034D000CDB7DEB7CA1BDB0B0FB6F894DEBF0FBE4D
:1034E000CDBF09942A88398848885F846E847D849A
:1034F0008C849B84AA84B984C884DF80EE80FD809C
:103500000C811B81AA81B981CE0FD11D0FB6F89411
:10351000DEBF0FBECDBFED010895AEE0B0E0E3E940
:10352000FAE10C94641A0D891E8986E08C831A8353
:1035300009838FEF9FE79E838D839E01275E3F4F18
:10354000CE0101966F89788DA9010E94B11A2F8151
:103550003885020F131FF80110822E96E4E00C94B8
:10356000801AABE0B0E0E7EBFAE10C94561A3C01AC
:103570002B015A01FC0117821682838181FD03C051
:103580006FEF7FEFC6C19AE0892E1E010894211CBF
:10359000311CF3012381F20123FD859123FF8191E9
:1035A0002F01882309F4B2C1853239F423FD8591B6
:1035B00023FF81912F01853229F490E0B3010E940D
:1035C000A41CE7CF982FFF24EE249924FFE1FF15D8
:1035D000D0F09B3269F09C3228F4903259F093324B
:1035E00091F40EC09D3249F0903369F441E024C05B
:1035F00052E0F52A84E0F82A28C098E0F92A25C08C
:10360000E0E1FE2A22C0F7FC29C0892F80538A30CE
:1036100070F4F6FE05C0989C902C1124980E15C0ED
:10362000E89CE02C1124E80EF0E2FF2A0EC09E3246
:1036300029F4F6FC6BC140E4F42A07C09C3619F467
:1036400050E8F52A02C0983649F4F20123FD95911D
:1036500023FF91912F01992309F0B8CF892F855429
:10366000833018F08052833038F444E050E0A40EE8
:10367000B51E5FE359830FC0933631F0933779F06D
:10368000933509F056C020C0F5018081898342E05E
:1036900050E0A40EB51E610101E010E012C0F5017A
:1036A000C080D180F6FC03C06FEF7FEF02C0692DB0
:1036B00070E042E050E0A40EB51EC6010E94991CC5
:1036C0008C015FE7F52214C0F501C080D180F6FCC3
:1036D00003C06FEF7FEF02C0692D70E042E050E061
:1036E000A40EB51EC6010E948E1C8C0150E8F52A5E
:1036F000F3FE07C01AC080E290E0B3010E94A41C50
:10370000EA948E2D90E008171907A8F30EC0F60171
:10371000F7FC8591F7FE81916F0190E0B3010E9463
:10372000A41CE110EA94015010400115110579F72D
:10373000EAC0943611F0993669F5F7FE08C0F50134
:10374000208131814281538184E090E00AC0F501FB
:10375000808191819C01442737FD4095542F82E060
:1037600090E0A80EB91E9FE6F92257FF09C05095B8
:103770004095309521953F4F4F4F5F4FE0E8FE2A2F
:10378000CA01B901A1012AE030E00E94D01CD82E64
:10379000D21840C0953729F41F2D1F7E2AE030E053
:1037A0001DC01F2D197F9F3661F0903720F498358A
:1037B00009F0ACC00FC0903739F0983709F0A6C0B7
:1037C00004C028E030E00AC0106114FD146020E15C
:1037D00030E004C014FD166020E132E017FF08C09D
:1037E000F501608171818281938144E050E008C0DD
:1037F000F50180819181BC0180E090E042E050E0E1
:10380000A40EB51EA1010E94D01CD82ED2188FE79D
:10381000F82EF122F6FE0BC05EEFF522D91438F433
:10382000F4FE07C0F2FC05C08FEEF82202C01D2D89
:1038300001C0192DF4FE0DC0FE01ED0DF11D8081BA
:10384000803319F499EEF92208C01F5FF2FE05C01B
:1038500003C08F2D867809F01F5F0F2DF3FC14C075
:10386000F0FE0FC01E1510F09D2C0BC09D2C9E0C61
:10387000911A1E2D06C080E290E0B3010E94A41CA4
:103880001F5F1E15C0F304C01E1510F4E11A01C01D
:10389000EE2404FF0FC080E390E0B3010E94A41C5B
:1038A00002FF1DC001FD03C088E790E00EC088E55F
:1038B00090E00BC0802F867891F001FF02C08BE270
:1038C00001C080E2F7FC8DE290E0B3010E94A41CED
:1038D00006C080E390E0B3010E94A41C9A94D9141E
:1038E000C0F3DA94F101ED0DF11D808190E0B30198
:1038F0000E94A41CDD20A9F706C080E290E0B3017D
:103900000E94A41CEA94EE20C1F743CEF301668125
:103910007781CB012B96E2E10C94721AFC010590A1
:10392000615070400110D8F7809590958E0F9F1FC1
:103930000895FC016150704001900110D8F7809506
:1039400090958E0F9F1F08950F931F93CF93DF9332
:103950008C01EB018B8181FF1BC082FF0DC02E818A
:103960003F818C819D812817390764F4E881F981B2
:103970000193F983E88306C0E885F985802F0995CE
:10398000892B31F48E819F8101969F838E8302C0A3
:103990000FEF1FEFC801DF91CF911F910F91089595
:1039A000FA01AA27283051F1203181F1E8946F9370
:1039B0006E7F6E5F7F4F8F4F9F4FAF4FB1E03ED016
:1039C000B4E03CD0670F781F891F9A1FA11D680FB4
:1039D000791F8A1F911DA11D6A0F711D811D911DE7
:1039E000A11D20D009F468943F912AE0269F11245C
:1039F0003019305D3193DEF6CF010895462F4770C0
:103A0000405D4193B3E00FD0C9F7F6CF462F4F701A
:103A1000405D4A3318F0495D31FD4052419302D078
:103A2000A9F7EACFB4E0A69597958795779567951E
:103A3000BA95C9F700976105710508959B01AC011E
:103A40000A2E06945795479537952795BA95C9F745
:103A5000620F731F841F951FA01D0895F894FFCF58
:103A60002564002D0000257325642E253034640064
:103A70000000000000000000000102020303030335
:103A800004040404040404040505050505050505EE
:103A900005050505050505050606060606060606CE
:103AA00006060606060606060606060606060606B6
:103AB000060606060606060607070707070707079E
:103AC0000707070707070707070707070707070786
:103AD0000707070707070707070707070707070776
:103AE0000707070707070707070707070707070766
:103AF000070707070707070708080808080808084E
:103B00000808080808080808080808080808080835
:103B10000808080808080808080808080808080825
:103B20000808080808080808080808080808080815
:103B30000808080808080808080808080808080805
:103B400008080808080808080808080808080808F5
:103B500008080808080808080808080808080808E5
:103B600008080808080808080808080808080808D5
:103B700008080808080808080001020304050607E9
:103B80000102030405060708090A0B0C0D0E0F10AD
:00000001FF
