:100000000C942A000C943E000C946B000C94980005
:100010000C943C000C943C000C943C000C943C0070
:100020000C943C000C943C000C943C000C943C0060
:100030000C943C000C943C000C943C000C943C0050
:100040000C943C000C943C000C943C000C943C0040
:100050000C943C0011241FBECFE5D8E0DEBFCDBF1D
:1000600010E0A0E6B0E001C01D92A636B107E1F7AE
:100070000E9494050C94B5050C9400001F920F92F9
:100080000FB60F9211242F933F934F935F936F936B
:100090007F938F939F93AF93BF93EF93FF93DF93E0
:1000A000CF93CDB7DEB7E0916000F0916100099584
:1000B000CF91DF91FF91EF91BF91AF919F918F9180
:1000C0007F916F915F914F913F912F910F900FBE54
:1000D0000F901F9018951F920F920FB60F92112438
:1000E0002F933F934F935F936F937F938F939F9340
:1000F000AF93BF93EF93FF93DF93CF93CDB7DEB76B
:10010000E0916200F09163000995CF91DF91FF913A
:10011000EF91BF91AF919F918F917F916F915F917F
:100120004F913F912F910F900FBE0F901F901895F8
:100130001F920F920FB60F9211242F933F934F935C
:100140005F936F937F938F939F93AF93BF93EF933F
:10015000FF93DF93CF93CDB7DEB7E0916400F091CA
:1001600065000995CF91DF91FF91EF91BF91AF911C
:100170009F918F917F916F915F914F913F912F91BF
:100180000F900FBE0F901F901895DF93CF9300D064
:1001900000D0CDB7DEB78983ABE5B0E0EBE5F0E0AA
:1001A000808180648C938981282F30E03C832B836D
:1001B0008B819C81009731F02B813C81213031056E
:1001C00081F01EC0A5E5B0E0E5E5F0E080818E7F1E
:1001D0008C93A5E5B0E0E5E5F0E0808182608C934A
:1001E00012C0A5E5B0E0E5E5F0E0808181608C9388
:1001F000A5E5B0E0E5E5F0E0808182608C9303C086
:1002000031E03A8301C01A828A810F900F900F90DB
:100210000F90CF91DF910895DF93CF9300D0CDB7AA
:10022000DEB79A83898389819A8190936100809354
:1002300060000F900F90CF91DF910895DF93CF93DF
:1002400000D000D0CDB7DEB78983ABE5B0E0EBE5F9
:10025000F0E0808180688C938981282F30E03C8396
:100260002B838B819C81009731F02B813C81213045
:10027000310581F01EC0A5E5B0E0E5E5F0E0808144
:100280008B7F8C93A5E5B0E0E5E5F0E080818860A8
:100290008C9312C0A5E5B0E0E5E5F0E080818460D4
:1002A0008C93A5E5B0E0E5E5F0E0808188608C9373
:1002B00003C031E03A8301C01A828A810F900F9007
:1002C0000F900F90CF91DF910895DF93CF9300D0DF
:1002D000CDB7DEB79A83898389819A819093630031
:1002E000809362000F900F90CF91DF910895DF937C
:1002F000CF9300D000D0CDB7DEB78983ABE5B0E0B7
:10030000EBE5F0E0808180688C938981282F30E0D4
:100310003C832B838B819C81009731F02B813C8126
:100320002130310549F010C0A5E5B0E0E5E5F0E089
:1003300080818F7B8C930BC0A5E5B0E0E5E5F0E014
:10034000808180648C9303C031E03A8301C01A82BB
:100350008A810F900F900F900F90CF91DF910895A9
:10036000DF93CF9300D0CDB7DEB79A83898389819D
:100370009A8190936500809364000F900F90CF91C5
:10038000DF910895DF93CF93CDB7DEB7E9E3F0E0D7
:100390001082E6E3F0E01082E3E3F0E01082E0E3B5
:1003A000F0E01082EAE3F0E01082E7E3F0E0108290
:1003B000E4E3F0E01082E1E3F0E01082CF91DF911E
:1003C0000895DF93CF93CDB7DEB72A970FB6F89491
:1003D000DEBF0FBECDBF89836A834B838A8188309D
:1003E00008F0FEC08B81282F30E03A872987898565
:1003F0009A85009739F029853A852130310509F42D
:1004000078C0E9C08981282F30E038872F838F8119
:1004100098858130910559F12F8138852230310539
:100420002CF48F819885009769F060C02F81388502
:100430002230310589F18F8198858330910509F447
:1004400040C054C0AAE3B0E0EAE3F0E08081482F66
:100450008A81282F30E081E090E0022E02C0880FD0
:10046000991F0A94E2F7809584238C93B7C0A7E381
:10047000B0E0E7E3F0E08081482F8A81282F30E068
:1004800081E090E0022E02C0880F991F0A94E2F7E3
:10049000809584238C93A2C0A4E3B0E0E4E3F0E071
:1004A0008081482F8A81282F30E081E090E0022E61
:1004B00002C0880F991F0A94E2F7809584238C93D9
:1004C0008DC0A1E3B0E0E1E3F0E08081482F8A81B4
:1004D000282F30E081E090E0022E02C0880F991FA3
:1004E0000A94E2F7809584238C9378C091E09E83F0
:1004F00079C08981282F30E03D832C838C819D81B8
:100500008130910549F12C813D81223031052CF457
:100510008C819D81009761F05BC02C813D812230F0
:10052000310571F18C819D8183309105E9F150C0D5
:10053000AAE3B0E0EAE3F0E08081482F8A81282F27
:1005400030E081E090E0022E02C0880F991F0A94EB
:10055000E2F7842B8C9342C0A7E3B0E0E7E3F0E03E
:100560008081482F8A81282F30E081E090E0022EA0
:1005700002C0880F991F0A94E2F7842B8C932EC037
:10058000A4E3B0E0E4E3F0E08081482F8A81282FE3
:1005900030E081E090E0022E02C0880F991F0A949B
:1005A000E2F7842B8C931AC0A1E3B0E0E1E3F0E022
:1005B0008081482F8A81282F30E081E090E0022E50
:1005C00002C0880F991F0A94E2F7842B8C9306C00F
:1005D00091E09E8307C021E02E8304C01E8202C0EA
:1005E00031E03E838E812A960FB6F894DEBF0FBEAF
:1005F000CDBFCF91DF910895DF93CF93CDB7DEB715
:100600002A970FB6F894DEBF0FBECDBF89836A83E9
:100610004B838A81883008F0FEC08B81282F30E020
:100620003A87298789859A85009739F029853A85FF
:100630002130310509F478C0E9C08981282F30E0E4
:1006400038872F838F8198858130910559F12F81CB
:100650003885223031052CF48F819885009769F018
:1006600060C02F8138852230310589F18F819885CE
:100670008330910509F440C054C0ABE3B0E0EBE334
:10068000F0E08081482F8A81282F30E081E090E0DF
:10069000022E02C0880F991F0A94E2F780958423E6
:1006A0008C93B7C0A8E3B0E0E8E3F0E08081482F86
:1006B0008A81282F30E081E090E0022E02C0880F6E
:1006C000991F0A94E2F7809584238C93A2C0A5E336
:1006D000B0E0E5E3F0E08081482F8A81282F30E008
:1006E00081E090E0022E02C0880F991F0A94E2F781
:1006F000809584238C938DC0A2E3B0E0E2E3F0E028
:100700008081482F8A81282F30E081E090E0022EFE
:1007100002C0880F991F0A94E2F7809584238C9376
:1007200078C091E09E8379C08981282F30E03D8395
:100730002C838C819D818130910549F12C813D81F3
:10074000223031052CF48C819D81009761F05BC0D3
:100750002C813D812230310571F18C819D81833066
:100760009105E9F150C0ABE3B0E0EBE3F0E080814C
:10077000482F8A81282F30E081E090E0022E02C0CD
:10078000880F991F0A94E2F7842B8C9342C0A8E348
:10079000B0E0E8E3F0E08081482F8A81282F30E044
:1007A00081E090E0022E02C0880F991F0A94E2F7C0
:1007B000842B8C932EC0A5E3B0E0E5E3F0E08081CC
:1007C000482F8A81282F30E081E090E0022E02C07D
:1007D000880F991F0A94E2F7842B8C931AC0A2E326
:1007E000B0E0E2E3F0E08081482F8A81282F30E0FA
:1007F00081E090E0022E02C0880F991F0A94E2F770
:10080000842B8C9306C091E09E8307C021E02E8349
:1008100004C01E8202C031E03E838E812A960FB64C
:10082000F894DEBF0FBECDBFCF91DF910895DF9367
:10083000CF93CDB7DEB729970FB6F894DEBF0FBEC2
:10084000CDBF89836A838A81282F30E03987288742
:1008500088859985009731F02885398521303105C3
:1008600099F168C08981282F30E03F832E838E81E3
:100870009F8181309105C9F02E813F812230310561
:100880002CF48E819F81009761F01BC02E813F81E7
:100890002230310571F08E819F818330910569F09E
:1008A00010C0EAE3F0E0108248C0E7E3F0E0108215
:1008B00044C0E4E3F0E0108240C0E1E3F0E01082E5
:1008C0003CC091E09D833AC08981282F30E03C8371
:1008D0002B838B819C8181309105D1F02B813C81D0
:1008E000223031052CF48B819C81009761F01FC070
:1008F0002B813C812230310581F08B819C818330BA
:10090000910581F014C0EAE3F0E08FEF808315C019
:10091000E7E3F0E08FEF808310C0E4E3F0E08FEFD7
:1009200080830BC0E1E3F0E08FEF808306C091E0AD
:100930009D8304C021E02D8301C01D828D812996F5
:100940000FB6F894DEBF0FBECDBFCF91DF910895F3
:10095000DF93CF9300D000D00F92CDB7DEB789835D
:100960006A838981282F30E03D832C838C819D818F
:1009700081309105D1F02C813D81223031052CF45C
:100980008C819D81009761F01FC02C813D812230B8
:10099000310581F08C819D818330910581F014C0F7
:1009A000EBE3F0E08A81808312C0E8E3F0E08A8123
:1009B00080830DC0E5E3F0E08A81808308C0E2E334
:1009C000F0E08A81808303C091E09B8301C01B8299
:1009D0008B810F900F900F900F900F90CF91DF9120
:1009E0000895DF93CF93CDB7DEB727970FB6F8946E
:1009F000DEBF0FBECDBF89836A835C834B838A8150
:100A0000883008F076C08981282F30E03F832E831C
:100A10004E815F814130510559F18E819F81823035
:100A2000910534F42E813F812115310569F05CC0B8
:100A30004E815F814230510579F18E819F818330F3
:100A4000910509F43DC050C0E9E3F0E08081282F12
:100A500030E08A81882F90E0A90102C05595479522
:100A60008A95E2F7CA018170EB81FC8180833FC0E7
:100A7000E6E3F0E08081282F30E08A81882F90E043
:100A8000A90102C0559547958A95E2F7CA01817080
:100A9000EB81FC8180832BC0E3E3F0E08081282F91
:100AA00030E08A81882F90E0A90102C055954795D2
:100AB0008A95E2F7CA018170EB81FC81808317C0BF
:100AC000E0E3F0E08081282F30E08A81882F90E0F9
:100AD000A90102C0559547958A95E2F7CA01817030
:100AE000EB81FC81808303C051E05D8304C01D82E3
:100AF00002C081E08D838D8127960FB6F894DEBF0A
:100B00000FBECDBFCF91DF910895DF93CF93CDB7C7
:100B1000DEB7ABE3B0E0EBE3F0E0908180E889275B
:100B20008C93CF91DF910895DF93CF93CDB7DEB74C
:100B30000E94C20180E061E00E94170483E060E04F
:100B40000E94170483E06FEF0E94A804AFE5B0E0B5
:100B5000EFE5F0E0808180688C9381E00E94C50021
:0E0B600085E895E00E940C01FFCFF894FFCFCE
:00000001FF
