:100000000C942A000C943F000C943F000C943F0089
:100010000C943F000C943F000C943F000C943F0064
:100020000C943F000C943F000C943F000C943F0054
:100030000C943F000C943F000C943F000C943F0044
:100040000C943F000C943F000C943F000C943F0034
:100050000C943F0011241FBECFE5D8E0DEBFCDBF1A
:1000600010E0A0E6B0E0E8E9FEE202C005900D92E3
:10007000AA38B107D9F70E94FF0C0C944A170C94C8
:100080000000EF92FF920F931F937B018C0120E001
:1000900030E040E05FE40E94410388238CF0C80117
:1000A000B70120E030E040E05FE40E94B9010E9427
:1000B000A1039B01AC01205030404040504806C095
:1000C000C801B7010E94A1039B01AC01B901CA019B
:1000D0001F910F91FF90EF900895A0E0B0E0E3E74B
:1000E000F0E00C941317DC012B01FA019C91923083
:1000F00008F439C1EB018881823008F433C19430AF
:1001000069F4843009F02FC111969C91119789816F
:10011000981709F428C1A0E6B0E025C1843009F49D
:1001200021C18230A9F4923009F01DC19A01AD01BC
:1001300088E0EA010990AE01E90109929E0181502F
:10014000C1F7E201898111969C918923818308C1BD
:10015000923009F407C112962D903C901397EB0151
:100160008A819B811496AD90BD90CD90DC901797BD
:10017000EC80FD800E811F819101281B390BB90194
:1001800037FF04C066277727621B730B6032710547
:100190000CF061C0121613066CF537014801062EEB
:1001A00004C096948794779467940A94D2F721E0D8
:1001B00030E040E050E004C0220F331F441F551FC1
:1001C0006A95D2F721503040404050402E213F21C7
:1001D00040235123211531054105510521F021E02E
:1001E00030E040E050E079018A01E628F72808294C
:1001F00019293CC0232BD1F1260E371E35014601AB
:10020000062E04C096948794779467940A94D2F744
:1002100021E030E040E050E004C0220F331F441FD3
:10022000551F6A95D2F721503040404050402A2156
:100230003B214C215D21211531054105510521F05E
:1002400021E030E040E050E059016A01A628B728DB
:10025000C828D9280BC0821593052CF01C01AA24AC
:10026000BB24650103C0EE24FF24870111969C91F5
:10027000D20111968C91981709F445C0992339F051
:10028000A80197012A193B094C095D0906C0A6017E
:1002900095012E193F09400B510B57FD08C01182E3
:1002A0003382228224833583468357831DC081E0B5
:1002B00081833382228288279927DC01821B930B5A
:1002C000A40BB50B84839583A683B7830DC0220F3F
:1002D000331F441F551F24833583468357838281F0
:1002E000938101979383828324813581468157814D
:1002F000DA01C9010197A109B1098F5F9F4FAF4F83
:10030000BF4328F30BC0918333822282EA0CFB1C8B
:100310000C1D1D1DE482F5820683178383E0808314
:10032000248135814681578157FF1AC0C901AA2708
:1003300097FDA095BA2F81709070A070B0705695FF
:10034000479537952795822B932BA42BB52B848328
:100350009583A683B7838281938101969383828359
:10036000DF0101C0D201CD01CDB7DEB7E2E10C94CF
:100370002F17A0E2B0E0EFEBF1E00C941F176983B8
:100380007A838B839C832D833E834F835887E9E058
:10039000EE2EF12CEC0EFD1ECE010196B7010E944F
:1003A000CA048E010F5E1F4FCE010596B8010E9450
:1003B000CA048A8991E089278A8BC701B801AE01F6
:1003C000475E5F4F0E946D000E94F503A096E6E035
:1003D0000C943B17A0E2B0E0E0EFF1E00C941F17A3
:1003E00069837A838B839C832D833E834F835887D5
:1003F000F9E0EF2EF12CEC0EFD1ECE010196B701B7
:100400000E94CA048E010F5E1F4FCE010596B801EF
:100410000E94CA04C701B801AE01475E5F4F0E9447
:100420006D000E94F503A096E6E00C943B17A0E255
:10043000B0E0EDE1F2E00C94131769837A838B83CB
:100440009C832D833E834F835887CE010196BE0146
:10045000675F7F4F0E94CA04CE010596BE016F5EA2
:100460007F4F0E94CA049985923088F08989823032
:10047000C8F0943019F4823051F404C0843029F467
:10048000923081F480E690E0C6C0923049F420E0DA
:100490009A858A89981321E02A87CE010996BBC0E4
:1004A000823049F420E09A858A89981321E02A8BCA
:1004B000CE014196B0C02D843E844F8458886D880B
:1004C0007E888F88988CEE24FF248701AA24BB2481
:1004D000650140E050E060E070E0E0E0F0E0C10184
:1004E00081709070892BE9F0E60CF71C081D191D2E
:1004F0009A01AB012A0D3B1D4C1D5D1D80E090E073
:10050000A0E0B0E0E614F7040805190520F481E046
:1005100090E0A0E0B0E0BA01A901480F591F6A1F9E
:100520007B1FAA0CBB1CCC1CDD1C97FE08C081E005
:1005300090E0A0E0B0E0A82AB92ACA2ADB2A3196C6
:10054000E032F10549F0660C771C881C991C569422
:10055000479437942794C3CFFA85EA892B893C893D
:100560008B859C85280F391F2E5F3F4F17C0CA010E
:1005700081709070892B61F016950795F794E79438
:1005800080E090E0A0E0B0E8E82AF92A0A2B1B2BD3
:1005900076956795579547952F5F3F4F77FDE7CF46
:1005A0000CC0440F551F661F771F17FD4160EE0CEE
:1005B000FF1C001F111F21503040403090E05907B0
:1005C00090E0690790E4790760F32B8F3C8FDB01A3
:1005D000CA018F779070A070B07080349105A1052A
:1005E000B10561F447FD0AC0E114F10401051105EC
:1005F00029F0405C5F4F6F4F7F4F40781A8EFE1797
:1006000011F081E08A8F4D8F5E8F6F8F78A383E02A
:10061000898FCE0149960E94F503A096E2E10C94E1
:100620002F17A8E1B0E0E7E1F3E00C941F1769830E
:100630007A838B839C832D833E834F83588789E005
:10064000E82EF12CEC0EFD1ECE010196B7010E94A2
:10065000CA048E010F5E1F4FCE010596B8010E949D
:10066000CA048985823040F08989823028F0C70128
:10067000B8010E94420501C08FEF6896E6E00C9435
:100680003B17A8E1B0E0E7E4F3E00C941F1769839F
:100690007A838B839C832D833E834F83588789E0A5
:1006A000E82EF12CEC0EFD1ECE010196B7010E9442
:1006B000CA048E010F5E1F4FCE010596B8010E943D
:1006C000CA048985823040F08989823028F0C701C8
:1006D000B8010E94420501C08FEF6896E6E00C94D5
:1006E0003B17A8E1B0E0E7E7F3E00C941F1769833C
:1006F0007A838B839C832D833E834F83588789E045
:10070000E82EF12CEC0EFD1ECE010196B7010E94E1
:10071000CA048E010F5E1F4FCE010596B8010E94DC
:10072000CA048985823040F08989823028F0C70167
:10073000B8010E94420501C081E06896E6E00C9491
:100740003B17ACE0B0E0E7EAF3E00C9423176983D1
:100750007A838B839C83CE010196BE016B5F7F4FB2
:100760000E94CA048D81823061F1823050F1843060
:1007700021F48E81882351F12EC02F81388537FDD9
:1007800020C06E812F3131051CF06623F9F023C0A3
:100790008EE190E0821B930B29853A854B855C8521
:1007A00004C056954795379527958A95D2F76623C5
:1007B000B1F050954095309521953F4F4F4F5F4F89
:1007C0000EC020E030E040E050E009C02FEF3FEFE6
:1007D0004FEF5FE704C020E030E040E050E8B901AF
:1007E000CA012C96E2E00C943F17DF92EF92FF9241
:1007F0000F931F93FC01E480F58006811781D1805F
:100800008081823048F480E090E0A0E1B0E0E82A06
:10081000F92A0A2B1B2BA5C0843009F49FC0823013
:1008200021F4EE24FF24870105C0E114F104010541
:10083000110519F4E0E0F0E096C0628173819FEF4A
:10084000623879070CF05BC022E83FEF261B370BBC
:100850002A3131052CF020E030E040E050E02AC0A1
:10086000B801A701022E04C0769567955795479564
:100870000A94D2F781E090E0A0E0B0E004C0880FD5
:10088000991FAA1FBB1F2A95D2F70197A109B10989
:100890008E219F21A023B1230097A105B10521F04E
:1008A00081E090E0A0E0B0E09A01AB01282B392B69
:1008B0004A2B5B2BDA01C9018F779070A070B07062
:1008C00080349105A105B10539F427FF09C0205CEA
:1008D0003F4F4F4F5F4F04C0215C3F4F4F4F5F4F23
:1008E000E0E0F0E02030A0E03A07A0E04A07A0E412
:1008F0005A0710F0E1E0F0E079018A0127C0603882
:10090000710564F5FB01E158FF4FD801C7018F77EE
:100910009070A070B07080349105A105B10539F4D4
:10092000E7FE0DC080E490E0A0E0B0E004C08FE3FB
:1009300090E0A0E0B0E0E80EF91E0A1F1B1F17FFB1
:1009400005C016950795F794E794319687E01695BC
:100950000795F794E7948A95D1F705C0EE24FF2414
:100960008701EFEFF0E06E2F679566276795902F70
:100970009F77D794DD24D7948E2F8695492F462BC9
:10098000582F5D29B701CA011F910F91FF90EF9079
:10099000DF900895FC01DB01408151812281622FAB
:1009A0006F7770E0221F2227221F9381892F880FE3
:1009B000822B282F30E0991F9927991F11969C931D
:1009C000119721153105A9F54115510561057105ED
:1009D00011F482E037C082E89FEF13969C938E93C8
:1009E00012979A01AB0167E0220F331F441F551F76
:1009F0006A95D1F783E08C930DC0220F331F441FFB
:100A0000551F12968D919C911397019713969C9365
:100A10008E931297203080E0380780E0480780E40A
:100A2000580758F314962D933D934D935C93179765
:100A300008952F3F310579F4411551056105710580
:100A400019F484E08C93089564FF03C081E08C93D3
:100A500012C01C9210C02F57304013963C932E9317
:100A6000129783E08C9387E0440F551F661F771F12
:100A70008A95D1F7706414964D935D936D937C9332
:100A8000179708951F93DC01FB019C91923008F4A5
:100A900047C08081823008F443C0943051F41196ED
:100AA0001C91843099F58181682F70E0611B710978
:100AB0003FC0843021F0923031F48230B9F181812D
:100AC000882389F12DC011961C9111978230F1F085
:100AD00081811817D9F412962D913C911397828138
:100AE00093818217930794F028173907BCF0149666
:100AF0008D919D910D90BC91A02D248135814681D1
:100B00005781281739074A075B0718F4112341F06A
:100B10000AC082179307A407B50740F4112319F000
:100B200061E070E005C06FEF7FEF02C060E070E051
:100B3000CB011F910895DF93CF93CDB7DEB72F97E9
:100B40000FB6F894DEBF0FBECDBF8F8782E060E0A6
:100B500040E00E94950A82E061E040E00E94950A30
:100B600080E06F850E94A70B82E062E041E00E9476
:100B7000950A80E090E0A0E0B0E48B879C87AD8789
:100B8000BE876B857C858D859E8520E030E04AEFB1
:100B900054E40E941702DC01CB018F839887A98758
:100BA000BA876F81788589859A8520E030E040E8B2
:100BB0005FE30E94710388232CF481E090E09E8320
:100BC0008D833FC06F81788589859A8520E03FEFCE
:100BD0004FE757E40E94110318164CF56B857C858E
:100BE0008D859E8520E030E040E251E40E941702AE
:100BF000DC01CB01BC01CD010E944100DC01CB0135
:100C00009E838D830FC088EC90E09C838B838B81C7
:100C10009C810197F1F79C838B838D819E81019745
:100C20009E838D838D819E81009769F714C06F81AB
:100C3000788589859A850E944100DC01CB019E83DD
:100C40008D838D819E819A83898389819A81019781
:100C5000F1F79A83898382E062E040E00E94950A7E
:100C60002F960FB6F894DEBF0FBECDBFCF91DF91A8
:100C70000895DF93CF93CDB7DEB72F970FB6F894D3
:100C8000DEBF0FBECDBF8F8782E060E041E00E94F3
:100C9000950A82E061E040E00E94950A80E06F855D
:100CA0000E94A70B82E062E041E00E94950A80E08A
:100CB00090E0A0E0B0E48B879C87AD87BE876B8512
:100CC0007C858D859E8520E030E04AEF54E40E94CB
:100CD0001702DC01CB018F839887A987BA876F81C0
:100CE000788589859A8520E030E040E85FE30E94BE
:100CF000710388232CF481E090E09E838D833FC0B4
:100D00006F81788589859A8520E03FEF4FE757E42A
:100D10000E94110318164CF56B857C858D859E8588
:100D200020E030E040E251E40E941702DC01CB01F8
:100D3000BC01CD010E944100DC01CB019E838D836B
:100D40000FC088EC90E09C838B838B819C81019702
:100D5000F1F79C838B838D819E8101979E838D8388
:100D60008D819E81009769F714C06F817885898590
:100D70009A850E944100DC01CB019E838D838D8189
:100D80009E819A83898389819A810197F1F79A8359
:100D9000898382E062E040E00E94950A2F960FB6B8
:100DA000F894DEBF0FBECDBFCF91DF910895DF93E2
:100DB000CF93CDB7DEB764970FB6F894DEBF0FBE02
:100DC000CDBF8F87688B80E06FEF0E944D0A82E075
:100DD00060E041E00E943B0982E061E041E00E9466
:100DE0003B0982E062E041E00E943B0980E090E044
:100DF000A0E2B2E48B879C87AD87BE876B857C853C
:100E00008D859E8520E030E04AEF54E40E94170271
:100E1000DC01CB018F839887A987BA876F8178859A
:100E200089859A8520E030E040E85FE30E94710305
:100E300088232CF481E090E09E838D833FC06F81F6
:100E4000788589859A8520E03FEF4FE757E40E9437
:100E5000110318164CF56B857C858D859E8520E0E9
:100E600030E040E251E40E941702DC01CB01BC01FA
:100E7000CD010E944100DC01CB019E838D830FC018
:100E800088EC90E09C838B838B819C810197F1F7A8
:100E90009C838B838D819E8101979E838D838D8121
:100EA0009E81009769F714C06F81788589859A853E
:100EB0000E944100DC01CB019E838D838D819E8148
:100EC0009A83898389819A810197F1F79A8389832B
:100ED0008F85282F30E03C8B2B8B8B899C8984332A
:100EE000910511F12B893C892533310534F48B8927
:100EF0009C8980339105A1F01AC02B893C89283345
:100F0000310531F08B899C898C33910529F00FC014
:100F100088E30E949B050BC08CE30E949B0507C0E1
:100F200084E30E949B0503C084E30E949B0588899B
:100F3000282F30E03A8B298B89899A898E30910548
:100F400071F029893A892F30310569F089899A89A8
:100F50008C30910559F48CE00E949B0507C08EE00F
:100F60000E949B0503C08FE00E949B0581E00E94C8
:100F70009B0564960FB6F894DEBF0FBECDBFCF9130
:100F8000DF910895DF93CF9300D00F92CDB7DEB7F6
:100F90009B838A83198215C08981282F30E08A813A
:100FA0009B81FC01E20FF31F80810E943906898139
:100FB0008F5F89838981803121F481E060E00E9424
:100FC000F2078981282F30E08A819B81FC01E20FA2
:100FD000F31F8081882301F70F900F900F90CF911E
:100FE000DF910895DF93CF9300D00F92CDB7DEB796
:100FF0008A836B838A81882319F48B81898306C055
:101000008A81813019F48B81805C89838981805841
:101010000E949B050F900F900F90CF91DF91089544
:10102000DF93CF93CDB7DEB727970FB6F894DEBF27
:101030000FBECDBF9C838B836D834E832F838D81A9
:10104000882F90E0880F991F880F991F880F991F8C
:1010500089838981805C0E949B051A820EC08A81E7
:10106000282F30E08B819C81FC01E20FF31F8081EF
:101070000E9439068A818F5F8A838A81883078F35B
:101080008E816F810E94F2078D810E94390627961A
:101090000FB6F894DEBF0FBECDBFCF91DF9108959C
:1010A0000F931F93DF93CF93CDB7DEB76B970FB638
:1010B000F894DEBF0FBECDBF6C8B7D8B8E8B9F8B6C
:1010C00080E1FE013496DF01282F1D922A95E9F771
:1010D00080E38C8319828C899D89AE89BF890097B2
:1010E000A105B10591F580E30E94390699C0898177
:1010F000082F10E08C899D89AE89BF892AE030E0F5
:1011000040E050E0BC01CD010E94DD16DC01CB01C6
:10111000282F205DCE010496FC01E00FF11F2083F3
:101120008C899D89AE89BF892AE030E040E050E09B
:10113000BC01CD010E94DD16DA01C9018C8B9D8BAB
:10114000AE8BBF8B89818F5F89838C899D89AE89A6
:10115000BF890097A105B10551F68981282F30E09C
:10116000CE010496FC01E20FF31F108289818150A9
:1011700089831B8233C08B81282F30E0CE010496F7
:10118000FC01E20FF31F80818A838B81482F50E09E
:101190008981282F30E08B81882F90E0281B390B24
:1011A000CE010496FC01E20FF31F2081CE010496CC
:1011B000FC01E40FF51F20838981282F30E08B810B
:1011C000882F90E0281B390BCE010496FC01E20F1A
:1011D000F31F8A8180838B818F5F8B838B81A82F04
:1011E000B0E0B98FA88F8981882F90E001969B8FFE
:1011F0008A8F2A8D3B8D33232CF48A8D9B8D01960B
:101200009B8F8A8F8A8D9B8D95958795A88DB98D9B
:10121000A817B9070CF4AFCFCE0104960E94C207FD
:101220006B960FB6F894DEBF0FBECDBFCF91DF91A6
:101230001F910F910895DF93CF93CDB7DEB7EAE307
:10124000F0E01082E7E3F0E01082E4E3F0E01082E7
:10125000E1E3F0E01082EBE3F0E01082E8E3F0E09D
:101260001082E5E3F0E01082E2E3F0E087E08083C3
:10127000CF91DF910895DF93CF93CDB7DEB7289755
:101280000FB6F894DEBF0FBECDBF8A836B834C834D
:1012900019828B81883008F0F4C08C81882309F092
:1012A00077C08A81282F30E038872F838F819885F7
:1012B0008130910559F12F813885223031052CF488
:1012C0008F819885009769F060C02F813885223022
:1012D000310589F18F8198858330910509F440C0EB
:1012E00054C0AAE3B0E0EAE3F0E08081482F8B81AC
:1012F000282F30E081E090E0022E02C0880F991F75
:101300000A94E2F7809584238C93BDC0A7E3B0E0F4
:10131000E7E3F0E08081482F8B81282F30E081E0E7
:1013200090E0022E02C0880F991F0A94E2F7809580
:1013300084238C93A8C0A4E3B0E0E4E3F0E08081D0
:10134000482F8B81282F30E081E090E0022E02C0F0
:10135000880F991F0A94E2F7809584238C9393C099
:10136000A1E3B0E0E1E3F0E08081482F8B81282FFA
:1013700030E081E090E0022E02C0880F991F0A94AD
:10138000E2F7809584238C937EC081E089837BC0C3
:101390008C81813009F072C08A81282F30E03E8331
:1013A0002D838D819E818130910549F12D813E8172
:1013B000223031052CF48D819E81009761F05BC055
:1013C0002D813E812230310571F18D819E818330E6
:1013D0009105E9F150C0AAE3B0E0EAE3F0E08081D2
:1013E000482F8B81282F30E081E090E0022E02C050
:1013F000880F991F0A94E2F7842B8C9344C0A7E3CB
:10140000B0E0E7E3F0E08081482F8B81282F30E0C7
:1014100081E090E0022E02C0880F991F0A94E2F743
:10142000842B8C9330C0A4E3B0E0E4E3F0E080814F
:10143000482F8B81282F30E081E090E0022E02C0FF
:10144000880F991F0A94E2F7842B8C931CC0A1E3A8
:10145000B0E0E1E3F0E08081482F8B81282F30E07D
:1014600081E090E0022E02C0880F991F0A94E2F7F3
:10147000842B8C9308C081E0898305C081E0898337
:1014800002C081E08983898128960FB6F894DEBF77
:101490000FBECDBFCF91DF910895DF93CF9300D0E2
:1014A00000D00F92CDB7DEB78A836B8319828A8111
:1014B000282F30E03D832C838C819D8181309105E4
:1014C000D1F02C813D81223031052CF48C819D811D
:1014D000009761F01FC02C813D812230310581F0E1
:1014E0008C819D818330910581F014C0EAE3F0E0A6
:1014F0008B81808311C0E7E3F0E08B8180830CC097
:10150000E4E3F0E08B81808307C0E1E3F0E08B81CE
:10151000808302C081E0898389810F900F900F90B2
:101520000F900F90CF91DF910895DF93CF93CDB7B8
:10153000DEB728970FB6F894DEBF0FBECDBF8A8303
:101540006B834C8319828B81883008F0F4C08C81C6
:10155000882309F077C08A81282F30E038872F83CD
:101560008F8198858130910559F12F8138852230FE
:1015700031052CF48F819885009769F060C02F8128
:1015800038852230310589F18F8198858330910526
:1015900009F440C054C0ABE3B0E0EBE3F0E080817D
:1015A000482F8B81282F30E081E090E0022E02C08E
:1015B000880F991F0A94E2F7809584238C93BDC00D
:1015C000A8E3B0E0E8E3F0E08081482F8B81282F8A
:1015D00030E081E090E0022E02C0880F991F0A944B
:1015E000E2F7809584238C93A8C0A5E3B0E0E5E3FF
:1015F000F0E08081482F8B81282F30E081E090E05F
:10160000022E02C0880F991F0A94E2F78095842366
:101610008C9393C0A2E3B0E0E2E3F0E08081482F36
:101620008B81282F30E081E090E0022E02C0880FED
:10163000991F0A94E2F7809584238C937EC081E001
:1016400089837BC08C81813009F072C08A81282F08
:1016500030E03E832D838D819E818130910549F15B
:101660002D813E81223031052CF48D819E810097A1
:1016700061F05BC02D813E812230310571F18D8199
:101680009E8183309105E9F150C0ABE3B0E0EBE31C
:10169000F0E08081482F8B81282F30E081E090E0BE
:1016A000022E02C0880F991F0A94E2F7842B8C93B4
:1016B00044C0A8E3B0E0E8E3F0E08081482F8B81EC
:1016C000282F30E081E090E0022E02C0880F991FA1
:1016D0000A94E2F7842B8C9330C0A5E3B0E0E5E3F5
:1016E000F0E08081482F8B81282F30E081E090E06E
:1016F000022E02C0880F991F0A94E2F7842B8C9364
:101700001CC0A2E3B0E0E2E3F0E08081482F8B81CF
:10171000282F30E081E090E0022E02C0880F991F50
:101720000A94E2F7842B8C9308C081E0898305C07A
:1017300081E0898302C081E08983898128960FB680
:10174000F894DEBF0FBECDBFCF91DF910895DF9338
:10175000CF9300D000D00F92CDB7DEB78A836B83D2
:1017600019828A81282F30E03D832C838C819D81D2
:1017700081309105D1F02C813D81223031052CF44E
:101780008C819D81009761F01FC02C813D812230AA
:10179000310581F08C819D818330910581F014C0E9
:1017A000EBE3F0E08B81808311C0E8E3F0E08B8114
:1017B00080830CC0E5E3F0E08B81808307C0E2E327
:1017C000F0E08B81808302C081E0898389810F9062
:1017D0000F900F900F900F90CF91DF910895DF93AE
:1017E000CF93CDB7DEB727970FB6F894DEBF0FBE05
:1017F000CDBF8A836B835D834C8319828C819D81ED
:10180000009709F478C08B81883008F074C08A8111
:10181000282F30E03F832E834E815F814130510578
:1018200059F18E819F818230910534F42E813F8160
:101830002115310569F05CC04E815F814230510550
:1018400079F18E819F818330910509F43DC050C0AC
:10185000E9E3F0E08081282F30E08B81882F90E051
:10186000A90102C0559547958A95E2F7CA01817092
:10187000EC81FD81808341C0E6E3F0E08081282F88
:1018800030E08B81882F90E0A90102C055954795E3
:101890008A95E2F7CA018170EC81FD8180832DC0B9
:1018A000E3E3F0E08081282F30E08B81882F90E007
:1018B000A90102C0559547958A95E2F7CA01817042
:1018C000EC81FD81808319C0E0E3F0E08081282F66
:1018D00030E08B81882F90E0A90102C05595479593
:1018E0008A95E2F7CA018170EC81FD81808305C091
:1018F00081E0898302C081E08983898127960FB6C0
:10190000F894DEBF0FBECDBFCF91DF910895DF9376
:10191000CF9300D000D00F92CDB7DEB78FEF8B837F
:101920001A825EC08A81882F90E0FC01E459FF4F43
:10193000908183E0692F40E00E94950A19823DC0A2
:101940008981882F90E0FC01E859FF4F90819E012A
:101950002C5F3F4F83E0692FA9010E94EF0B8C8120
:10196000882341F58981482F50E08A81282F30E073
:10197000CA01880F991F880F991F820F931FFC01BE
:10198000E059FF4F80818B830FC08981882F90E0C1
:10199000FC01E859FF4F90819E012C5F3F4F83E08F
:1019A000692FA9010E94EF0B8C81882371F38B8131
:1019B0008D831CC089818F5F89838981843008F47D
:1019C000BFCF8A81882F90E0FC01E459FF4F9081BE
:1019D00083E0692F41E00E94950A8A818F5F8A83A4
:1019E0008A81843008F49ECF8B818D838D810F9006
:1019F0000F900F900F900F90CF91DF9108950F935C
:101A00001F93DF93CF93CDB7DEB7CE5BD0400FB639
:101A1000F894DEBF0FBECDBFFE01E256FF4F10822D
:101A2000FE01E356FF4F1082FE01E456FF4F108285
:101A3000FE01E556FF4F10820E941B0988E36CE00F
:101A40000E94D706CE018E559F4FC654DF4F998313
:101A50008883CA5BD04020E830E0C454DF4F39832C
:101A60002883CC5BD0403AE0C254DF4F3883CE5B52
:101A7000D040C454DF4FA881B981CC5BD0400C90DA
:101A8000C454DF4FE881F981CC5BD0403196C45417
:101A9000DF4FF983E883CC5BD040C654DF4FA88189
:101AA000B981CA5BD0400C92C654DF4FE881F981FE
:101AB000CA5BD0403196C654DF4FF983E883CA5BD6
:101AC000D040C254DF4FF881CE5BD040F150C254B9
:101AD000DF4FF883CE5BD040C254DF4F2881CE5B0E
:101AE000D040222331F6FE01E455FF4F8BE2808384
:101AF000FE01E455FF4F8DE28183FE01E455FF4F67
:101B00008AE28283FE01E455FF4F8FE28383CE0198
:101B100080559F4F28E0FC01DF01322F1D923A953E
:101B2000E9F7FE01E055FF4F84E08083FE01E055B8
:101B3000FF4F8AE08183FE01E055FF4F85E18283FC
:101B4000FE01E055FF4F84E08383FE01E055FF4F27
:101B500084E08483FE01E055FF4F84E08583FE012D
:101B6000E055FF4F84E08683FE01EE55FF4F8081F4
:101B7000882F90E0A0E0B0E0BC01CD010E945008A9
:101B8000FE01E455FF4F80810E943906FE01EE55AB
:101B9000FF4F8081882F90E0A0E0B0E0BC01CD0134
:101BA0000E9450088DE30E94390660E070E080E0FA
:101BB00090E00E9450080C94BE16FE01E956FF4FBB
:101BC00080E090E0AAE7B3E480839183A283B383AB
:101BD0008E010D561F4FFE01E956FF4F6081718146
:101BE0008281938120E030E04AEF54E40E941702A2
:101BF000DC01CB01F80180839183A283B383FE01D2
:101C0000ED56FF4F608171818281938120E030E049
:101C100040E85FE30E947103882344F4FE01EF561D
:101C2000FF4F81E090E09183808364C0FE01ED5618
:101C3000FF4F608171818281938120E03FEF4FE708
:101C400057E40E94110318160CF043C0FE01E95638
:101C5000FF4F608171818281938120E030E040E21A
:101C600051E40E941702DC01CB018E010F561F4F79
:101C7000BC01CD010E944100DC01CB01F801918340
:101C800080831FC0FE01E157FF4F88EC90E09183F5
:101C90008083FE01E157FF4F808191810197F1F729
:101CA000FE01E157FF4F91838083DE01AF56BF4FA6
:101CB000FE01EF56FF4F80819181019711969C9311
:101CC0008E93FE01EF56FF4F808191810097D1F6F0
:101CD00027C08E010F561F4FFE01ED56FF4F60814A
:101CE0007181828193810E944100DC01CB01F80166
:101CF00091838083DE01A357BF4FFE01EF56FF4F54
:101D0000808191818D939C93FE01E357FF4F8081E9
:101D100091810197F1F7FE01E357FF4F9183808393
:101D2000DE01A456BF4FFE01E456FF4F80818F5F56
:101D30008C938EC2FE01E256FF4F8081282F3327FD
:101D400027FD3095CE018E559F4FFC01E20FF31F0A
:101D50008081FE01EF55FF4F8083E0E3F0E080815A
:101D600086958695882F90E081709070009709F095
:101D7000BCC0FE01E757FF4F80E090E0A8E4B3E469
:101D800080839183A283B3838E010B571F4FFE0183
:101D9000E757FF4F608171818281938120E030E0BD
:101DA0004AEF54E40E941702DC01CB01F801808362
:101DB0009183A283B383FE01EB57FF4F6081718152
:101DC0008281938120E030E040E85FE30E9471036C
:101DD000882344F4FE01ED57FF4F81E090E09183AA
:101DE000808364C0FE01EB57FF4F60817181828167
:101DF000938120E03FEF4FE757E40E94110318164C
:101E00000CF043C0FE01E757FF4F60817181828172
:101E1000938120E030E040E251E40E941702DC01AF
:101E2000CB018E010D571F4FBC01CD010E94410017
:101E3000DC01CB01F801918380831FC0FE01EF57C5
:101E4000FF4F88EC90E091838083FE01EF57FF4FB6
:101E5000808191810197F1F7FE01EF57FF4F918348
:101E60008083DE01AD57BF4FFE01ED57FF4F8081EC
:101E70009181019711969C938E93FE01ED57FF4F30
:101E8000808191810097D1F627C08E010D571F4F99
:101E9000FE01EB57FF4F60817181828193810E9427
:101EA0004100DC01CB01F80191838083DE01A15860
:101EB000BF4FFE01ED57FF4F808191818D939C9321
:101EC000FE01E158FF4F808191810197F1F7FE01FA
:101ED000E158FF4F91838083DE01A256BF4FFE0180
:101EE000E256FF4F80818F5F8C93E0E3F0E08081CA
:101EF0008695882F90E081709070009709F0BCC0A3
:101F0000FE01E558FF4F80E090E0A8E4B3E4808351
:101F10009183A283B3838E0109581F4FFE01E558B8
:101F2000FF4F608171818281938120E030E04AEF30
:101F300054E40E941702DC01CB01F80180839183F5
:101F4000A283B383FE01E958FF4F608171818281D2
:101F5000938120E030E040E85FE30E947103882332
:101F600044F4FE01EB58FF4F81E090E091838083C1
:101F700064C0FE01E958FF4F6081718182819381C5
:101F800020E03FEF4FE757E40E94110318160CF0D2
:101F900043C0FE01E558FF4F6081718182819381CA
:101FA00020E030E040E251E40E941702DC01CB0166
:101FB0008E010B581F4FBC01CD010E944100DC0176
:101FC000CB01F801918380831FC0FE01ED58FF4FC4
:101FD00088EC90E091838083FE01ED58FF4F808173
:101FE00091810197F1F7FE01ED58FF4F91838083B6
:101FF000DE01AB58BF4FFE01EB58FF4F808191814E
:10200000019711969C938E93FE01EB58FF4F8081B0
:1020100091810097D1F627C08E010B581F4FFE010A
:10202000E958FF4F60817181828193810E94410054
:10203000DC01CB01F80191838083DE01AF58BF4FF3
:10204000FE01EB58FF4F808191818D939C93FE019F
:10205000EF58FF4F808191810197F1F7FE01EF5812
:10206000FF4F91838083DE01A256BF4FFE01E256EF
:10207000FF4F808181508C93FE01E256FF4F80819B
:10208000882324F4FE01E256FF4F1082FE01E2563F
:10209000FF4F80818A302CF0FE01E256FF4F89E02D
:1020A000808380E060E00E94F207FE01EF55FF4F61
:1020B0008081992787FD9095A92FB92FBC01CD016B
:1020C0000E945008CE0180559F4F60E041E020E023
:1020D0000E941008FE01E359FF4F80E090E0A8EC59
:1020E000B1E480839183A283B3838E0107591F4F8C
:1020F000FE01E359FF4F608171818281938120E06D
:1021000030E04AEF54E40E941702DC01CB01F801F1
:1021100080839183A283B383FE01E759FF4F6081DF
:1021200071818281938120E030E040E85FE30E948A
:102130007103882344F4FE01E959FF4F81E090E0E8
:102140009183808364C0FE01E759FF4F60817181F4
:102150008281938120E03FEF4FE757E40E94110313
:1021600018160CF043C0FE01E359FF4F60817181E6
:102170008281938120E030E040E251E40E94170226
:10218000DC01CB018E0109591F4FBC01CD010E941A
:102190004100DC01CB01F801918380831FC0FE0167
:1021A000EB59FF4F88EC90E091838083FE01EB595F
:1021B000FF4F808191810197F1F7FE01EB59FF4FAD
:1021C00091838083DE01A959BF4FFE01E959FF4F7A
:1021D00080819181019711969C938E93FE01E9591C
:1021E000FF4F808191810097D1F628C08E01095957
:1021F0001F4FFE01E759FF4F6081718182819381FA
:102200000E944100DC01CB01F80191838083DE0153
:10221000AD59BF4FFE01E959FF4F80819181119661
:102220009C938E93FE01ED59FF4F80819181019720
:10223000F1F7FE01ED59FF4F91838083E0E3F0E079
:102240008081882F90E081709070009709F467C2B8
:10225000FE01E456FF4F8081813009F46BCD5FC2EF
:10226000FE01E356FF4F8081282F332727FD30954D
:10227000CE0184559F4FFC01E20FF31F8081FE01C8
:10228000E156FF4F8083E0E3F0E0808186958695FC
:10229000882F90E081709070009709F0BCC0FE011B
:1022A000E15AFF4F80E090E0A8E4B3E4808391839B
:1022B000A283B3838E01055A1F4FFE01E15AFF4FDF
:1022C000608171818281938120E030E04AEF54E4A3
:1022D0000E941702DC01CB01F80180839183A28365
:1022E000B383FE01E55AFF4F608171818281938142
:1022F00020E030E040E85FE30E947103882344F46B
:10230000FE01E75AFF4F81E090E09183808364C033
:10231000FE01E55AFF4F608171818281938120E047
:102320003FEF4FE757E40E94110318160CF043C02B
:10233000FE01E15AFF4F608171818281938120E02B
:1023400030E040E251E40E941702DC01CB018E0133
:10235000075A1F4FBC01CD010E944100DC01CB0197
:10236000F801918380831FC0FE01E95AFF4F88EC7A
:1023700090E091838083FE01E95AFF4F8081918133
:102380000197F1F7FE01E95AFF4F91838083DE0147
:10239000A75ABF4FFE01E75AFF4F808191810197F5
:1023A00011969C938E93FE01E75AFF4F8081918195
:1023B0000097D1F627C08E01075A1F4FFE01E55A3C
:1023C000FF4F60817181828193810E944100DC0115
:1023D000CB01F80191838083DE01AB5ABF4FFE0130
:1023E000E75AFF4F808191818D939C93FE01EB5AB8
:1023F000FF4F808191810197F1F7FE01EB5AFF4F6A
:1024000091838083DE01A356BF4FFE01E356FF4F49
:1024100080818F5F8C93E0E3F0E080818695882F48
:1024200090E081709070009709F0BCC0FE01EF5AF7
:10243000FF4F80E090E0A8E4B3E480839183A2831F
:10244000B3838E01035B1F4FFE01EF5AFF4F608184
:1024500071818281938120E030E04AEF54E40E9450
:102460001702DC01CB01F80180839183A283B3833F
:10247000FE01E35BFF4F608171818281938120E0E7
:1024800030E040E85FE30E947103882344F4FE01DA
:10249000E55BFF4F81E090E09183808364C0FE01A3
:1024A000E35BFF4F608171818281938120E03FEF88
:1024B0004FE757E40E94110318160CF043C0FE01C9
:1024C000EF5AFF4F608171818281938120E030E07B
:1024D00040E251E40E941702DC01CB018E01055B52
:1024E0001F4FBC01CD010E944100DC01CB01F8016E
:1024F000918380831FC0FE01E75BFF4F88EC90E073
:1025000091838083FE01E75BFF4F8081918101977A
:10251000F1F7FE01E75BFF4F91838083DE01A55B4E
:10252000BF4FFE01E55BFF4F8081918101971196BE
:102530009C938E93FE01E55BFF4F80819181009714
:10254000D1F627C08E01055B1F4FFE01E35BFF4FF5
:1025500060817181828193810E944100DC01CB0105
:10256000F80191838083DE01A95BBF4FFE01E55B2B
:10257000FF4F808191818D939C93FE01E95BFF4F1A
:10258000808191810197F1F7FE01E95BFF4F918313
:102590008083DE01A356BF4FFE01E356FF4F8081CB
:1025A00081508C93FE01E356FF4F8081882324F4F1
:1025B000FE01E356FF4F1082FE01E356FF4F80817C
:1025C00084302CF0FE01E356FF4F83E0808380E0EF
:1025D00061E00E94F207FE01E156FF4F80810E94F8
:1025E000390681E060E00E94F20780E20E9439062D
:1025F000CE0180559F4F60E041E021E00E9410082D
:10260000FE01ED5BFF4F80E090E0A8ECB1E4808339
:102610009183A283B3838E01015C1F4FFE01ED5BAA
:10262000FF4F608171818281938120E030E04AEF29
:1026300054E40E941702DC01CB01F80180839183EE
:10264000A283B383FE01FF966081718182819381B1
:1026500020E030E040E85FE30E94710388232CF41F
:1026600081E090E09EAF8DAF46C0FE01FF96608195
:1026700071818281938120E03FEF4FE757E40E9410
:102680001103181664F5FE01ED5BFF4F6081718147
:102690008281938120E030E040E251E40E94170201
:1026A000DC01CB01BC01CD010E944100DC01CB016A
:1026B0009EAF8DAF0FC088EC90E09CAF8BAF8BAD21
:1026C0009CAD0197F1F79CAF8BAF8DAD9EAD01979F
:1026D0009EAF8DAF8DAD9EAD009769F716C0FE0120
:1026E000FF9660817181828193810E944100DC01AB
:1026F000CB019EAF8DAF8DAD9EAD9AAF89AF89AD49
:102700009AAD0197F1F79AAF89AFE0E3F0E08081ED
:10271000882F90E081709070009709F4CFC1FE017E
:10272000E456FF4F8081823009F49ACDC7C1FE0183
:10273000E556FF4F8081282F332727FD3095CE01A6
:102740008E559F4FFC01E20FF31F8081FE01E05682
:10275000FF4F8083E0E3F0E0808186958695882FA7
:1027600090E081709070009709F07BC080E090E06D
:10277000A8E4B3E48DAB9EABAFABB8AF6DA97EA9B7
:102780008FA998AD20E030E04AEF54E40E94170290
:10279000DC01CB0189AB9AABABABBCAB69A97AA925
:1027A0008BA99CA920E030E040E85FE30E94710320
:1027B00088232CF481E090E098AB8FA73FC069A9F3
:1027C0007AA98BA99CA920E03FEF4FE757E40E942C
:1027D000110318164CF56DA97EA98FA998AD20E0BC
:1027E00030E040E251E40E941702DC01CB01BC0161
:1027F000CD010E944100DC01CB0198AB8FA70FC037
:1028000088EC90E09EA78DA78DA59EA50197F1F776
:102810009EA78DA78FA598A9019798AB8FA78FA585
:1028200098A9009769F714C069A97AA98BA99CA9EE
:102830000E944100DC01CB0198AB8FA78FA598A91E
:102840009CA78BA78BA59CA50197F1F79CA78BA7AD
:10285000DE01A556BF4FFE01E556FF4F80818F5F19
:102860008C93E0E3F0E080818695882F90E0817082
:102870009070009709F07BC080E090E0A8E4B3E49A
:102880008FA398A7A9A7BAA76FA178A589A59AA58C
:1028900020E030E04AEF54E40E941702DC01CB0153
:1028A0008BA39CA3ADA3BEA36BA17CA18DA19EA174
:1028B00020E030E040E85FE30E94710388232CF4BD
:1028C00081E090E09AA389A33FC06BA17CA18DA178
:1028D0009EA120E03FEF4FE757E40E941103181636
:1028E0004CF56FA178A589A59AA520E030E040E2DB
:1028F00051E40E941702DC01CB01BC01CD010E9412
:102900004100DC01CB019AA389A30FC088EC90E0C1
:1029100098A38F8F8F8D98A10197F1F798A38F8F30
:1029200089A19AA101979AA389A389A19AA1009745
:1029300069F714C06BA17CA18DA19EA10E944100EA
:10294000DC01CB019AA389A389A19AA19E8F8D8FC7
:102950008D8D9E8D0197F1F79E8F8D8FDE01A5568F
:10296000BF4FFE01E556FF4F808181508C93FE01E1
:10297000E556FF4F80818A302CF0FE01E556FF4F6F
:1029800089E0808380E062E00E94F207FE01E05669
:10299000FF4F8081992787FD9095A92FB92FBC0102
:1029A000CD010E94500881E061E00E94F20780E2C0
:1029B0000E943906CE0180559F4F60E041E022E041
:1029C0000E94100880E090E0A8ECB1E4898F9A8F13
:1029D000AB8FBC8F698D7A8D8B8D9C8D20E030E024
:1029E0004AEF54E40E941702DC01CB018D8B9E8BD1
:1029F000AF8BB88F6D897E898F89988D20E030E00C
:102A000040E85FE30E94710388232CF481E090E0AA
:102A10009C8B8B8B3FC06D897E898F89988D20E040
:102A20003FEF4FE757E40E94110318164CF5698DEC
:102A30007A8D8B8D9C8D20E030E040E251E40E9445
:102A40001702DC01CB01BC01CD010E944100DC0179
:102A5000CB019C8B8B8B0FC088EC90E09A8B898B81
:102A600089899A890197F1F79A8B898B8B899C893F
:102A700001979C8B8B8B8B899C89009769F714C07D
:102A80006D897E898F89988D0E944100DC01CB0180
:102A90009C8B8B8B8B899C89988B8F878F85988952
:102AA0000197F1F7988B8F87E0E3F0E08081882F22
:102AB00090E081709070009709F44FC1FE01E456D8
:102AC000FF4F8081833009F432CE47C180E064E05B
:102AD0000E94F207FE01E156FF4F8081282F332725
:102AE00027FD3095C854DF4F39832883C85BD04019
:102AF000C854DF4F48815981C85BD0404B325105E3
:102B000039F1C854DF4F88819981C85BD0408C323D
:102B100091055CF4C854DF4FA881B981C85BD040EF
:102B2000AA32B10509F468C086C0C854DF4FE881F5
:102B3000F981C85BD040ED32F10521F1C854DF4F77
:102B400028813981C85BD0402F323105B9F173C07B
:102B5000FE01EF55FF4F8081282F332727FD309549
:102B6000FE01E056FF4F8081992787FD9095820FE7
:102B7000931FAA2797FDA095BA2FBC01CD010E94F3
:102B8000500859C0FE01EF55FF4F8081282F332791
:102B900027FD3095FE01E056FF4F8081992787FD84
:102BA0009095A901481B590BCA01AA2797FDA0952A
:102BB000BA2FBC01CD010E9450083DC0FE01EF5567
:102BC000FF4F8081482F552747FD5095FE01E05665
:102BD000FF4F8081282F332727FD3095CA01B90187
:102BE0000E94CA16CB01AA2797FDA095BA2FBC0157
:102BF000CD010E9450081FC0FE01EF55FF4F80819C
:102C0000282F332727FD3095FE01E056FF4F8081A6
:102C1000992787FD9095DC012A9FC0012B9F900D7D
:102C20003A9F900D1124AA2797FDA095BA2FBC01B9
:102C3000CD010E94500881E062E00E94F20780E22C
:102C40000E943906CE0180559F4F60E041E024E0AC
:102C50000E94100880E090E0A8ECB1E48B879C878C
:102C6000AD87BE876B857C858D859E8520E030E0B5
:102C70004AEF54E40E941702DC01CB018F8398874E
:102C8000A987BA876F81788589859A8520E030E0A9
:102C900040E85FE30E94710388232CF481E090E018
:102CA0009E838D833FC06F81788589859A8520E0DA
:102CB0003FEF4FE757E40E94110318164CF56B8560
:102CC0007C858D859E8520E030E040E251E40E94C5
:102CD0001702DC01CB01BC01CD010E944100DC01E7
:102CE000CB019E838D830FC088EC90E09C838B8307
:102CF0008B819C810197F1F79C838B838D819E81D1
:102D000001979E838D838D819E81009769F714C002
:102D10006F81788589859A850E944100DC01CB010D
:102D20009E838D838D819E819A83898389819A81F7
:102D30000197F1F79A838983E0E3F0E08081882F9F
:102D400090E081709070009741F481E064E00E940F
:102D5000F20780E20E94390607C0FE01E456FF4FE9
:102D60008081843009F4B2CEFE01E456FF4F8081A9
:102D7000853024F0FE01E456FF4F1082E0E3F0E0DE
:102D80008081882F90E081709070009711F40C94EE
:102D9000DD0DF4CF97FB092E07260AD077FD04D06E
:102DA0002ED006D000201AF4709561957F4F0895BB
:102DB000F6F7909581959F4F0895A1E21A2EAA1BD0
:102DC000BB1BFD010DC0AA1FBB1FEE1FFF1FA217DB
:102DD000B307E407F50720F0A21BB30BE40BF50BD8
:102DE000661F771F881F991F1A9469F76095709561
:102DF000809590959B01AC01BD01CF010895AA1B60
:102E0000BB1B51E107C0AA1FBB1FA617B70710F0D5
:102E1000A61BB70B881F991F5A95A9F78095909507
:102E2000BC01CD0108952F923F924F925F926F9215
:102E30007F928F929F92AF92BF92CF92DF92EF924A
:102E4000FF920F931F93CF93DF93CDB7DEB7CA1BCB
:102E5000DB0B0FB6F894DEBF0FBECDBF09942A88F6
:102E6000398848885F846E847D848C849B84AA849E
:102E7000B984C884DF80EE80FD800C811B81AA812B
:102E8000B981CE0FD11D0FB6F894DEBF0FBECDBFF6
:082E9000ED010895F894FFCF55
:102E9800000000000000000004050607000102030E
:102EA8000102030405060708090A0B0C0D0E0F1092
:0A2EB80000010203040506070809E3
:00000001FF
