:100000000C942A000C94920C0C94BF0C0C94EC0CE5
:100010000C9447000C9447000C9447000C94470044
:100020000C9447000C9447000C9424110C94470046
:100030000C9447000C9447000C9447000C94470024
:100040000C9447000C9447000C9447000C94470014
:100050000C94470011241FBECFE5D8E0DEBFCDBF12
:1000600010E0A0E6B0E0E4E6F3E202C005900D92F5
:10007000A83DB107D9F710E0A8EDB0E001C01D928E
:10008000A73EB107E1F70E94390F0C94B0110C9410
:100090000000EF92FF920F931F937B018C0120E0F1
:1000A00030E040E05FE40E94490388238CF0C801FF
:1000B000B70120E030E040E05FE40E94C1010E940F
:1000C000A9039B01AC01205030404040504806C07D
:1000D000C801B7010E94A9039B01AC01B901CA0183
:1000E0001F910F91FF90EF900895A0E0B0E0EBE733
:1000F000F0E00C947911DC012B01FA019C91923013
:1001000008F439C1EB018881823008F433C194309E
:1001100069F4843009F02FC111969C91119789815F
:10012000981709F428C1A7EBB0E025C1843009F481
:1001300021C18230A9F4923009F01DC19A01AD01AC
:1001400088E0EA010990AE01E90109929E0181501F
:10015000C1F7E201898111969C918923818308C1AD
:10016000923009F407C112962D903C901397EB0141
:100170008A819B811496AD90BD90CD90DC901797AD
:10018000EC80FD800E811F819101281B390BB90184
:1001900037FF04C066277727621B730B6032710537
:1001A0000CF061C0121613066CF537014801062EDB
:1001B00004C096948794779467940A94D2F721E0C8
:1001C00030E040E050E004C0220F331F441F551FB1
:1001D0006A95D2F721503040404050402E213F21B7
:1001E00040235123211531054105510521F021E01E
:1001F00030E040E050E079018A01E628F72808293C
:1002000019293CC0232BD1F1260E371E350146019A
:10021000062E04C096948794779467940A94D2F734
:1002200021E030E040E050E004C0220F331F441FC3
:10023000551F6A95D2F721503040404050402A2146
:100240003B214C215D21211531054105510521F04E
:1002500021E030E040E050E059016A01A628B728CB
:10026000C828D9280BC0821593052CF01C01AA249C
:10027000BB24650103C0EE24FF24870111969C91E5
:10028000D20111968C91981709F445C0992339F041
:10029000A80197012A193B094C095D0906C0A6016E
:1002A00095012E193F09400B510B57FD08C01182D3
:1002B0003382228224833583468357831DC081E0A5
:1002C00081833382228288279927DC01821B930B4A
:1002D000A40BB50B84839583A683B7830DC0220F2F
:1002E000331F441F551F24833583468357838281E0
:1002F000938101979383828324813581468157813D
:10030000DA01C9010197A109B1098F5F9F4FAF4F72
:10031000BF4328F30BC0918333822282EA0CFB1C7B
:100320000C1D1D1DE482F5820683178383E0808304
:10033000248135814681578157FF1AC0C901AA27F8
:1003400097FDA095BA2F81709070A070B0705695EF
:10035000479537952795822B932BA42BB52B848318
:100360009583A683B7838281938101969383828349
:10037000DF0101C0D201CD01CDB7DEB7E2E10C94BF
:100380009511A0E2B0E0E7ECF1E00C9485116983EF
:100390007A838B839C832D833E834F835887E9E048
:1003A000EE2EF12CEC0EFD1ECE010196B7010E943F
:1003B000D2048E010F5E1F4FCE010596B8010E9438
:1003C000D2048A8991E089278A8BC701B801AE01DE
:1003D000475E5F4F0E9475000E94FD03A096E6E015
:1003E0000C94A111A0E2B0E0E8EFF1E00C948511CB
:1003F00069837A838B839C832D833E834F835887C5
:10040000F9E0EF2EF12CEC0EFD1ECE010196B701A6
:100410000E94D2048E010F5E1F4FCE010596B801D7
:100420000E94D204C701B801AE01475E5F4F0E942F
:1004300075000E94FD03A096E6E00C94A111A0E2D5
:10044000B0E0E5E2F2E00C94791169837A838B8362
:100450009C832D833E834F835887CE010196BE0136
:10046000675F7F4F0E94D204CE010596BE016F5E8A
:100470007F4F0E94D2049985923088F0898982301A
:10048000C8F0943019F4823051F404C0843029F457
:10049000923081F487EB90E0C6C0923049F420E0BE
:1004A0009A858A89981321E02A87CE010996BBC0D4
:1004B000823049F420E09A858A89981321E02A8BBA
:1004C000CE014196B0C02D843E844F8458886D88FB
:1004D0007E888F88988CEE24FF248701AA24BB2471
:1004E000650140E050E060E070E0E0E0F0E0C10174
:1004F00081709070892BE9F0E60CF71C081D191D1E
:100500009A01AB012A0D3B1D4C1D5D1D80E090E062
:10051000A0E0B0E0E614F7040805190520F481E036
:1005200090E0A0E0B0E0BA01A901480F591F6A1F8E
:100530007B1FAA0CBB1CCC1CDD1C97FE08C081E0F5
:1005400090E0A0E0B0E0A82AB92ACA2ADB2A3196B6
:10055000E032F10549F0660C771C881C991C569412
:10056000479437942794C3CFFA85EA892B893C892D
:100570008B859C85280F391F2E5F3F4F17C0CA01FE
:1005800081709070892B61F016950795F794E79428
:1005900080E090E0A0E0B0E8E82AF92A0A2B1B2BC3
:1005A00076956795579547952F5F3F4F77FDE7CF36
:1005B0000CC0440F551F661F771F17FD4160EE0CDE
:1005C000FF1C001F111F21503040403090E05907A0
:1005D00090E0690790E4790760F32B8F3C8FDB0193
:1005E000CA018F779070A070B07080349105A1051A
:1005F000B10561F447FD0AC0E114F10401051105DC
:1006000029F0405C5F4F6F4F7F4F40781A8EFE1786
:1006100011F081E08A8F4D8F5E8F6F8F78A383E01A
:10062000898FCE0149960E94FD03A096E2E10C94C9
:100630009511A8E1B0E0EFE1F3E00C948511698336
:100640007A838B839C832D833E834F83588789E0F5
:10065000E82EF12CEC0EFD1ECE010196B7010E9492
:10066000D2048E010F5E1F4FCE010596B8010E9485
:10067000D2048985823040F08989823028F0C70110
:10068000B8010E944A0501C08FEF6896E6E00C941D
:10069000A111A8E1B0E0EFE4F3E00C9485116983C7
:1006A0007A838B839C832D833E834F83588789E095
:1006B000E82EF12CEC0EFD1ECE010196B7010E9432
:1006C000D2048E010F5E1F4FCE010596B8010E9425
:1006D000D2048985823040F08989823028F0C701B0
:1006E000B8010E944A0501C08FEF6896E6E00C94BD
:1006F000A111A8E1B0E0EFE7F3E00C948511698364
:100700007A838B839C832D833E834F83588789E034
:10071000E82EF12CEC0EFD1ECE010196B7010E94D1
:10072000D2048E010F5E1F4FCE010596B8010E94C4
:10073000D2048985823040F08989823028F0C7014F
:10074000B8010E944A0501C081E06896E6E00C9479
:10075000A111ACE0B0E0EFEAF3E00C9489116983F9
:100760007A838B839C83CE010196BE016B5F7F4FA2
:100770000E94D2048D81823061F1823050F1843048
:1007800021F48E81882351F12EC02F81388537FDC9
:1007900020C06E812F3131051CF06623F9F023C093
:1007A0008EE190E0821B930B29853A854B855C8511
:1007B00004C056954795379527958A95D2F76623B5
:1007C000B1F050954095309521953F4F4F4F5F4F79
:1007D0000EC020E030E040E050E009C02FEF3FEFD6
:1007E0004FEF5FE704C020E030E040E050E8B9019F
:1007F000CA012C96E2E00C94A511DF92EF92FF92D1
:100800000F931F93FC01E480F58006811781D1804E
:100810008081823048F480E090E0A0E1B0E0E82AF6
:10082000F92A0A2B1B2BA5C0843009F49FC0823003
:1008300021F4EE24FF24870105C0E114F104010531
:10084000110519F4E0E0F0E096C0628173819FEF3A
:10085000623879070CF05BC022E83FEF261B370BAC
:100860002A3131052CF020E030E040E050E02AC091
:10087000B801A701022E04C0769567955795479554
:100880000A94D2F781E090E0A0E0B0E004C0880FC5
:10089000991FAA1FBB1F2A95D2F70197A109B10979
:1008A0008E219F21A023B1230097A105B10521F03E
:1008B00081E090E0A0E0B0E09A01AB01282B392B59
:1008C0004A2B5B2BDA01C9018F779070A070B07052
:1008D00080349105A105B10539F427FF09C0205CDA
:1008E0003F4F4F4F5F4F04C0215C3F4F4F4F5F4F13
:1008F000E0E0F0E02030A0E03A07A0E04A07A0E402
:100900005A0710F0E1E0F0E079018A0127C0603871
:10091000710564F5FB01E158FF4FD801C7018F77DE
:100920009070A070B07080349105A105B10539F4C4
:10093000E7FE0DC080E490E0A0E0B0E004C08FE3EB
:1009400090E0A0E0B0E0E80EF91E0A1F1B1F17FFA1
:1009500005C016950795F794E794319687E01695AC
:100960000795F794E7948A95D1F705C0EE24FF2404
:100970008701EFEFF0E06E2F679566276795902F60
:100980009F77D794DD24D7948E2F8695492F462BB9
:10099000582F5D29B701CA011F910F91FF90EF9069
:1009A000DF900895FC01DB01408151812281622F9B
:1009B0006F7770E0221F2227221F9381892F880FD3
:1009C000822B282F30E0991F9927991F11969C930D
:1009D000119721153105A9F54115510561057105DD
:1009E00011F482E037C082E89FEF13969C938E93B8
:1009F00012979A01AB0167E0220F331F441F551F66
:100A00006A95D1F783E08C930DC0220F331F441FEA
:100A1000551F12968D919C911397019713969C9355
:100A20008E931297203080E0380780E0480780E4FA
:100A3000580758F314962D933D934D935C93179755
:100A400008952F3F310579F4411551056105710570
:100A500019F484E08C93089564FF03C081E08C93C3
:100A600012C01C9210C02F57304013963C932E9307
:100A7000129783E08C9387E0440F551F661F771F02
:100A80008A95D1F7706414964D935D936D937C9322
:100A9000179708951F93DC01FB019C91923008F495
:100AA00047C08081823008F443C0943051F41196DD
:100AB0001C91843099F58181682F70E0611B710968
:100AC0003FC0843021F0923031F48230B9F181811D
:100AD000882389F12DC011961C9111978230F1F075
:100AE00081811817D9F412962D913C911397828128
:100AF00093818217930794F028173907BCF0149656
:100B00008D919D910D90BC91A02D248135814681C0
:100B10005781281739074A075B0718F4112341F05A
:100B20000AC082179307A407B50740F4112319F0F0
:100B300061E070E005C06FEF7FEF02C060E070E041
:100B4000CB011F910895DF93CF93CDB7DEB72F97D9
:100B50000FB6F894DEBF0FBECDBF8F8782E060E096
:100B600040E00E94A00A82E061E040E00E94A00A0A
:100B700080E06F850E94B20B82E062E041E00E945B
:100B8000A00A80E090E0A0E0B0E48B879C87AD876E
:100B9000BE876B857C858D859E8520E030E04AEFA1
:100BA00054E40E941F02DC01CB018F839887A98740
:100BB000BA876F81788589859A8520E030E040E8A2
:100BC0005FE30E94790388232CF481E090E09E8308
:100BD0008D833FC06F81788589859A8520E03FEFBE
:100BE0004FE757E40E94190318164CF56B857C8576
:100BF0008D859E8520E030E040E251E40E941F0296
:100C0000DC01CB01BC01CD010E944900DC01CB011C
:100C10009E838D830FC088EC90E09C838B838B81B7
:100C20009C810197F1F79C838B838D819E81019735
:100C30009E838D838D819E81009769F714C06F819B
:100C4000788589859A850E944900DC01CB019E83C5
:100C50008D838D819E819A83898389819A81019771
:100C6000F1F79A83898382E062E040E00E94A00A63
:100C70002F960FB6F894DEBF0FBECDBFCF91DF9198
:100C80000895DF93CF93CDB7DEB72F970FB6F894C3
:100C9000DEBF0FBECDBF8F8782E060E041E00E94E3
:100CA000A00A82E061E040E00E94A00A80E06F8537
:100CB0000E94B20B82E062E041E00E94A00A80E064
:100CC00090E0A0E0B0E48B879C87AD87BE876B8502
:100CD0007C858D859E8520E030E04AEF54E40E94BB
:100CE0001F02DC01CB018F839887A987BA876F81A8
:100CF000788589859A8520E030E040E85FE30E94AE
:100D0000790388232CF481E090E09E838D833FC09B
:100D10006F81788589859A8520E03FEF4FE757E41A
:100D20000E94190318164CF56B857C858D859E8570
:100D300020E030E040E251E40E941F02DC01CB01E0
:100D4000BC01CD010E944900DC01CB019E838D8353
:100D50000FC088EC90E09C838B838B819C810197F2
:100D6000F1F79C838B838D819E8101979E838D8378
:100D70008D819E81009769F714C06F817885898580
:100D80009A850E944900DC01CB019E838D838D8171
:100D90009E819A83898389819A810197F1F79A8349
:100DA000898382E062E040E00E94A00A2F960FB69D
:100DB000F894DEBF0FBECDBFCF91DF910895DF93D2
:100DC000CF93CDB7DEB764970FB6F894DEBF0FBEF2
:100DD000CDBF8F87688B80E06FEF0E94580A82E05A
:100DE00060E041E00E94460982E061E041E00E944B
:100DF000460982E062E041E00E94460980E090E01E
:100E0000A0E2B2E48B879C87AD87BE876B857C852B
:100E10008D859E8520E030E04AEF54E40E941F0259
:100E2000DC01CB018F839887A987BA876F8178858A
:100E300089859A8520E030E040E85FE30E947903ED
:100E400088232CF481E090E09E838D833FC06F81E6
:100E5000788589859A8520E03FEF4FE757E40E9427
:100E6000190318164CF56B857C858D859E8520E0D1
:100E700030E040E251E40E941F02DC01CB01BC01E2
:100E8000CD010E944900DC01CB019E838D830FC000
:100E900088EC90E09C838B838B819C810197F1F798
:100EA0009C838B838D819E8101979E838D838D8111
:100EB0009E81009769F714C06F81788589859A852E
:100EC0000E944900DC01CB019E838D838D819E8130
:100ED0009A83898389819A810197F1F79A8389831B
:100EE0008F85282F30E03C8B2B8B8B899C8984331A
:100EF000910511F12B893C892533310534F48B8917
:100F00009C8980339105A1F01AC02B893C89283334
:100F1000310531F08B899C898C33910529F00FC004
:100F200088E30E94A3050BC08CE30E94A30507C0C1
:100F300084E30E94A30503C084E30E94A30588897B
:100F4000282F30E03A8B298B89899A898E30910538
:100F500071F029893A892F30310569F089899A8998
:100F60008C30910559F48CE00E94A30507C08EE0F7
:100F70000E94A30503C08FE00E94A30581E00E94A8
:100F8000A30564960FB6F894DEBF0FBECDBFCF9118
:100F9000DF910895DF93CF9300D00F92CDB7DEB7E6
:100FA0009B838A83198215C08981282F30E08A812A
:100FB0009B81FC01E20FF31F80810E944106898121
:100FC0008F5F89838981803121F481E060E00E9414
:100FD000FA078981282F30E08A819B81FC01E20F8A
:100FE000F31F8081882301F70F900F900F90CF910E
:100FF000DF910895DF93CF9300D00F92CDB7DEB786
:101000008A836B838A81882319F48B81898306C044
:101010008A81813019F48B81805C89838981805831
:101020000E94A3050F900F900F90CF91DF9108952C
:10103000DF93CF93CDB7DEB727970FB6F894DEBF17
:101040000FBECDBF9C838B836D834E832F838D8199
:10105000882F90E0880F991F880F991F880F991F7C
:1010600089838981805C0E94A3051A820EC08A81CF
:10107000282F30E08B819C81FC01E20FF31F8081DF
:101080000E9441068A818F5F8A838A81883078F343
:101090008E816F810E94FA078D810E9441062796FA
:1010A0000FB6F894DEBF0FBECDBFCF91DF9108958C
:1010B0000F931F93DF93CF93CDB7DEB76B970FB628
:1010C000F894DEBF0FBECDBF6C8B7D8B8E8B9F8B5C
:1010D00080E1FE013496DF01282F1D922A95E9F761
:1010E00080E38C8319828C899D89AE89BF890097A2
:1010F000A105B10591F580E30E94410699C089815F
:10110000082F10E08C899D89AE89BF892AE030E0E4
:1011100040E050E0BC01CD010E945711DC01CB0141
:10112000282F205DCE010496FC01E00FF11F2083E3
:101130008C899D89AE89BF892AE030E040E050E08B
:10114000BC01CD010E945711DA01C9018C8B9D8B26
:10115000AE8BBF8B89818F5F89838C899D89AE8996
:10116000BF890097A105B10551F68981282F30E08C
:10117000CE010496FC01E20FF31F10828981815099
:1011800089831B8233C08B81282F30E0CE010496E7
:10119000FC01E20FF31F80818A838B81482F50E08E
:1011A0008981282F30E08B81882F90E0281B390B14
:1011B000CE010496FC01E20FF31F2081CE010496BC
:1011C000FC01E40FF51F20838981282F30E08B81FB
:1011D000882F90E0281B390BCE010496FC01E20F0A
:1011E000F31F8A8180838B818F5F8B838B81A82FF4
:1011F000B0E0B98FA88F8981882F90E001969B8FEE
:101200008A8F2A8D3B8D33232CF48A8D9B8D0196FA
:101210009B8F8A8F8A8D9B8D95958795A88DB98D8B
:10122000A817B9070CF4AFCFCE0104960E94CA07E5
:101230006B960FB6F894DEBF0FBECDBFCF91DF9196
:101240001F910F910895DF93CF93CDB7DEB7EAE3F7
:10125000F0E01082E7E3F0E01082E4E3F0E080EEFB
:101260008083E1E3F0E08FE08083EBE3F0E0108245
:10127000E8E3F0E084E08083E5E3F0E01082E2E37D
:10128000F0E08FEF8083CF91DF910895DF93CF93CC
:10129000CDB7DEB728970FB6F894DEBF0FBECDBF2F
:1012A0008A836B834C8319828B81883008F0F4C069
:1012B0008C81882309F077C08A81282F30E0388715
:1012C0002F838F8198858130910559F12F81388541
:1012D000223031052CF48F819885009769F060C029
:1012E0002F8138852230310589F18F8198858330AF
:1012F000910509F440C054C0AAE3B0E0EAE3F0E08D
:101300008081482F8B81282F30E081E090E0022EF1
:1013100002C0880F991F0A94E2F7809584238C936A
:10132000BDC0A7E3B0E0E7E3F0E08081482F8B8108
:10133000282F30E081E090E0022E02C0880F991F34
:101340000A94E2F7809584238C93A8C0A4E3B0E0CC
:10135000E4E3F0E08081482F8B81282F30E081E0AA
:1013600090E0022E02C0880F991F0A94E2F7809540
:1013700084238C9393C0A1E3B0E0E1E3F0E08081AB
:10138000482F8B81282F30E081E090E0022E02C0B0
:10139000880F991F0A94E2F7809584238C937EC06E
:1013A00081E089837BC08C81813009F072C08A81A1
:1013B000282F30E03E832D838D819E8181309105E1
:1013C00049F12D813E81223031052CF48D819E81A1
:1013D000009761F05BC02D813E812230310571F1B3
:1013E0008D819E8183309105E9F150C0AAE3B0E080
:1013F000EAE3F0E08081482F8B81282F30E081E004
:1014000090E0022E02C0880F991F0A94E2F7842B05
:101410008C9344C0A7E3B0E0E7E3F0E08081482F7D
:101420008B81282F30E081E090E0022E02C0880FEF
:10143000991F0A94E2F7842B8C9330C0A4E3B0E0A8
:10144000E4E3F0E08081482F8B81282F30E081E0B9
:1014500090E0022E02C0880F991F0A94E2F7842BB5
:101460008C931CC0A1E3B0E0E1E3F0E08081482F61
:101470008B81282F30E081E090E0022E02C0880F9F
:10148000991F0A94E2F7842B8C9308C081E089832A
:1014900005C081E0898302C081E089838981289623
:1014A0000FB6F894DEBF0FBECDBFCF91DF91089588
:1014B000DF93CF9300D000D00F92CDB7DEB78A83F1
:1014C0006B8319828A81282F30E03D832C838C81A5
:1014D0009D8181309105D1F02C813D8122303105F3
:1014E0002CF48C819D81009761F01FC02C813D817F
:1014F0002230310581F08C819D818330910581F00E
:1015000014C0EAE3F0E08B81808311C0E7E3F0E0F0
:101510008B8180830CC0E4E3F0E08B81808307C083
:10152000E1E3F0E08B81808302C081E089838981DF
:101530000F900F900F900F900F90CF91DF91089523
:10154000DF93CF93CDB7DEB728970FB6F894DEBF01
:101550000FBECDBF8A836B834C8319828B81883009
:1015600008F0F4C08C81882309F077C08A81282F85
:1015700030E038872F838F8198858130910559F12C
:101580002F813885223031052CF48F819885009782
:1015900069F060C02F8138852230310589F18F8153
:1015A00098858330910509F440C054C0ABE3B0E0A6
:1015B000EBE3F0E08081482F8B81282F30E081E041
:1015C00090E0022E02C0880F991F0A94E2F78095DE
:1015D00084238C93BDC0A8E3B0E0E8E3F0E0808111
:1015E000482F8B81282F30E081E090E0022E02C04E
:1015F000880F991F0A94E2F7809584238C93A8C0E2
:10160000A5E3B0E0E5E3F0E08081482F8B81282F4F
:1016100030E081E090E0022E02C0880F991F0A940A
:10162000E2F7809584238C9393C0A2E3B0E0E2E3D9
:10163000F0E08081482F8B81282F30E081E090E01E
:10164000022E02C0880F991F0A94E2F78095842326
:101650008C937EC081E089837BC08C81813009F0CE
:1016600072C08A81282F30E03E832D838D819E8138
:101670008130910549F12D813E81223031052CF4D4
:101680008D819E81009761F05BC02D813E8122306B
:10169000310571F18D819E8183309105E9F150C052
:1016A000ABE3B0E0EBE3F0E08081482F8B81282FA3
:1016B00030E081E090E0022E02C0880F991F0A946A
:1016C000E2F7842B8C9344C0A8E3B0E0E8E3F0E0B9
:1016D0008081482F8B81282F30E081E090E0022E1E
:1016E00002C0880F991F0A94E2F7842B8C9330C0B4
:1016F000A5E3B0E0E5E3F0E08081482F8B81282F5F
:1017000030E081E090E0022E02C0880F991F0A9419
:10171000E2F7842B8C931CC0A2E3B0E0E2E3F0E09C
:101720008081482F8B81282F30E081E090E0022ECD
:1017300002C0880F991F0A94E2F7842B8C9308C08B
:1017400081E0898305C081E0898302C081E08983CB
:10175000898128960FB6F894DEBF0FBECDBFCF911A
:10176000DF910895DF93CF9300D000D00F92CDB7D3
:10177000DEB78A836B8319828A81282F30E03D830C
:101780002C838C819D8181309105D1F02C813D810C
:10179000223031052CF48C819D81009761F01FC0AF
:1017A0002C813D812230310581F08C819D818330F7
:1017B000910581F014C0EBE3F0E08B81808311C0D0
:1017C000E8E3F0E08B8180830CC0E5E3F0E08B81FF
:1017D000808307C0E2E3F0E08B81808302C081E078
:1017E000898389810F900F900F900F900F90CF9168
:1017F000DF910895DF93CF93CDB7DEB727970FB66C
:10180000F894DEBF0FBECDBF8A836B835D834C83AC
:1018100019828C819D81009709F478C08B81883072
:1018200008F074C08A81282F30E03F832E834E81D8
:101830005F814130510559F18E819F818230910540
:1018400034F42E813F812115310569F05CC04E8151
:101850005F814230510579F18E819F8183309105FE
:1018600009F43DC050C0E9E3F0E08081282F30E06A
:101870008B81882F90E0A90102C0559547958A95E4
:10188000E2F7CA018170EC81FD81808341C0E6E30B
:10189000F0E08081282F30E08B81882F90E0A90133
:1018A00002C0559547958A95E2F7CA018170EC818F
:1018B000FD8180832DC0E3E3F0E08081282F30E0BC
:1018C0008B81882F90E0A90102C0559547958A9594
:1018D000E2F7CA018170EC81FD81808319C0E0E3E9
:1018E000F0E08081282F30E08B81882F90E0A901E3
:1018F00002C0559547958A95E2F7CA018170EC813F
:10190000FD81808305C081E0898302C081E08983F5
:10191000898127960FB6F894DEBF0FBECDBFCF9159
:10192000DF9108951F920F920FB60F9211242F93FB
:101930003F934F935F936F937F938F939F93AF9357
:10194000BF93EF93FF93DF93CF93CDB7DEB7E091D3
:10195000D800F091D9000995CF91DF91FF91EF91D7
:10196000BF91AF919F918F917F916F915F914F91B7
:101970003F912F910F900FBE0F901F9018951F92BF
:101980000F920FB60F9211242F933F934F935F93B3
:101990006F937F938F939F93AF93BF93EF93FF9337
:1019A000DF93CF93CDB7DEB7E091DA00F091DB00A3
:1019B0000995CF91DF91FF91EF91BF91AF919F91E9
:1019C0008F917F916F915F914F913F912F910F90E8
:1019D0000FBE0F901F9018951F920F920FB60F9287
:1019E00011242F933F934F935F936F937F938F9324
:1019F0009F93AF93BF93EF93FF93DF93CF93CDB7B5
:101A0000DEB7E091DC00F091DD000995CF91DF9128
:101A1000FF91EF91BF91AF919F918F917F916F91C6
:101A20005F914F913F912F910F900FBE0F901F909C
:101A30001895DF93CF9300D000D0CDB7DEB78A835F
:101A40001982ABE5B0E0EBE5F0E0808180648C9337
:101A50008A81282F30E03C832B838B819C810097E7
:101A600031F02B813C812130310581F01EC0A5E58C
:101A7000B0E0E5E5F0E0808182608C93A5E5B0E020
:101A8000E5E5F0E080818E7F8C9311C0A5E5B0E0A4
:101A9000E5E5F0E0808181608C93A5E5B0E0E5E5C7
:101AA000F0E0808182608C9302C081E0898389812B
:101AB0000F900F900F900F90CF91DF910895DF93CB
:101AC000CF9300D0CDB7DEB79A83898389819A817D
:101AD0009093D9008093D8000F900F90CF91DF9111
:101AE0000895DF93CF9300D000D0CDB7DEB78A83BF
:101AF00019828A81282F30E03C832B838B819C8143
:101B0000009731F02B813C812130310581F01EC0DE
:101B1000A5E5B0E0E5E5F0E0808182608C93A5E585
:101B2000B0E0E5E5F0E080818E7F8C9311C0A5E503
:101B3000B0E0E5E5F0E0808181608C93A5E5B0E060
:101B4000E5E5F0E0808182608C9302C081E08983CA
:101B500089810F900F900F900F90CF91DF91089592
:101B6000DF93CF9300D0CDB7DEB78A8319828A8105
:101B70008630C0F08A818730A8F4ABE5B0E0EBE5B1
:101B8000F0E08081482F8A81282F30E081E090E0CA
:101B9000022E02C0880F991F0A94E2F780958423D1
:101BA0008C9302C081E0898389810F900F90CF913F
:101BB000DF910895DF93CF9300D0CDB7DEB78A834E
:101BC00019828A818630B8F08A818730A0F4ABE52B
:101BD000B0E0EBE5F0E08081482F8A81282F30E0EB
:101BE00081E090E0022E02C0880F991F0A94E2F76C
:101BF000842B8C9302C081E0898389810F900F90A0
:101C0000CF91DF910895DF93CF9300D000D0CDB76F
:101C1000DEB78A831982ABE5B0E0EBE5F0E08081C6
:101C200080688C938A81282F30E03C832B838B81C2
:101C30009C81009731F02B813C812130310581F06E
:101C40001EC0A5E5B0E0E5E5F0E0808188608C93FA
:101C5000A5E5B0E0E5E5F0E080818B7F8C9311C0D5
:101C6000A5E5B0E0E5E5F0E0808184608C93A5E532
:101C7000B0E0E5E5F0E0808188608C9302C081E00F
:101C8000898389810F900F900F900F90CF91DF91F2
:101C90000895DF93CF9300D0CDB7DEB79A838983C1
:101CA00089819A819093DB008093DA000F900F90E6
:101CB000CF91DF910895DF93CF9300D000D0CDB7BF
:101CC000DEB78A831982ABE5B0E0EBE5F0E0808116
:101CD00080628C938A81282F30E03C832B838B8118
:101CE0009C81009731F02B813C812130310549F0F6
:101CF00010C0A4E5B0E0E4E5F0E080818F7B8C9338
:101D00000AC0A4E5B0E0E4E5F0E0808180648C9353
:101D100002C081E0898389810F900F900F900F900E
:101D2000CF91DF910895DF93CF9300D0CDB7DEB789
:101D30009A83898389819A819093DD008093DC0066
:101D40000F900F90CF91DF910895DF93CF93CDB790
:101D5000DEB7AFE5B0E0EFE5F0E0808180688C931E
:101D6000CF91DF910895DF93CF93CDB7DEB7AFE585
:101D7000B0E0EFE5F0E080818F778C93CF91DF9139
:101D80000895DF93CF9300D000D00F92CDB7DEB788
:101D90008FEF8B831A825EC08A81882F90E0FC01CE
:101DA000ED53FF4F908183E0692F40E00E94A00A2D
:101DB00019823DC08981882F90E0FC01E154FF4FDA
:101DC00090819E012C5F3F4F83E0692FA9010E9403
:101DD000FA0B8C81882341F58981482F50E08A8154
:101DE000282F30E0CA01880F991F880F991F820F92
:101DF000931FFC01E953FF4F80818B830FC08981C2
:101E0000882F90E0FC01E154FF4F90819E012C5FF0
:101E10003F4F83E0692FA9010E94FA0B8C81882330
:101E200071F38B818D831CC089818F5F8983898148
:101E3000843008F4BFCF8A81882F90E0FC01ED53F5
:101E4000FF4F908183E0692F41E00E94A00A8A81C0
:101E50008F5F8A838A81843008F49ECF8B818D8343
:101E60008D810F900F900F900F900F90CF91DF9179
:101E70000895DF93CF93CDB7DEB728970FB6F894C8
:101E8000DEBF0FBECDBF0E94230988E36CE00E9435
:101E9000DF060E94D2108BE290E10E94071180E0E1
:101EA0000E945B0E88EB90E10E94930E0E94A50EAB
:101EB0008FEF8D8381E00E94A30580E690E00E9471
:101EC000CA070E94C10E888788858F3FD1F3888515
:101ED0008B3081F781E00E94A3058DE790E00E949E
:101EE000CA070E94C10E8F838F818F3FD1F381E09B
:101EF00067E00E94FA078F81882F90E0A0E0B0E0B1
:101F0000BC01CD010E9458080E94C10E8E838E81B3
:101F10008F3FD1F381E068E00E94FA078E81882F1D
:101F200090E0A0E0B0E0BC01CD010E9458080E9402
:101F3000C10E888788858F3FD1F388858B3009F063
:101F40004EC081E00E94A30580E060E00E94FA0795
:101F500086E990E00E94CA078F81882F90E09C015B
:101F6000220F331FC901880F991F880F991F280F4F
:101F7000391F8E81882F90E0280F391F8CE390E065
:101F8000AC01249FC001259F900D349F900D11241A
:101F9000AA2797FDA095BA2F89839A83AB83BC8328
:101FA00089819A81AB81BC818093DE009093DF00B0
:101FB000A093E000B093E10081E08093E2000FC0C5
:101FC00082E065E041E00E94A00A82E066E041E034
:101FD0000E94A00A82E067E041E00E94A00A80918E
:101FE000DE009091DF00A091E000B091E100009749
:101FF000A105B10529F78091DE009091DF00A09145
:10200000E000B091E1000097A105B10509F052CFC1
:102010001092E20082E065E040E00E94A00A82E0C7
:1020200066E040E00E94A00A82E067E040E00E9493
:10203000A00A81E00E94A3058EEA90E00E94CA07F0
:1020400006C00E94C10E8D838D818F3FD1F38D819B
:102050008F3FB9F32FCFDF93CF93CDB7DEB780910A
:10206000E3009091E40001969093E4008093E300F4
:102070008091E200882329F41092E4001092E3009A
:1020800074C08091E3009091E40023E0883E9207C1
:1020900009F06BC08091E200813009F066C0809148
:1020A000DE009091DF00A091E000B091E100019787
:1020B000A109B1098093DE009093DF00A093E000B6
:1020C000B093E10081E067E00E94FA078091DE00B2
:1020D0009091DF00A091E000B091E100BC01CD0142
:1020E0000E9458088091DE009091DF00A091E000EE
:1020F000B091E100873E23E0920720E0A20720E0B4
:10210000B20739F481E06AE00E94FA0780E20E9497
:1021100041068091DE009091DF00A091E000B09137
:10212000E10083369105A105B10539F481E069E04C
:102130000E94FA0780E20E9441068091DE009091A1
:10214000DF00A091E000B091E10089309105A10588
:10215000B10539F481E068E00E94FA0780E20E944C
:1021600041061092E4001092E300CF91DF910895B0
:10217000DF93CF93CDB7DEB782E065E040E00E9409
:10218000A00A8091E200813051F41092DE0010929A
:10219000DF001092E0001092E1001092E200CF9177
:1021A000DF910895DF93CF93CDB7DEB7A3E5B0E01D
:1021B000E3E5F0E080818F7B8C93A3E5B0E0E3E57D
:1021C000F0E0808188608C93A9E5B0E0E9E5F0E07B
:1021D000808182608C93ECE5F0E08AEF8083A3E558
:1021E000B0E0E3E5F0E080818E7F8C93A3E5B0E082
:1021F000E3E5F0E0808182608C93A3E5B0E0E3E565
:10220000F0E080818B7F8C93CF91DF910895DF93F5
:10221000CF9300D00F92CDB7DEB79B838A8319820C
:102220008A819B81009739F08A819B819093E60097
:102230008093E50002C082E0898389810F900F902E
:102240000F90CF91DF9108951F920F920FB60F92CA
:1022500011242F933F934F935F936F937F938F93AB
:102260009F93AF93BF93EF93FF93DF93CF93CDB73C
:10227000DEB78091E5009091E600009729F0E091AB
:10228000E500F091E6000995CF91DF91FF91EF9184
:10229000BF91AF919F918F917F916F915F914F917E
:1022A0003F912F910F900FBE0F901F901895A1E2B4
:1022B0001A2EAA1BBB1BFD010DC0AA1FBB1FEE1FC0
:1022C000FF1FA217B307E407F50720F0A21BB30B0B
:1022D000E40BF50B661F771F881F991F1A9469F787
:1022E00060957095809590959B01AC01BD01CF01E3
:1022F00008952F923F924F925F926F927F928F92AA
:102300009F92AF92BF92CF92DF92EF92FF920F9384
:102310001F93CF93DF93CDB7DEB7CA1BDB0B0FB68E
:10232000F894DEBF0FBECDBF09942A88398848884B
:102330005F846E847D848C849B84AA84B984C884E1
:10234000DF80EE80FD800C811B81AA81B981CE0FD8
:10235000D11D0FB6F894DEBF0FBECDBFED010895BD
:04236000F894FFCF1F
:10236400546F20536574205468652054696D6572F8
:1023740020507265737320456E74657200456E74E7
:102384006572205468652054696D652020696E204B
:102394004D696E3A200052656D61696E696E672001
:1023A40054696D652020696E207365633A00546931
:1023B4006D65206F757400000000000000000004CB
:1023C40005060700010203010203040506070809C4
:0823D400000B0C0D0E0F0000C0
:00000001FF
