:100000000C942A000C9447000C9447000C94470071
:100010000C9447000C9447000C9447000C94470044
:100020000C9447000C9447000C9447000C94470034
:100030000C9447000C9447000C9447000C94470024
:100040000C9447000C9447000C9447000C94470014
:100050000C94470011241FBECFE5D8E0DEBFCDBF12
:1000600010E0A0E6B0E0E6E1F0E402C005900D92F9
:10007000A43AB107D9F710E0A4EAB0E001C01D929C
:10008000A13BB107E1F70E94070D0C9409200C94E5
:100090000000EF92FF920F931F937B018C0120E0F1
:1000A00030E040E05FE40E94490388238CF0C801FF
:1000B000B70120E030E040E05FE40E94C1010E940F
:1000C000A9039B01AC01205030404040504806C07D
:1000D000C801B7010E94A9039B01AC01B901CA0183
:1000E0001F910F91FF90EF900895A0E0B0E0EBE733
:1000F000F0E00C94D21FDC012B01FA019C919230AC
:1001000008F439C1EB018881823008F433C194309E
:1001100069F4843009F02FC111969C91119789815F
:10012000981709F428C1AAE6B0E025C1843009F483
:1001300021C18230A9F4923009F01DC19A01AD01AC
:1001400088E0EA010990AE01E90109929E0181501F
:10015000C1F7E201898111969C918923818308C1AD
:10016000923009F407C112962D903C901397EB0141
:100170008A819B811496AD90BD90CD90DC901797AD
:10018000EC80FD800E811F819101281B390BB90184
:1001900037FF04C066277727621B730B6032710537
:1001A0000CF061C0121613066CF537014801062EDB
:1001B00004C096948794779467940A94D2F721E0C8
:1001C00030E040E050E004C0220F331F441F551FB1
:1001D0006A95D2F721503040404050402E213F21B7
:1001E00040235123211531054105510521F021E01E
:1001F00030E040E050E079018A01E628F72808293C
:1002000019293CC0232BD1F1260E371E350146019A
:10021000062E04C096948794779467940A94D2F734
:1002200021E030E040E050E004C0220F331F441FC3
:10023000551F6A95D2F721503040404050402A2146
:100240003B214C215D21211531054105510521F04E
:1002500021E030E040E050E059016A01A628B728CB
:10026000C828D9280BC0821593052CF01C01AA249C
:10027000BB24650103C0EE24FF24870111969C91E5
:10028000D20111968C91981709F445C0992339F041
:10029000A80197012A193B094C095D0906C0A6016E
:1002A00095012E193F09400B510B57FD08C01182D3
:1002B0003382228224833583468357831DC081E0A5
:1002C00081833382228288279927DC01821B930B4A
:1002D000A40BB50B84839583A683B7830DC0220F2F
:1002E000331F441F551F24833583468357838281E0
:1002F000938101979383828324813581468157813D
:10030000DA01C9010197A109B1098F5F9F4FAF4F72
:10031000BF4328F30BC0918333822282EA0CFB1C7B
:100320000C1D1D1DE482F5820683178383E0808304
:10033000248135814681578157FF1AC0C901AA27F8
:1003400097FDA095BA2F81709070A070B0705695EF
:10035000479537952795822B932BA42BB52B848318
:100360009583A683B7838281938101969383828349
:10037000DF0101C0D201CD01CDB7DEB7E2E10C94BF
:10038000EE1FA0E2B0E0E7ECF1E00C94DE1F698321
:100390007A838B839C832D833E834F835887E9E048
:1003A000EE2EF12CEC0EFD1ECE010196B7010E943F
:1003B000D2048E010F5E1F4FCE010596B8010E9438
:1003C000D2048A8991E089278A8BC701B801AE01DE
:1003D000475E5F4F0E9475000E94FD03A096E6E015
:1003E0000C94FA1FA0E2B0E0E8EFF1E00C94DE1FFD
:1003F00069837A838B839C832D833E834F835887C5
:10040000F9E0EF2EF12CEC0EFD1ECE010196B701A6
:100410000E94D2048E010F5E1F4FCE010596B801D7
:100420000E94D204C701B801AE01475E5F4F0E942F
:1004300075000E94FD03A096E6E00C94FA1FA0E26E
:10044000B0E0E5E2F2E00C94D21F69837A838B83FB
:100450009C832D833E834F835887CE010196BE0136
:10046000675F7F4F0E94D204CE010596BE016F5E8A
:100470007F4F0E94D2049985923088F0898982301A
:10048000C8F0943019F4823051F404C0843029F457
:10049000923081F48AE690E0C6C0923049F420E0C0
:1004A0009A858A89981321E02A87CE010996BBC0D4
:1004B000823049F420E09A858A89981321E02A8BBA
:1004C000CE014196B0C02D843E844F8458886D88FB
:1004D0007E888F88988CEE24FF248701AA24BB2471
:1004E000650140E050E060E070E0E0E0F0E0C10174
:1004F00081709070892BE9F0E60CF71C081D191D1E
:100500009A01AB012A0D3B1D4C1D5D1D80E090E062
:10051000A0E0B0E0E614F7040805190520F481E036
:1005200090E0A0E0B0E0BA01A901480F591F6A1F8E
:100530007B1FAA0CBB1CCC1CDD1C97FE08C081E0F5
:1005400090E0A0E0B0E0A82AB92ACA2ADB2A3196B6
:10055000E032F10549F0660C771C881C991C569412
:10056000479437942794C3CFFA85EA892B893C892D
:100570008B859C85280F391F2E5F3F4F17C0CA01FE
:1005800081709070892B61F016950795F794E79428
:1005900080E090E0A0E0B0E8E82AF92A0A2B1B2BC3
:1005A00076956795579547952F5F3F4F77FDE7CF36
:1005B0000CC0440F551F661F771F17FD4160EE0CDE
:1005C000FF1C001F111F21503040403090E05907A0
:1005D00090E0690790E4790760F32B8F3C8FDB0193
:1005E000CA018F779070A070B07080349105A1051A
:1005F000B10561F447FD0AC0E114F10401051105DC
:1006000029F0405C5F4F6F4F7F4F40781A8EFE1786
:1006100011F081E08A8F4D8F5E8F6F8F78A383E01A
:10062000898FCE0149960E94FD03A096E2E10C94C9
:10063000EE1FA8E1B0E0EFE1F3E00C94DE1F698368
:100640007A838B839C832D833E834F83588789E0F5
:10065000E82EF12CEC0EFD1ECE010196B7010E9492
:10066000D2048E010F5E1F4FCE010596B8010E9485
:10067000D2048985823040F08989823028F0C70110
:10068000B8010E944A0501C08FEF6896E6E00C941D
:10069000FA1FA8E1B0E0EFE4F3E00C94DE1F6983F9
:1006A0007A838B839C832D833E834F83588789E095
:1006B000E82EF12CEC0EFD1ECE010196B7010E9432
:1006C000D2048E010F5E1F4FCE010596B8010E9425
:1006D000D2048985823040F08989823028F0C701B0
:1006E000B8010E944A0501C08FEF6896E6E00C94BD
:1006F000FA1FA8E1B0E0EFE7F3E00C94DE1F698396
:100700007A838B839C832D833E834F83588789E034
:10071000E82EF12CEC0EFD1ECE010196B7010E94D1
:10072000D2048E010F5E1F4FCE010596B8010E94C4
:10073000D2048985823040F08989823028F0C7014F
:10074000B8010E944A0501C081E06896E6E00C9479
:10075000FA1FACE0B0E0EFEAF3E00C94E21F69832B
:100760007A838B839C83CE010196BE016B5F7F4FA2
:100770000E94D2048D81823061F1823050F1843048
:1007800021F48E81882351F12EC02F81388537FDC9
:1007900020C06E812F3131051CF06623F9F023C093
:1007A0008EE190E0821B930B29853A854B855C8511
:1007B00004C056954795379527958A95D2F76623B5
:1007C000B1F050954095309521953F4F4F4F5F4F79
:1007D0000EC020E030E040E050E009C02FEF3FEFD6
:1007E0004FEF5FE704C020E030E040E050E8B9019F
:1007F000CA012C96E2E00C94FE1FDF92EF92FF926A
:100800000F931F93FC01E480F58006811781D1804E
:100810008081823048F480E090E0A0E1B0E0E82AF6
:10082000F92A0A2B1B2BA5C0843009F49FC0823003
:1008300021F4EE24FF24870105C0E114F104010531
:10084000110519F4E0E0F0E096C0628173819FEF3A
:10085000623879070CF05BC022E83FEF261B370BAC
:100860002A3131052CF020E030E040E050E02AC091
:10087000B801A701022E04C0769567955795479554
:100880000A94D2F781E090E0A0E0B0E004C0880FC5
:10089000991FAA1FBB1F2A95D2F70197A109B10979
:1008A0008E219F21A023B1230097A105B10521F03E
:1008B00081E090E0A0E0B0E09A01AB01282B392B59
:1008C0004A2B5B2BDA01C9018F779070A070B07052
:1008D00080349105A105B10539F427FF09C0205CDA
:1008E0003F4F4F4F5F4F04C0215C3F4F4F4F5F4F13
:1008F000E0E0F0E02030A0E03A07A0E04A07A0E402
:100900005A0710F0E1E0F0E079018A0127C0603871
:10091000710564F5FB01E158FF4FD801C7018F77DE
:100920009070A070B07080349105A105B10539F4C4
:10093000E7FE0DC080E490E0A0E0B0E004C08FE3EB
:1009400090E0A0E0B0E0E80EF91E0A1F1B1F17FFA1
:1009500005C016950795F794E794319687E01695AC
:100960000795F794E7948A95D1F705C0EE24FF2404
:100970008701EFEFF0E06E2F679566276795902F60
:100980009F77D794DD24D7948E2F8695492F462BB9
:10099000582F5D29B701CA011F910F91FF90EF9069
:1009A000DF900895FC01DB01408151812281622F9B
:1009B0006F7770E0221F2227221F9381892F880FD3
:1009C000822B282F30E0991F9927991F11969C930D
:1009D000119721153105A9F54115510561057105DD
:1009E00011F482E037C082E89FEF13969C938E93B8
:1009F00012979A01AB0167E0220F331F441F551F66
:100A00006A95D1F783E08C930DC0220F331F441FEA
:100A1000551F12968D919C911397019713969C9355
:100A20008E931297203080E0380780E0480780E4FA
:100A3000580758F314962D933D934D935C93179755
:100A400008952F3F310579F4411551056105710570
:100A500019F484E08C93089564FF03C081E08C93C3
:100A600012C01C9210C02F57304013963C932E9307
:100A7000129783E08C9387E0440F551F661F771F02
:100A80008A95D1F7706414964D935D936D937C9322
:100A9000179708951F93DC01FB019C91923008F495
:100AA00047C08081823008F443C0943051F41196DD
:100AB0001C91843099F58181682F70E0611B710968
:100AC0003FC0843021F0923031F48230B9F181811D
:100AD000882389F12DC011961C9111978230F1F075
:100AE00081811817D9F412962D913C911397828128
:100AF00093818217930794F028173907BCF0149656
:100B00008D919D910D90BC91A02D248135814681C0
:100B10005781281739074A075B0718F4112341F05A
:100B20000AC082179307A407B50740F4112319F0F0
:100B300061E070E005C06FEF7FEF02C060E070E041
:100B4000CB011F910895DF93CF93CDB7DEB72F97D9
:100B50000FB6F894DEBF0FBECDBF8F8782E060E096
:100B600040E00E949D0A82E061E040E00E949D0A10
:100B700080E06F850E94AF0B82E062E041E00E945E
:100B80009D0A80E090E0A0E0B0E48B879C87AD8771
:100B9000BE876B857C858D859E8520E030E04AEFA1
:100BA00054E40E941F02DC01CB018F839887A98740
:100BB000BA876F81788589859A8520E030E040E8A2
:100BC0005FE30E94790388232CF481E090E09E8308
:100BD0008D833FC06F81788589859A8520E03FEFBE
:100BE0004FE757E40E94190318164CF56B857C8576
:100BF0008D859E8520E030E040E251E40E941F0296
:100C0000DC01CB01BC01CD010E944900DC01CB011C
:100C10009E838D830FC088EC90E09C838B838B81B7
:100C20009C810197F1F79C838B838D819E81019735
:100C30009E838D838D819E81009769F714C06F819B
:100C4000788589859A850E944900DC01CB019E83C5
:100C50008D838D819E819A83898389819A81019771
:100C6000F1F79A83898382E062E040E00E949D0A66
:100C70002F960FB6F894DEBF0FBECDBFCF91DF9198
:100C80000895DF93CF93CDB7DEB72F970FB6F894C3
:100C9000DEBF0FBECDBF8F8782E060E041E00E94E3
:100CA0009D0A82E061E040E00E949D0A80E06F853D
:100CB0000E94AF0B82E062E041E00E949D0A80E06A
:100CC00090E0A0E0B0E48B879C87AD87BE876B8502
:100CD0007C858D859E8520E030E04AEF54E40E94BB
:100CE0001F02DC01CB018F839887A987BA876F81A8
:100CF000788589859A8520E030E040E85FE30E94AE
:100D0000790388232CF481E090E09E838D833FC09B
:100D10006F81788589859A8520E03FEF4FE757E41A
:100D20000E94190318164CF56B857C858D859E8570
:100D300020E030E040E251E40E941F02DC01CB01E0
:100D4000BC01CD010E944900DC01CB019E838D8353
:100D50000FC088EC90E09C838B838B819C810197F2
:100D6000F1F79C838B838D819E8101979E838D8378
:100D70008D819E81009769F714C06F817885898580
:100D80009A850E944900DC01CB019E838D838D8171
:100D90009E819A83898389819A810197F1F79A8349
:100DA000898382E062E040E00E949D0A2F960FB6A0
:100DB000F894DEBF0FBECDBFCF91DF910895DF93D2
:100DC000CF93CDB7DEB764970FB6F894DEBF0FBEF2
:100DD000CDBF8F87688B80E06FEF0E94550A82E05D
:100DE00060E041E00E94430982E061E041E00E944E
:100DF000430982E062E041E00E94430980E090E024
:100E0000A0E2B2E48B879C87AD87BE876B857C852B
:100E10008D859E8520E030E04AEF54E40E941F0259
:100E2000DC01CB018F839887A987BA876F8178858A
:100E300089859A8520E030E040E85FE30E947903ED
:100E400088232CF481E090E09E838D833FC06F81E6
:100E5000788589859A8520E03FEF4FE757E40E9427
:100E6000190318164CF56B857C858D859E8520E0D1
:100E700030E040E251E40E941F02DC01CB01BC01E2
:100E8000CD010E944900DC01CB019E838D830FC000
:100E900088EC90E09C838B838B819C810197F1F798
:100EA0009C838B838D819E8101979E838D838D8111
:100EB0009E81009769F714C06F81788589859A852E
:100EC0000E944900DC01CB019E838D838D819E8130
:100ED0009A83898389819A810197F1F79A8389831B
:100EE0008F85282F30E03C8B2B8B8B899C8984331A
:100EF000910511F12B893C892533310534F48B8917
:100F00009C8980339105A1F01AC02B893C89283334
:100F1000310531F08B899C898C33910529F00FC004
:100F200088E30E94A3050BC08CE30E94A30507C0C1
:100F300084E30E94A30503C084E30E94A30588897B
:100F4000282F30E03A8B298B89899A898E30910538
:100F500071F029893A892F30310569F089899A8998
:100F60008C30910559F48CE00E94A30507C08EE0F7
:100F70000E94A30503C08FE00E94A30581E00E94A8
:100F8000A30564960FB6F894DEBF0FBECDBFCF9118
:100F9000DF910895DF93CF9300D00F92CDB7DEB7E6
:100FA0009B838A83198215C08981282F30E08A812A
:100FB0009B81FC01E20FF31F80810E944106898121
:100FC0008F5F89838981803121F481E060E00E9414
:100FD000FA078981282F30E08A819B81FC01E20F8A
:100FE000F31F8081882301F70F900F900F90CF910E
:100FF000DF910895DF93CF9300D00F92CDB7DEB786
:101000008A836B838A81882319F48B81898306C044
:101010008A81813019F48B81805C89838981805831
:101020000E94A3050F900F900F90CF91DF9108952C
:10103000DF93CF93CDB7DEB727970FB6F894DEBF17
:101040000FBECDBF9C838B836D834E832F838D8199
:10105000882F90E0880F991F880F991F880F991F7C
:1010600089838981805C0E94A3051A820EC08A81CF
:10107000282F30E08B819C81FC01E20FF31F8081DF
:101080000E9441068A818F5F8A838A81883078F343
:101090008E816F810E94FA078D810E9441062796FA
:1010A0000FB6F894DEBF0FBECDBFCF91DF9108958C
:1010B0000F931F93DF93CF93CDB7DEB76B970FB628
:1010C000F894DEBF0FBECDBF6C8B7D8B8E8B9F8B5C
:1010D00080E1FE013496DF01282F1D922A95E9F761
:1010E00080E38C8319828C899D89AE89BF890097A2
:1010F000A105B10591F580E30E94410699C089815F
:10110000082F10E08C899D89AE89BF892AE030E0E4
:1011100040E050E0BC01CD010E94B01FDC01CB01DA
:10112000282F205DCE010496FC01E00FF11F2083E3
:101130008C899D89AE89BF892AE030E040E050E08B
:10114000BC01CD010E94B01FDA01C9018C8B9D8BBF
:10115000AE8BBF8B89818F5F89838C899D89AE8996
:10116000BF890097A105B10551F68981282F30E08C
:10117000CE010496FC01E20FF31F10828981815099
:1011800089831B8233C08B81282F30E0CE010496E7
:10119000FC01E20FF31F80818A838B81482F50E08E
:1011A0008981282F30E08B81882F90E0281B390B14
:1011B000CE010496FC01E20FF31F2081CE010496BC
:1011C000FC01E40FF51F20838981282F30E08B81FB
:1011D000882F90E0281B390BCE010496FC01E20F0A
:1011E000F31F8A8180838B818F5F8B838B81A82FF4
:1011F000B0E0B98FA88F8981882F90E001969B8FEE
:101200008A8F2A8D3B8D33232CF48A8D9B8D0196FA
:101210009B8F8A8F8A8D9B8D95958795A88DB98D8B
:10122000A817B9070CF4AFCFCE0104960E94CA07E5
:101230006B960FB6F894DEBF0FBECDBFCF91DF9196
:101240001F910F910895DF93CF93CDB7DEB7EAE3F7
:10125000F0E01082E7E3F0E01082E4E3F0E01082D7
:10126000E1E3F0E01082EBE3F0E01082E8E3F0E08D
:101270001082E5E3F0E01082E2E3F0E087E08083B3
:10128000CF91DF910895DF93CF93CDB7DEB7289745
:101290000FB6F894DEBF0FBECDBF8A836B834C833D
:1012A00019828B81883008F0F4C08C81882309F082
:1012B00077C08A81282F30E038872F838F819885E7
:1012C0008130910559F12F813885223031052CF478
:1012D0008F819885009769F060C02F813885223012
:1012E000310589F18F8198858330910509F440C0DB
:1012F00054C0AAE3B0E0EAE3F0E08081482F8B819C
:10130000282F30E081E090E0022E02C0880F991F64
:101310000A94E2F7809584238C93BDC0A7E3B0E0E4
:10132000E7E3F0E08081482F8B81282F30E081E0D7
:1013300090E0022E02C0880F991F0A94E2F7809570
:1013400084238C93A8C0A4E3B0E0E4E3F0E08081C0
:10135000482F8B81282F30E081E090E0022E02C0E0
:10136000880F991F0A94E2F7809584238C9393C089
:10137000A1E3B0E0E1E3F0E08081482F8B81282FEA
:1013800030E081E090E0022E02C0880F991F0A949D
:10139000E2F7809584238C937EC081E089837BC0B3
:1013A0008C81813009F072C08A81282F30E03E8321
:1013B0002D838D819E818130910549F12D813E8162
:1013C000223031052CF48D819E81009761F05BC045
:1013D0002D813E812230310571F18D819E818330D6
:1013E0009105E9F150C0AAE3B0E0EAE3F0E08081C2
:1013F000482F8B81282F30E081E090E0022E02C040
:10140000880F991F0A94E2F7842B8C9344C0A7E3BA
:10141000B0E0E7E3F0E08081482F8B81282F30E0B7
:1014200081E090E0022E02C0880F991F0A94E2F733
:10143000842B8C9330C0A4E3B0E0E4E3F0E080813F
:10144000482F8B81282F30E081E090E0022E02C0EF
:10145000880F991F0A94E2F7842B8C931CC0A1E398
:10146000B0E0E1E3F0E08081482F8B81282F30E06D
:1014700081E090E0022E02C0880F991F0A94E2F7E3
:10148000842B8C9308C081E0898305C081E0898327
:1014900002C081E08983898128960FB6F894DEBF67
:1014A0000FBECDBFCF91DF910895DF93CF9300D0D2
:1014B00000D00F92CDB7DEB78A836B8319828A8101
:1014C000282F30E03D832C838C819D8181309105D4
:1014D000D1F02C813D81223031052CF48C819D810D
:1014E000009761F01FC02C813D812230310581F0D1
:1014F0008C819D818330910581F014C0EAE3F0E096
:101500008B81808311C0E7E3F0E08B8180830CC086
:10151000E4E3F0E08B81808307C0E1E3F0E08B81BE
:10152000808302C081E0898389810F900F900F90A2
:101530000F900F90CF91DF910895DF93CF93CDB7A8
:10154000DEB728970FB6F894DEBF0FBECDBF8A83F3
:101550006B834C8319828B81883008F0F4C08C81B6
:10156000882309F077C08A81282F30E038872F83BD
:101570008F8198858130910559F12F8138852230EE
:1015800031052CF48F819885009769F060C02F8118
:1015900038852230310589F18F8198858330910516
:1015A00009F440C054C0ABE3B0E0EBE3F0E080816D
:1015B000482F8B81282F30E081E090E0022E02C07E
:1015C000880F991F0A94E2F7809584238C93BDC0FD
:1015D000A8E3B0E0E8E3F0E08081482F8B81282F7A
:1015E00030E081E090E0022E02C0880F991F0A943B
:1015F000E2F7809584238C93A8C0A5E3B0E0E5E3EF
:10160000F0E08081482F8B81282F30E081E090E04E
:10161000022E02C0880F991F0A94E2F78095842356
:101620008C9393C0A2E3B0E0E2E3F0E08081482F26
:101630008B81282F30E081E090E0022E02C0880FDD
:10164000991F0A94E2F7809584238C937EC081E0F1
:1016500089837BC08C81813009F072C08A81282FF8
:1016600030E03E832D838D819E818130910549F14B
:101670002D813E81223031052CF48D819E81009791
:1016800061F05BC02D813E812230310571F18D8189
:101690009E8183309105E9F150C0ABE3B0E0EBE30C
:1016A000F0E08081482F8B81282F30E081E090E0AE
:1016B000022E02C0880F991F0A94E2F7842B8C93A4
:1016C00044C0A8E3B0E0E8E3F0E08081482F8B81DC
:1016D000282F30E081E090E0022E02C0880F991F91
:1016E0000A94E2F7842B8C9330C0A5E3B0E0E5E3E5
:1016F000F0E08081482F8B81282F30E081E090E05E
:10170000022E02C0880F991F0A94E2F7842B8C9353
:101710001CC0A2E3B0E0E2E3F0E08081482F8B81BF
:10172000282F30E081E090E0022E02C0880F991F40
:101730000A94E2F7842B8C9308C081E0898305C06A
:1017400081E0898302C081E08983898128960FB670
:10175000F894DEBF0FBECDBFCF91DF910895DF9328
:10176000CF9300D000D00F92CDB7DEB78A836B83C2
:1017700019828A81282F30E03D832C838C819D81C2
:1017800081309105D1F02C813D81223031052CF43E
:101790008C819D81009761F01FC02C813D8122309A
:1017A000310581F08C819D818330910581F014C0D9
:1017B000EBE3F0E08B81808311C0E8E3F0E08B8104
:1017C00080830CC0E5E3F0E08B81808307C0E2E317
:1017D000F0E08B81808302C081E0898389810F9052
:1017E0000F900F900F900F90CF91DF910895DF939E
:1017F000CF93CDB7DEB727970FB6F894DEBF0FBEF5
:10180000CDBF8A836B835D834C8319828C819D81DC
:10181000009709F478C08B81883008F074C08A8101
:10182000282F30E03F832E834E815F814130510568
:1018300059F18E819F818230910534F42E813F8150
:101840002115310569F05CC04E815F814230510540
:1018500079F18E819F818330910509F43DC050C09C
:10186000E9E3F0E08081282F30E08B81882F90E041
:10187000A90102C0559547958A95E2F7CA01817082
:10188000EC81FD81808341C0E6E3F0E08081282F78
:1018900030E08B81882F90E0A90102C055954795D3
:1018A0008A95E2F7CA018170EC81FD8180832DC0A9
:1018B000E3E3F0E08081282F30E08B81882F90E0F7
:1018C000A90102C0559547958A95E2F7CA01817032
:1018D000EC81FD81808319C0E0E3F0E08081282F56
:1018E00030E08B81882F90E0A90102C05595479583
:1018F0008A95E2F7CA018170EC81FD81808305C081
:1019000081E0898302C081E08983898127960FB6AF
:10191000F894DEBF0FBECDBFCF91DF910895DF9366
:10192000CF9300D000D00F92CDB7DEB78FEF8B836F
:101930001A825EC08A81882F90E0FC01EA58FF4F2E
:10194000908183E0692F40E00E949D0A19823DC08A
:101950008981882F90E0FC01EE58FF4F90819E0115
:101960002C5F3F4F83E0692FA9010E94F70B8C8108
:10197000882341F58981482F50E08A81282F30E063
:10198000CA01880F991F880F991F820F931FFC01AE
:10199000E658FF4F80818B830FC08981882F90E0AC
:1019A000FC01EE58FF4F90819E012C5F3F4F83E07A
:1019B000692FA9010E94F70B8C81882371F38B8119
:1019C0008D831CC089818F5F89838981843008F46D
:1019D000BFCF8A81882F90E0FC01EA58FF4F9081A9
:1019E00083E0692F41E00E949D0A8A818F5F8A838C
:1019F0008A81843008F49ECF8B818D838D810F90F6
:101A00000F900F900F900F90CF91DF9108950F934B
:101A10001F93DF93CF93CDB7DEB7C851D1400FB638
:101A2000F894DEBF0FBECDBF0E94230988E36CE0AF
:101A30000E94DF0680919A00882F90E0A0E0B0E03D
:101A4000BC01CD010E94580880919A00882F90E037
:101A5000A0E0B0E0BC01CD010E9458088AE30E94DA
:101A6000410680919A00882F90E0A0E0B0E0BC0190
:101A7000CD010E94580880919A00882F90E0A0E044
:101A8000B0E0BC01CD010E9458088AE30E944106E3
:101A900080919A00882F90E0A0E0B0E0BC01CD01D9
:101AA0000E94580880919A00882F90E0A0E0B0E052
:101AB000BC01CD010E9458080C94A41FFE01EB5EEE
:101AC000FE4F80E090E0AAE7B3E480839183A28395
:101AD000B3838E010F5E1E4FFE01EB5EFE4F6081F1
:101AE00071818281938120E030E04AEF54E40E94CA
:101AF0001F02DC01CB01F80180839183A283B383B1
:101B0000FE01EF5EFE4F608171818281938120E052
:101B100030E040E85FE30E947903882344F4FE014B
:101B2000E15FFE4F81E090E09183808364C0FE011D
:101B3000EF5EFE4F608171818281938120E03FEFF3
:101B40004FE757E40E94190318160CF043C0FE013A
:101B5000EB5EFE4F608171818281938120E030E0F5
:101B600040E251E40E941F02DC01CB018E01015FC3
:101B70001E4FBC01CD010E944900DC01CB01F801E0
:101B8000918380831FC0FE01E35FFE4F88EC90E0ED
:101B900091838083FE01E35FFE4F808191810197F5
:101BA000F1F7FE01E35FFE4F91838083DE01A15FC9
:101BB000BE4FFE01E15FFE4F80819181019711963A
:101BC0009C938E93FE01E15FFE4F8081918100978F
:101BD000D1F628C08E01015F1E4FFE01EF5EFE4F61
:101BE00060817181828193810E944900DC01CB0177
:101BF000F80191838083DE01A55FBE4FFE01E15FA6
:101C0000FE4F8081918111969C938E93FE01E55F3A
:101C1000FE4F808191810197F1F7FE01E55FFE4F54
:101C2000918380838091A8008F5F8093A80075C204
:101C30008091AA00992787FD9095FC01E656FF4FF9
:101C400080818093B000E0E3F0E080818695869506
:101C5000882F90E081709070009709F0B9C0FE0164
:101C6000E95FFE4F80E090E0A8E4B3E480839183D5
:101C7000A283B3838E010D5F1E4FFE01E95FFE4F0D
:101C8000608171818281938120E030E04AEF54E4E9
:101C90000E941F02DC01CB01F80180839183A283A3
:101CA000B383FE01ED5FFE4F60817181828193817C
:101CB00020E030E040E85FE30E947903882344F4A9
:101CC000FE01EF5FFE4F81E090E09183808364C06E
:101CD000FE01ED5FFE4F608171818281938120E082
:101CE0003FEF4FE757E40E94190318160CF043C06A
:101CF000FE01E95FFE4F608171818281938120E066
:101D000030E040E251E40E941F02DC01CB018E0171
:101D10000F5F1E4FBC01CD010E944900DC01CB01C9
:101D2000F801918380831FC0FE01E150FF4F88ECD2
:101D300090E091838083FE01E150FF4F808191818B
:101D40000197F1F7FE01E150FF4F91838083DE019F
:101D5000AF5FBE4FFE01EF5FFE4F80819181019723
:101D600011969C938E93FE01EF5FFE4F80819181CF
:101D70000097D1F628C08E010F5F1E4FFE01ED5F68
:101D8000FE4F60817181828193810E944900DC0154
:101D9000CB01F80191838083DE01A350BF4FFE0188
:101DA000EF5FFE4F8081918111969C938E93FE018F
:101DB000E350FF4F808191810197F1F7FE01E350DD
:101DC000FF4F918380838091AA008F5F8093AA0048
:101DD000E0E3F0E080818695882F90E0817090703C
:101DE000009709F0B9C0FE01E750FF4F80E090E096
:101DF000A8E4B3E480839183A283B3838E010B5064
:101E00001F4FFE01E750FF4F6081718182819381F6
:101E100020E030E04AEF54E40E941F02DC01CB01D5
:101E2000F80180839183A283B383FE01EB50FF4FBF
:101E3000608171818281938120E030E040E85FE33E
:101E40000E947903882344F4FE01ED50FF4F81E0A6
:101E500090E09183808364C0FE01EB50FF4F60816E
:101E600071818281938120E03FEF4FE757E40E9428
:101E7000190318160CF043C0FE01E750FF4F6081B4
:101E800071818281938120E030E040E251E40E9440
:101E90001F02DC01CB018E010D501F4FBC01CD0193
:101EA0000E944900DC01CB01F801918380831FC0AF
:101EB000FE01EF50FF4F88EC90E091838083FE019C
:101EC000EF50FF4F808191810197F1F7FE01EF50B4
:101ED000FF4F91838083DE01AD50BF4FFE01ED5077
:101EE000FF4F80819181019711969C938E93FE0103
:101EF000ED50FF4F808191810097D1F628C08E016F
:101F00000D501F4FFE01EB50FF4F608171818281A8
:101F100093810E944900DC01CB01F8019183808309
:101F2000DE01A151BF4FFE01ED50FF4F8081918135
:101F300011969C938E93FE01E151FF4F8081918118
:101F40000197F1F7FE01E151FF4F9183808380916A
:101F5000AA0081508093AA008091AA00882314F4DB
:101F60001092AA008091AA0083301CF082E0809336
:101F7000AA0080E060E00E94FA078091B0009927F3
:101F800087FD9095A92FB92FBC01CD010E9458085B
:101F900082E990E060E041E020E00E941808FE0144
:101FA000E551FF4F80E090E0A8ECB1E4808391839D
:101FB000A283B3838E0109511F4FFE01E551FF4FEC
:101FC000608171818281938120E030E04AEF54E4A6
:101FD0000E941F02DC01CB01F80180839183A28360
:101FE000B383FE01E951FF4F60817181828193814A
:101FF00020E030E040E85FE30E947903882344F466
:10200000FE01EB51FF4F81E090E09183808364C03B
:10201000FE01E951FF4F608171818281938120E04F
:102020003FEF4FE757E40E94190318160CF043C026
:10203000FE01E551FF4F608171818281938120E033
:1020400030E040E251E40E941F02DC01CB018E012E
:102050000B511F4FBC01CD010E944900DC01CB0197
:10206000F801918380831FC0FE01ED51FF4F88EC82
:1020700090E091838083FE01ED51FF4F808191813B
:102080000197F1F7FE01ED51FF4F91838083DE014F
:10209000AB51BF4FFE01EB51FF4F80819181019702
:1020A00011969C938E93FE01EB51FF4F808191819D
:1020B0000097D1F628C08E010B511F4FFE01E95148
:1020C000FF4F60817181828193810E944900DC0110
:1020D000CB01F80191838083DE01AF51BF4FFE0138
:1020E000EB51FF4F8081918111969C938E93FE015D
:1020F000EF51FF4F808191810197F1F7FE01EF5180
:10210000FF4F91838083E0E3F0E08081882F90E0AF
:1021100081709070009709F48DC28091A800813081
:1021200009F486CD87C28091A900992787FD9095F3
:10213000FC01E656FF4F80818093AF00E0E3F0E0C2
:10214000808186958695882F90E0817090700097A9
:1021500009F0B9C0FE01E352FF4F80E090E0A8E42F
:10216000B3E480839183A283B3838E0107521F4F10
:10217000FE01E352FF4F608171818281938120E0F3
:1021800030E04AEF54E40E941F02DC01CB01F80169
:1021900080839183A283B383FE01E752FF4F608166
:1021A00071818281938120E030E040E85FE30E940A
:1021B0007903882344F4FE01E952FF4F81E090E067
:1021C0009183808364C0FE01E752FF4F608171817B
:1021D0008281938120E03FEF4FE757E40E9419038B
:1021E00018160CF043C0FE01E352FF4F608171816D
:1021F0008281938120E030E040E251E40E941F029E
:10220000DC01CB018E0109521F4FBC01CD010E94A0
:102210004900DC01CB01F801918380831FC0FE01DE
:10222000EB52FF4F88EC90E091838083FE01EB52EC
:10223000FF4F808191810197F1F7FE01EB52FF4F33
:1022400091838083DE01A952BF4FFE01E952FF4F07
:1022500080819181019711969C938E93FE01E952A2
:10226000FF4F808191810097D1F628C08E010952DD
:102270001F4FFE01E752FF4F608171818281938180
:102280000E944900DC01CB01F80191838083DE01CB
:10229000AD52BF4FFE01E952FF4F808191811196EF
:1022A0009C938E93FE01ED52FF4F808191810197A7
:1022B000F1F7FE01ED52FF4F918380838091A900D9
:1022C0008F5F8093A900E0E3F0E080818695882FFE
:1022D00090E081709070009709F0B9C0FE01E15361
:1022E000FF4F80E090E0A8E4B3E480839183A28371
:1022F000B3838E0105531F4FFE01E153FF4F6081F1
:1023000071818281938120E030E04AEF54E40E94A1
:102310001F02DC01CB01F80180839183A283B38388
:10232000FE01E553FF4F608171818281938120E03E
:1023300030E040E85FE30E947903882344F4FE0123
:10234000E753FF4F81E090E09183808364C0FE01FA
:10235000E553FF4F608171818281938120E03FEFDF
:102360004FE757E40E94190318160CF043C0FE0112
:10237000E153FF4F608171818281938120E030E0E1
:1023800040E251E40E941F02DC01CB018E010753A1
:102390001F4FBC01CD010E944900DC01CB01F801B7
:1023A000918380831FC0FE01E953FF4F88EC90E0CA
:1023B00091838083FE01E953FF4F808191810197D2
:1023C000F1F7FE01E953FF4F91838083DE01A753AC
:1023D000BF4FFE01E753FF4F808191810197119616
:1023E0009C938E93FE01E753FF4F8081918100976C
:1023F000D1F628C08E0107531F4FFE01E553FF4F52
:1024000060817181828193810E944900DC01CB014E
:10241000F80191838083DE01AB53BF4FFE01E75388
:10242000FF4F8081918111969C938E93FE01EB5317
:10243000FF4F808191810197F1F7FE01EB53FF4F30
:10244000918380838091A90081508093A90080911D
:10245000A900882314F41092A9008091A9008A3061
:102460001CF089E08093A9008091AA00823039F4A1
:102470008091A90085301CF084E08093A90080E061
:1024800061E00E94FA078091AF00992787FD90953F
:10249000A92FB92FBC01CD010E94580881E060E04E
:1024A0000E94FA0780E20E94410682E990E060E023
:1024B00041E021E00E941808FE01EF53FF4F80E049
:1024C00090E0A8ECB1E480839183A283B3838E0172
:1024D00003541F4FFE01EF53FF4F608171818281D2
:1024E000938120E030E04AEF54E40E941F02DC01B7
:1024F000CB01F80180839183A283B383FE01E3546F
:10250000FF4F608171818281938120E030E040E85B
:102510005FE30E947903882344F4FE01E554FF4FF2
:1025200081E090E09183808364C0FE01E354FF4F1B
:10253000608171818281938120E03FEF4FE757E412
:102540000E94190318160CF043C0FE01EF53FF4F11
:10255000608171818281938120E030E040E251E42A
:102560000E941F02DC01CB018E0105541F4FBC01EC
:10257000CD010E944900DC01CB01F80191838083E9
:102580001FC0FE01E754FF4F88EC90E091838083E9
:10259000FE01E754FF4F808191810197F1F7FE0121
:1025A000E754FF4F91838083DE01A554BF4FFE01A6
:1025B000E554FF4F80819181019711969C938E93F2
:1025C000FE01E554FF4F808191810097D1F628C02C
:1025D0008E0105541F4FFE01E354FF4F608171814E
:1025E000828193810E944900DC01CB01F801918333
:1025F0008083DE01A954BF4FFE01E554FF4F808167
:10260000918111969C938E93FE01E954FF4F808136
:1026100091810197F1F7FE01E954FF4F9183808387
:10262000E0E3F0E08081882F90E081709070009767
:1026300009F486C28091A800823009F474CD80C26A
:102640008091A700992787FD9095FC01E656FF4FE2
:1026500080818093AE00E0E3F0E0808186958695EE
:10266000882F90E081709070009709F0B9C0FE014A
:10267000ED54FF4F80E090E0A8E4B3E480839183C1
:10268000A283B3838E0101551F4FFE01ED54FF4F0E
:10269000608171818281938120E030E04AEF54E4CF
:1026A0000E941F02DC01CB01F80180839183A28389
:1026B000B383FE01E155FF4F608171818281938177
:1026C00020E030E040E85FE30E947903882344F48F
:1026D000FE01E355FF4F81E090E09183808364C069
:1026E000FE01E155FF4F608171818281938120E07D
:1026F0003FEF4FE757E40E94190318160CF043C050
:10270000FE01ED54FF4F608171818281938120E051
:1027100030E040E251E40E941F02DC01CB018E0157
:1027200003551F4FBC01CD010E944900DC01CB01C4
:10273000F801918380831FC0FE01E555FF4F88ECAF
:1027400090E091838083FE01E555FF4F8081918168
:102750000197F1F7FE01E555FF4F91838083DE017C
:10276000A355BF4FFE01E355FF4F80819181019733
:1027700011969C938E93FE01E355FF4F80819181CA
:102780000097D1F628C08E0103551F4FFE01E15579
:10279000FF4F60817181828193810E944900DC0139
:1027A000CB01F80191838083DE01A755BF4FFE0165
:1027B000E355FF4F8081918111969C938E93FE018A
:1027C000E755FF4F808191810197F1F7FE01E755B1
:1027D000FF4F918380838091A7008F5F8093A70034
:1027E000E0E3F0E080818695882F90E08170907022
:1027F000009709F0B9C0FE01EB55FF4F80E090E073
:10280000A8E4B3E480839183A283B3838E010F5540
:102810001F4FFE01EB55FF4F6081718182819381D3
:1028200020E030E04AEF54E40E941F02DC01CB01BB
:10283000F80180839183A283B383FE01EF55FF4F9C
:10284000608171818281938120E030E040E85FE324
:102850000E947903882344F4FE01E156FF4F81E092
:1028600090E09183808364C0FE01EF55FF4F60814B
:1028700071818281938120E03FEF4FE757E40E940E
:10288000190318160CF043C0FE01EB55FF4F608191
:1028900071818281938120E030E040E251E40E9426
:1028A0001F02DC01CB018E0101561F4FBC01CD017F
:1028B0000E944900DC01CB01F801918380831FC095
:1028C000FE01E356FF4F88EC90E091838083FE0188
:1028D000E356FF4F808191810197F1F7FE01E356A6
:1028E000FF4F91838083DE01A156BF4FFE01E15669
:1028F000FF4F80819181019711969C938E93FE01E9
:10290000E156FF4F808191810097D1F628C08E015A
:1029100001561F4FFE01EF55FF4F6081718182818B
:1029200093810E944900DC01CB01F80191838083EF
:10293000DE01A556BF4FFE01E156FF4F8081918118
:1029400011969C938E93FE01E556FF4F80819181F5
:102950000197F1F7FE01E556FF4F91838083809147
:10296000A70081508093A7008091A70086301CF0BB
:1029700085E08093A7008091AA00823031F4809195
:10298000A900843011F41092A70080E063E00E9457
:10299000FA078091AE00992787FD9095A92FB92F4E
:1029A000BC01CD010E94580881E061E00E94FA0755
:1029B00080E20E94410682E990E060E041E023E08D
:1029C0000E941808FE01E956FF4F80E090E0A8EC55
:1029D000B1E480839183A283B3838E010D561F4F90
:1029E000FE01E956FF4F608171818281938120E071
:1029F00030E04AEF54E40E941F02DC01CB01F801F1
:102A000080839183A283B383FE01ED56FF4F6081E3
:102A100071818281938120E030E040E85FE30E9491
:102A20007903882344F4FE01EF56FF4F81E090E0E4
:102A30009183808364C0FE01ED56FF4F60817181F8
:102A40008281938120E03FEF4FE757E40E94190312
:102A500018160CF043C0FE01E956FF4F60817181EA
:102A60008281938120E030E040E251E40E941F0225
:102A7000DC01CB018E010F561F4FBC01CD010E941E
:102A80004900DC01CB01F801918380831FC0FE0166
:102A9000E157FF4F88EC90E091838083FE01E1577E
:102AA000FF4F808191810197F1F7FE01E157FF4FC0
:102AB00091838083DE01AF56BF4FFE01EF56FF4F7B
:102AC00080819181019711969C938E93FE01EF5620
:102AD000FF4F808191810097D1F628C08E010F565B
:102AE0001F4FFE01ED56FF4F6081718182819381FE
:102AF0000E944900DC01CB01F80191838083DE0153
:102B0000A357BF4FFE01EF56FF4F80819181119671
:102B10009C938E93FE01E357FF4F80819181019733
:102B2000F1F7FE01E357FF4F91838083E0E3F0E08C
:102B30008081882F90E081709070009709F486C2A0
:102B40008091A800833009F47BCD80C28091A600DB
:102B5000992787FD9095FC01E656FF4F8081809371
:102B6000AD00E0E3F0E0808186958695882F90E0C7
:102B700081709070009709F0B9C0FE01E757FF4FD0
:102B800080E090E0A8E4B3E480839183A283B383E0
:102B90008E010B571F4FFE01E757FF4F6081718178
:102BA0008281938120E030E04AEF54E40E941F02CA
:102BB000DC01CB01F80180839183A283B383FE0102
:102BC000EB57FF4F608171818281938120E030E07B
:102BD00040E85FE30E947903882344F4FE01ED5747
:102BE000FF4F81E090E09183808364C0FE01EB574A
:102BF000FF4F608171818281938120E03FEF4FE739
:102C000057E40E94190318160CF043C0FE01E75761
:102C1000FF4F608171818281938120E030E040E24A
:102C200051E40E941F02DC01CB018E010D571F4FA2
:102C3000BC01CD010E944900DC01CB01F801918368
:102C400080831FC0FE01EF57FF4F88EC90E0918317
:102C50008083FE01EF57FF4F808191810197F1F74B
:102C6000FE01EF57FF4F91838083DE01AD57BF4FC9
:102C7000FE01ED57FF4F80819181019711969C9342
:102C80008E93FE01ED57FF4F808191810097D1F621
:102C900028C08E010D571F4FFE01EB57FF4F60817B
:102CA0007181828193810E944900DC01CB01F8018E
:102CB00091838083DE01A158BF4FFE01ED57FF4F86
:102CC0008081918111969C938E93FE01E158FF4F74
:102CD000808191810197F1F7FE01E158FF4F9183C7
:102CE00080838091A6008F5F8093A600E0E3F0E0F0
:102CF00080818695882F90E081709070009709F010
:102D0000B9C0FE01E558FF4F80E090E0A8E4B3E4CD
:102D100080839183A283B3838E0109581F4FFE01E4
:102D2000E558FF4F608171818281938120E030E01E
:102D30004AEF54E40E941F02DC01CB01F8018083BA
:102D40009183A283B383FE01E958FF4F60817181B3
:102D50008281938120E030E040E85FE30E947903C4
:102D6000882344F4FE01EB58FF4F81E090E091830B
:102D7000808364C0FE01E958FF4F608171818281C8
:102D8000938120E03FEF4FE757E40E9419031816A4
:102D90000CF043C0FE01E558FF4F608171818281D4
:102DA000938120E030E040E251E40E941F02DC0108
:102DB000CB018E010B581F4FBC01CD010E94490071
:102DC000DC01CB01F801918380831FC0FE01ED5827
:102DD000FF4F88EC90E091838083FE01ED58FF4F18
:102DE000808191810197F1F7FE01ED58FF4F9183AA
:102DF0008083DE01AB58BF4FFE01EB58FF4F80814F
:102E00009181019711969C938E93FE01EB58FF4F91
:102E1000808191810097D1F628C08E010B581F4FF9
:102E2000FE01E958FF4F60817181828193810E9488
:102E30004900DC01CB01F80191838083DE01AF58AA
:102E4000BF4FFE01EB58FF4F8081918111969C93FB
:102E50008E93FE01EF58FF4F808191810197F1F72A
:102E6000FE01EF58FF4F918380838091A60081502F
:102E70008093A6008091A6008A301CF089E08093A0
:102E8000A6008091AA00823031F48091A90084309C
:102E900011F41092A60080E064E00E94FA0780918D
:102EA000A600992787FD9095A92FB92FBC01CD01C8
:102EB0000E94580881E063E00E94FA0780E20E94C5
:102EC000410682E990E060E041E024E00E941808B9
:102ED000FE01E359FF4F80E090E0A8ECB1E480836D
:102EE0009183A283B3838E0107591F4FFE01E359DB
:102EF000FF4F608171818281938120E030E04AEF51
:102F000054E40E941F02DC01CB01F801808391830D
:102F1000A283B383FE01E759FF4F608171818281F3
:102F2000938120E030E040E85FE30E94790388234A
:102F300044F4FE01E959FF4F81E090E091838083E2
:102F400064C0FE01E759FF4F6081718182819381E6
:102F500020E03FEF4FE757E40E94190318160CF0EA
:102F600043C0FE01E359FF4F6081718182819381EB
:102F700020E030E040E251E40E941F02DC01CB017E
:102F80008E0109591F4FBC01CD010E944900DC018F
:102F9000CB01F801918380831FC0FE01EB59FF4FE5
:102FA00088EC90E091838083FE01EB59FF4F808194
:102FB00091810197F1F7FE01EB59FF4F91838083D7
:102FC000DE01A959BF4FFE01E959FF4F8081918170
:102FD000019711969C938E93FE01E959FF4F8081D2
:102FE00091810097D1F628C08E0109591F4FFE012B
:102FF000E759FF4F60817181828193810E9449006E
:10300000DC01CB01F80191838083DE01AD59BF4F14
:10301000FE01E959FF4F8081918111969C938E9317
:10302000FE01ED59FF4F808191810197F1F7FE017B
:10303000ED59FF4F91838083E0E3F0E08081882F9A
:1030400090E081709070009709F457C28091A800B9
:10305000843009F47BCD51C28091A500992787FD6A
:103060009095FC01E656FF4F80818093AC00E0E331
:10307000F0E0808186958695882F90E08170907031
:10308000009709F0B9C0FE01E15AFF4F80E090E0DF
:10309000A8E4B3E480839183A283B3838E01055AAD
:1030A0001F4FFE01E15AFF4F608171818281938140
:1030B00020E030E04AEF54E40E941F02DC01CB0123
:1030C000F80180839183A283B383FE01E55AFF4F09
:1030D000608171818281938120E030E040E85FE38C
:1030E0000E947903882344F4FE01E75AFF4F81E0F0
:1030F00090E09183808364C0FE01E55AFF4F6081B8
:1031000071818281938120E03FEF4FE757E40E9475
:10311000190318160CF043C0FE01E15AFF4F6081FD
:1031200071818281938120E030E040E251E40E948D
:103130001F02DC01CB018E01075A1F4FBC01CD01DC
:103140000E944900DC01CB01F801918380831FC0FC
:10315000FE01E95AFF4F88EC90E091838083FE01E5
:10316000E95AFF4F808191810197F1F7FE01E95AF9
:10317000FF4F91838083DE01A75ABF4FFE01E75ABC
:10318000FF4F80819181019711969C938E93FE0150
:10319000E75AFF4F808191810097D1F628C08E01B8
:1031A000075A1F4FFE01E55AFF4F608171818281EE
:1031B00093810E944900DC01CB01F8019183808357
:1031C000DE01AB5ABF4FFE01E75AFF4F808191816C
:1031D00011969C938E93FE01EB5AFF4F8081918153
:1031E0000197F1F7FE01EB5AFF4F918380838091A5
:1031F000A5008F5F8093A500E0E3F0E080818695D5
:10320000882F90E081709070009709F0B9C0FE019E
:10321000EF5AFF4F80E090E0A8E4B3E4808391830D
:10322000A283B3838E01035B1F4FFE01EF5AFF4F52
:10323000608171818281938120E030E04AEF54E423
:103240000E941F02DC01CB01F80180839183A283DD
:10325000B383FE01E35BFF4F6081718182819381C3
:1032600020E030E040E85FE30E947903882344F4E3
:10327000FE01E55BFF4F81E090E09183808364C0B5
:10328000FE01E35BFF4F608171818281938120E0C9
:103290003FEF4FE757E40E94190318160CF043C0A4
:1032A000FE01EF5AFF4F608171818281938120E09E
:1032B00030E040E251E40E941F02DC01CB018E01AC
:1032C000055B1F4FBC01CD010E944900DC01CB0111
:1032D000F801918380831FC0FE01E75BFF4F88ECFC
:1032E00090E091838083FE01E75BFF4F80819181B5
:1032F0000197F1F7FE01E75BFF4F91838083DE01C9
:10330000A55BBF4FFE01E55BFF4F80819181019777
:1033100011969C938E93FE01E55BFF4F8081918116
:103320000097D1F628C08E01055B1F4FFE01E35BBD
:10333000FF4F60817181828193810E944900DC018D
:10334000CB01F80191838083DE01A95BBF4FFE01B1
:10335000E55BFF4F8081918111969C938E93FE01D6
:10336000E95BFF4F808191810197F1F7FE01E95BF5
:10337000FF4F918380838091A50081508093A500A9
:103380008091A50086301CF085E08093A500809197
:10339000AA00823031F48091A900843011F4109297
:1033A000A50080E066E00E94FA078091AC009927B2
:1033B00087FD9095A92FB92FBC01CD010E94580817
:1033C00081E064E00E94FA0780E20E94410682E9FF
:1033D00090E060E041E026E00E941808FE01ED5B0D
:1033E000FF4F80E090E0A8ECB1E480839183A2835A
:1033F000B3838E01015C1F4FFE01ED5BFF4F6081C7
:1034000071818281938120E030E04AEF54E40E9490
:103410001F02DC01CB01F80180839183A283B38377
:10342000FE01FF96608171818281938120E030E00E
:1034300040E85FE30E94790388232CF481E090E068
:103440009EAF8DAF46C0FE01FF9660817181828183
:10345000938120E03FEF4FE757E40E9419031816CD
:1034600064F5FE01ED5BFF4F608171818281938184
:1034700020E030E040E251E40E941F02DC01CB0179
:10348000BC01CD010E944900DC01CB019EAF8DAF94
:103490000FC088EC90E09CAF8BAF8BAD9CAD0197DB
:1034A000F1F79CAF8BAF8DAD9EAD01979EAF8DAF09
:1034B0008DAD9EAD009769F716C0FE01FF96608145
:1034C0007181828193810E944900DC01CB019EAF12
:1034D0008DAF8DAD9EAD9AAF89AF89AD9AAD019795
:1034E000F1F79AAF89AFE0E3F0E08081882F90E0B8
:1034F00081709070009709F4C0C18091A800853058
:1035000009F4AACDBAC18091A400992787FD9095AE
:10351000FC01E656FF4F80818093AB00E0E3F0E0D2
:10352000808186958695882F90E0817090700097B5
:1035300009F077C080E090E0A8E4B3E48DAB9EABE7
:10354000AFABB8AF6DA97EA98FA998AD20E030E0F0
:103550004AEF54E40E941F02DC01CB0189AB9AAB15
:10356000ABABBCAB69A97AA98BA99CA920E030E0E0
:1035700040E85FE30E94790388232CF481E090E027
:1035800098AB8FA73FC069A97AA98BA99CA920E015
:103590003FEF4FE757E40E94190318164CF56DA949
:1035A0007EA98FA998AD20E030E040E251E40E946E
:1035B0001F02DC01CB01BC01CD010E944900DC01EE
:1035C000CB0198AB8FA70FC088EC90E09EA78DA78A
:1035D0008DA59EA50197F1F79EA78DA78FA598A908
:1035E000019798AB8FA78FA598A9009769F714C08A
:1035F00069A97AA98BA99CA90E944900DC01CB0189
:1036000098AB8FA78FA598A99CA78BA78BA59CA5E6
:103610000197F1F79CA78BA78091A4008F5F8093FF
:10362000A400E0E3F0E080818695882F90E081702F
:103630009070009709F077C080E090E0A8E4B3E4D0
:103640008FA398A7A9A7BAA76FA178A589A59AA5BE
:1036500020E030E04AEF54E40E941F02DC01CB017D
:103660008BA39CA3ADA3BEA36BA17CA18DA19EA1A6
:1036700020E030E040E85FE30E94790388232CF4E7
:1036800081E090E09AA389A33FC06BA17CA18DA1AA
:103690009EA120E03FEF4FE757E40E941903181660
:1036A0004CF56FA178A589A59AA520E030E040E20D
:1036B00051E40E941F02DC01CB01BC01CD010E943C
:1036C0004900DC01CB019AA389A30FC088EC90E0EC
:1036D00098A38F8F8F8D98A10197F1F798A38F8F63
:1036E00089A19AA101979AA389A389A19AA1009778
:1036F00069F714C06BA17CA18DA19EA10E94490015
:10370000DC01CB019AA389A389A19AA19E8F8D8FF9
:103710008D8D9E8D0197F1F79E8F8D8F8091A400E6
:1037200081508093A4008091A4008A301CF089E02D
:103730008093A4008091AA00823031F48091A90086
:10374000843011F41092A40080E067E00E94FA0730
:103750008091AB00992787FD9095A92FB92FBC01C7
:10376000CD010E94580881E066E00E94FA0780E2DD
:103770000E94410682E990E060E041E027E00E947B
:10378000180880E090E0A8ECB1E4898F9A8FAB8FA5
:10379000BC8F698D7A8D8B8D9C8D20E030E04AEF57
:1037A00054E40E941F02DC01CB018D8B9E8BAF8BFA
:1037B000B88F6D897E898F89988D20E030E040E850
:1037C0005FE30E94790388232CF481E090E09C8BD6
:1037D0008B8B3FC06D897E898F89988D20E03FEF6C
:1037E0004FE757E40E94190318164CF5698D7A8D3E
:1037F0008B8D9C8D20E030E040E251E40E941F025E
:10380000DC01CB01BC01CD010E944900DC01CB01F0
:103810009C8B8B8B0FC088EC90E09A8B898B89896D
:103820009A890197F1F79A8B898B8B899C890197EB
:103830009C8B8B8B8B899C89009769F714C06D8951
:103840007E898F89988D0E944900DC01CB019C8B79
:103850008B8B8B899C89988B8F878F859889019713
:10386000F1F7988B8F87E0E3F0E08081882F90E07C
:1038700081709070009709F408C38091A800863089
:1038800009F441CE02C381E067E00E94FA0780E2BA
:103890000E9441068091A400882309F4A0C0809171
:1038A000A40081508093A4008091A500992787FDF2
:1038B0009095FC01E656FF4F80818093AC0080E03C
:1038C00066E00E94FA078091A400992787FD9095F1
:1038D000FC01E656FF4F80818093AB0080E067E0FB
:1038E0000E94FA078091AB00992787FD9095A92F38
:1038F000B92FBC01CD010E94580880E090E4ABE3F1
:10390000B4E48B879C87AD87BE876B857C858D856E
:103910009E8520E030E04AEF54E40E941F02DC0163
:10392000CB018F839887A987BA876F81788589852E
:103930009A8520E030E040E85FE30E947903882325
:103940002CF481E090E09E838D833FC06F81788569
:1039500089859A8520E03FEF4FE757E40E941903DD
:1039600018164CF56B857C858D859E8520E030E0B2
:1039700040E251E40E941F02DC01CB01BC01CD01F9
:103980000E944900DC01CB019E838D830FC088EC2F
:1039900090E09C838B838B819C810197F1F79C83C2
:1039A0008B838D819E8101979E838D838D819E81E6
:1039B000009769F714C06F81788589859A850E9480
:1039C0004900DC01CB019E838D838D819E819A838A
:1039D000898389819A810197F1F79A8389838091FC
:1039E000A500181634F58091A400882311F5809164
:1039F000A50081508093A5008091A500992787FD9F
:103A00009095FC01E656FF4F80818093AC0080E0EA
:103A100066E00E94FA078091AC00992787FD909597
:103A2000A92FB92FBC01CD010E9458088AE08093CC
:103A3000A4008091A60018160CF049C08091A50042
:103A4000882309F044C08091A400882309F03FC076
:103A50008091A60081508093A6008091A6009927AE
:103A600087FD9095FC01E656FF4F80818093AD0065
:103A700080E064E00E94FA078091A600992787FD04
:103A80009095A92FB92FBC01CD010E94580885E05F
:103A90008093A5008091A500992787FD9095FC0152
:103AA000E656FF4F80818093AC0080E066E00E9484
:103AB000FA078091AC00992787FD9095A92FB92F1F
:103AC000BC01CD010E9458088AE08093A400809137
:103AD000A70018160CF06BC08091A600882309F08F
:103AE00066C08091A500882309F061C08091A40080
:103AF000882309F05CC08091A70081508093A700C3
:103B00008091A700992787FD9095FC01E656FF4F0D
:103B100080818093AE0080E063E00E94FA0780918C
:103B2000AE00992787FD9095A92FB92FBC01CD0133
:103B30000E94580889E08093A6008091A6009927EA
:103B400087FD9095FC01E656FF4F80818093AD0084
:103B500080E064E00E94FA078091A600992787FD23
:103B60009095A92FB92FBC01CD010E94580885E07E
:103B70008093A5008091A500992787FD9095FC0171
:103B8000E656FF4F80818093AC0080E066E00E94A3
:103B9000FA078091AC00992787FD9095A92FB92F3E
:103BA000BC01CD010E9458088AE08093A400809156
:103BB000A90018160CF08DC08091A700882309F089
:103BC00088C08091A600882309F083C08091A50059
:103BD000882309F07EC08091A400882309F079C071
:103BE0008091A90081508093A9008091A900992714
:103BF00087FD9095FC01E656FF4F80818093AF00D2
:103C000080E061E00E94FA078091AF00992787FD6C
:103C10009095A92FB92FBC01CD010E94580885E0CD
:103C20008093A7008091A700992787FD9095FC01BC
:103C3000E656FF4F80818093AE0080E063E00E94F3
:103C4000FA078091AE00992787FD9095A92FB92F8B
:103C5000BC01CD010E94580889E08093A6008091A4
:103C6000A600992787FD9095FC01E656FF4F8081BD
:103C70008093AD0080E064E00E94FA078091A60086
:103C8000992787FD9095A92FB92FBC01CD010E94DE
:103C9000580885E08093A5008091A500992787FDAD
:103CA0009095FC01E656FF4F80818093AC0080E048
:103CB00066E00E94FA078091AC00992787FD9095F5
:103CC000A92FB92FBC01CD010E9458088AE080932A
:103CD000A4008091AA0018160CF0AFC08091A90032
:103CE000882309F0AAC08091A700882309F0A5C005
:103CF0008091A600882309F0A0C08091A5008823A8
:103D000009F09BC08091A400882309F096C080919F
:103D1000AA0081508093AA008091AA00992787FD6C
:103D20009095FC01E656FF4F80818093B00080E0C3
:103D300060E00E94FA078091B000992787FD909576
:103D4000A92FB92FBC01CD010E94580889E08093AA
:103D5000A9008091A900992787FD9095FC01E6565E
:103D6000FF4F80818093AF0080E061E00E94FA07FE
:103D70008091AF00992787FD9095A92FB92FBC019D
:103D8000CD010E94580885E08093A7008091A7008C
:103D9000992787FD9095FC01E656FF4F808180931F
:103DA000AE0080E063E00E94FA078091AE009927A0
:103DB00087FD9095A92FB92FBC01CD010E9458080D
:103DC00089E08093A6008091A600992787FD9095B1
:103DD000FC01E656FF4F80818093AD0080E064E0F7
:103DE0000E94FA078091A600992787FD9095A92F38
:103DF000B92FBC01CD010E94580885E08093A50031
:103E00008091A500992787FD9095FC01E656FF4F0C
:103E100080818093AC0080E066E00E94FA07809188
:103E2000AC00992787FD9095A92FB92FBC01CD0132
:103E30000E9458088AE08093A4008091AA008823F9
:103E400021F58091A900882301F58091A70088239E
:103E5000E1F48091A6008823C1F48091A500882315
:103E6000A1F48091A400882381F481E061E00E94A4
:103E7000FA0780E690E00E94CA078AE890E060E0D6
:103E800041E02CE00E94180805C08091A80087300E
:103E900009F4F9CC8091A80088300CF455C0109238
:103EA000A80081E00E94A30580919A00882F90E0ED
:103EB000A0E0B0E0BC01CD010E94580880919A00BA
:103EC000882F90E0A0E0B0E0BC01CD010E9458082E
:103ED0008AE30E94410680919A00882F90E0A0E03A
:103EE000B0E0BC01CD010E94580880919A00882F53
:103EF00090E0A0E0B0E0BC01CD010E9458088AE348
:103F00000E94410680919A00882F90E0A0E0B0E0E6
:103F1000BC01CD010E94580880919A00882F90E042
:103F2000A0E0B0E0BC01CD010E9458081092AA00A8
:103F30001092A9001092A8001092A7001092A6005B
:103F40001092A5001092A400E0E3F0E08081882F99
:103F500090E081709070009711F40C945E0DF4CF96
:103F6000A1E21A2EAA1BBB1BFD010DC0AA1FBB1F7D
:103F7000EE1FFF1FA217B307E407F50720F0A21BEF
:103F8000B30BE40BF50B661F771F881F991F1A945C
:103F900069F760957095809590959B01AC01BD0186
:103FA000CF0108952F923F924F925F926F927F922E
:103FB0008F929F92AF92BF92CF92DF92EF92FF9239
:103FC0000F931F93CF93DF93CDB7DEB7CA1BDB0BE5
:103FD0000FB6F894DEBF0FBECDBF09942A8839888A
:103FE00048885F846E847D848C849B84AA84B98491
:103FF000C884DF80EE80FD800C811B81AA81B9819D
:10400000CE0FD11D0FB6F894DEBF0FBECDBFED01B0
:064010000895F894FFCFB3
:10401600497427732054494D4500000000000000F4
:104026000000040506070001020301020304050659
:104036000708090A0B0C0D0E0F10040A040E150AC8
:104046001100040A15040404040000010203040517
:044056000607080948
:00000001FF
