:100000000C942A000C943F000C943F000C943F0089
:100010000C943F000C943F000C943F000C943F0064
:100020000C943F000C943F000C943F000C943F0054
:100030000C943F000C943F000C943F000C943F0044
:100040000C943F000C943F000C943F000C943F0034
:100050000C943F0011241FBECFE5D8E0DEBFCDBF1A
:1000600010E0A0E6B0E0ECE3FDE202C005900D92E6
:10007000A03AB107D9F70E94550C0C949C160C9429
:100080000000EF92FF920F931F937B018C0120E001
:1000900030E040E05FE40E94410388238CF0C80117
:1000A000B70120E030E040E05FE40E94B9010E9427
:1000B000A1039B01AC01205030404040504806C095
:1000C000C801B7010E94A1039B01AC01B901CA019B
:1000D0001F910F91FF90EF900895A0E0B0E0E3E74B
:1000E000F0E00C946516DC012B01FA019C91923032
:1000F00008F439C1EB018881823008F433C19430AF
:1001000069F4843009F02FC111969C91119789816F
:10011000981709F428C1A7E9B0E025C1843009F493
:1001200021C18230A9F4923009F01DC19A01AD01BC
:1001300088E0EA010990AE01E90109929E0181502F
:10014000C1F7E201898111969C918923818308C1BD
:10015000923009F407C112962D903C901397EB0151
:100160008A819B811496AD90BD90CD90DC901797BD
:10017000EC80FD800E811F819101281B390BB90194
:1001800037FF04C066277727621B730B6032710547
:100190000CF061C0121613066CF537014801062EEB
:1001A00004C096948794779467940A94D2F721E0D8
:1001B00030E040E050E004C0220F331F441F551FC1
:1001C0006A95D2F721503040404050402E213F21C7
:1001D00040235123211531054105510521F021E02E
:1001E00030E040E050E079018A01E628F72808294C
:1001F00019293CC0232BD1F1260E371E35014601AB
:10020000062E04C096948794779467940A94D2F744
:1002100021E030E040E050E004C0220F331F441FD3
:10022000551F6A95D2F721503040404050402A2156
:100230003B214C215D21211531054105510521F05E
:1002400021E030E040E050E059016A01A628B728DB
:10025000C828D9280BC0821593052CF01C01AA24AC
:10026000BB24650103C0EE24FF24870111969C91F5
:10027000D20111968C91981709F445C0992339F051
:10028000A80197012A193B094C095D0906C0A6017E
:1002900095012E193F09400B510B57FD08C01182E3
:1002A0003382228224833583468357831DC081E0B5
:1002B00081833382228288279927DC01821B930B5A
:1002C000A40BB50B84839583A683B7830DC0220F3F
:1002D000331F441F551F24833583468357838281F0
:1002E000938101979383828324813581468157814D
:1002F000DA01C9010197A109B1098F5F9F4FAF4F83
:10030000BF4328F30BC0918333822282EA0CFB1C8B
:100310000C1D1D1DE482F5820683178383E0808314
:10032000248135814681578157FF1AC0C901AA2708
:1003300097FDA095BA2F81709070A070B0705695FF
:10034000479537952795822B932BA42BB52B848328
:100350009583A683B7838281938101969383828359
:10036000DF0101C0D201CD01CDB7DEB7E2E10C94CF
:100370008116A0E2B0E0EFEBF1E00C947116698316
:100380007A838B839C832D833E834F835887E9E058
:10039000EE2EF12CEC0EFD1ECE010196B7010E944F
:1003A000CA048E010F5E1F4FCE010596B8010E9450
:1003B000CA048A8991E089278A8BC701B801AE01F6
:1003C000475E5F4F0E946D000E94F503A096E6E035
:1003D0000C948D16A0E2B0E0E0EFF1E00C94711601
:1003E00069837A838B839C832D833E834F835887D5
:1003F000F9E0EF2EF12CEC0EFD1ECE010196B701B7
:100400000E94CA048E010F5E1F4FCE010596B801EF
:100410000E94CA04C701B801AE01475E5F4F0E9447
:100420006D000E94F503A096E6E00C948D16A0E204
:10043000B0E0EDE1F2E00C94651669837A838B837A
:100440009C832D833E834F835887CE010196BE0146
:10045000675F7F4F0E94CA04CE010596BE016F5EA2
:100460007F4F0E94CA049985923088F08989823032
:10047000C8F0943019F4823051F404C0843029F467
:10048000923081F487E990E0C6C0923049F420E0D0
:100490009A858A89981321E02A87CE010996BBC0E4
:1004A000823049F420E09A858A89981321E02A8BCA
:1004B000CE014196B0C02D843E844F8458886D880B
:1004C0007E888F88988CEE24FF248701AA24BB2481
:1004D000650140E050E060E070E0E0E0F0E0C10184
:1004E00081709070892BE9F0E60CF71C081D191D2E
:1004F0009A01AB012A0D3B1D4C1D5D1D80E090E073
:10050000A0E0B0E0E614F7040805190520F481E046
:1005100090E0A0E0B0E0BA01A901480F591F6A1F9E
:100520007B1FAA0CBB1CCC1CDD1C97FE08C081E005
:1005300090E0A0E0B0E0A82AB92ACA2ADB2A3196C6
:10054000E032F10549F0660C771C881C991C569422
:10055000479437942794C3CFFA85EA892B893C893D
:100560008B859C85280F391F2E5F3F4F17C0CA010E
:1005700081709070892B61F016950795F794E79438
:1005800080E090E0A0E0B0E8E82AF92A0A2B1B2BD3
:1005900076956795579547952F5F3F4F77FDE7CF46
:1005A0000CC0440F551F661F771F17FD4160EE0CEE
:1005B000FF1C001F111F21503040403090E05907B0
:1005C00090E0690790E4790760F32B8F3C8FDB01A3
:1005D000CA018F779070A070B07080349105A1052A
:1005E000B10561F447FD0AC0E114F10401051105EC
:1005F00029F0405C5F4F6F4F7F4F40781A8EFE1797
:1006000011F081E08A8F4D8F5E8F6F8F78A383E02A
:10061000898FCE0149960E94F503A096E2E10C94E1
:100620008116A8E1B0E0E7E1F3E00C94711669836C
:100630007A838B839C832D833E834F83588789E005
:10064000E82EF12CEC0EFD1ECE010196B7010E94A2
:10065000CA048E010F5E1F4FCE010596B8010E949D
:10066000CA048985823040F08989823028F0C70128
:10067000B8010E94420501C08FEF6896E6E00C9435
:100680008D16A8E1B0E0E7E4F3E00C9471166983FD
:100690007A838B839C832D833E834F83588789E0A5
:1006A000E82EF12CEC0EFD1ECE010196B7010E9442
:1006B000CA048E010F5E1F4FCE010596B8010E943D
:1006C000CA048985823040F08989823028F0C701C8
:1006D000B8010E94420501C08FEF6896E6E00C94D5
:1006E0008D16A8E1B0E0E7E7F3E00C94711669839A
:1006F0007A838B839C832D833E834F83588789E045
:10070000E82EF12CEC0EFD1ECE010196B7010E94E1
:10071000CA048E010F5E1F4FCE010596B8010E94DC
:10072000CA048985823040F08989823028F0C70167
:10073000B8010E94420501C081E06896E6E00C9491
:100740008D16ACE0B0E0E7EAF3E00C94751669832F
:100750007A838B839C83CE010196BE016B5F7F4FB2
:100760000E94CA048D81823061F1823050F1843060
:1007700021F48E81882351F12EC02F81388537FDD9
:1007800020C06E812F3131051CF06623F9F023C0A3
:100790008EE190E0821B930B29853A854B855C8521
:1007A00004C056954795379527958A95D2F76623C5
:1007B000B1F050954095309521953F4F4F4F5F4F89
:1007C0000EC020E030E040E050E009C02FEF3FEFE6
:1007D0004FEF5FE704C020E030E040E050E8B901AF
:1007E000CA012C96E2E00C949116DF92EF92FF92F0
:1007F0000F931F93FC01E480F58006811781D1805F
:100800008081823048F480E090E0A0E1B0E0E82A06
:10081000F92A0A2B1B2BA5C0843009F49FC0823013
:1008200021F4EE24FF24870105C0E114F104010541
:10083000110519F4E0E0F0E096C0628173819FEF4A
:10084000623879070CF05BC022E83FEF261B370BBC
:100850002A3131052CF020E030E040E050E02AC0A1
:10086000B801A701022E04C0769567955795479564
:100870000A94D2F781E090E0A0E0B0E004C0880FD5
:10088000991FAA1FBB1F2A95D2F70197A109B10989
:100890008E219F21A023B1230097A105B10521F04E
:1008A00081E090E0A0E0B0E09A01AB01282B392B69
:1008B0004A2B5B2BDA01C9018F779070A070B07062
:1008C00080349105A105B10539F427FF09C0205CEA
:1008D0003F4F4F4F5F4F04C0215C3F4F4F4F5F4F23
:1008E000E0E0F0E02030A0E03A07A0E04A07A0E412
:1008F0005A0710F0E1E0F0E079018A0127C0603882
:10090000710564F5FB01E158FF4FD801C7018F77EE
:100910009070A070B07080349105A105B10539F4D4
:10092000E7FE0DC080E490E0A0E0B0E004C08FE3FB
:1009300090E0A0E0B0E0E80EF91E0A1F1B1F17FFB1
:1009400005C016950795F794E794319687E01695BC
:100950000795F794E7948A95D1F705C0EE24FF2414
:100960008701EFEFF0E06E2F679566276795902F70
:100970009F77D794DD24D7948E2F8695492F462BC9
:10098000582F5D29B701CA011F910F91FF90EF9079
:10099000DF900895FC01DB01408151812281622FAB
:1009A0006F7770E0221F2227221F9381892F880FE3
:1009B000822B282F30E0991F9927991F11969C931D
:1009C000119721153105A9F54115510561057105ED
:1009D00011F482E037C082E89FEF13969C938E93C8
:1009E00012979A01AB0167E0220F331F441F551F76
:1009F0006A95D1F783E08C930DC0220F331F441FFB
:100A0000551F12968D919C911397019713969C9365
:100A10008E931297203080E0380780E0480780E40A
:100A2000580758F314962D933D934D935C93179765
:100A300008952F3F310579F4411551056105710580
:100A400019F484E08C93089564FF03C081E08C93D3
:100A500012C01C9210C02F57304013963C932E9317
:100A6000129783E08C9387E0440F551F661F771F12
:100A70008A95D1F7706414964D935D936D937C9332
:100A8000179708951F93DC01FB019C91923008F4A5
:100A900047C08081823008F443C0943051F41196ED
:100AA0001C91843099F58181682F70E0611B710978
:100AB0003FC0843021F0923031F48230B9F181812D
:100AC000882389F12DC011961C9111978230F1F085
:100AD00081811817D9F412962D913C911397828138
:100AE00093818217930794F028173907BCF0149666
:100AF0008D919D910D90BC91A02D248135814681D1
:100B00005781281739074A075B0718F4112341F06A
:100B10000AC082179307A407B50740F4112319F000
:100B200061E070E005C06FEF7FEF02C060E070E051
:100B3000CB011F910895DF93CF93CDB7DEB72F97E9
:100B40000FB6F894DEBF0FBECDBF8F8782E060E0A6
:100B500040E00E94630A82E061E040E00E94630A94
:100B600080E06F850E94750B82E062E041E00E94A8
:100B7000630A80E090E0A0E0B0E48B879C87AD87BB
:100B8000BE876B857C858D859E8520E030E04AEFB1
:100B900054E40E941702DC01CB018F839887A98758
:100BA000BA876F81788589859A8520E030E040E8B2
:100BB0005FE30E94710388232CF481E090E09E8320
:100BC0008D833FC06F81788589859A8520E03FEFCE
:100BD0004FE757E40E94110318164CF56B857C858E
:100BE0008D859E8520E030E040E251E40E941702AE
:100BF000DC01CB01BC01CD010E944100DC01CB0135
:100C00009E838D830FC088EC90E09C838B838B81C7
:100C10009C810197F1F79C838B838D819E81019745
:100C20009E838D838D819E81009769F714C06F81AB
:100C3000788589859A850E944100DC01CB019E83DD
:100C40008D838D819E819A83898389819A81019781
:100C5000F1F79A83898382E062E040E00E94630AB0
:100C60002F960FB6F894DEBF0FBECDBFCF91DF91A8
:100C70000895DF93CF93CDB7DEB72F970FB6F894D3
:100C8000DEBF0FBECDBF8F8782E060E041E00E94F3
:100C9000630A82E061E040E00E94630A80E06F85C1
:100CA0000E94750B82E062E041E00E94630A80E0EE
:100CB00090E0A0E0B0E48B879C87AD87BE876B8512
:100CC0007C858D859E8520E030E04AEF54E40E94CB
:100CD0001702DC01CB018F839887A987BA876F81C0
:100CE000788589859A8520E030E040E85FE30E94BE
:100CF000710388232CF481E090E09E838D833FC0B4
:100D00006F81788589859A8520E03FEF4FE757E42A
:100D10000E94110318164CF56B857C858D859E8588
:100D200020E030E040E251E40E941702DC01CB01F8
:100D3000BC01CD010E944100DC01CB019E838D836B
:100D40000FC088EC90E09C838B838B819C81019702
:100D5000F1F79C838B838D819E8101979E838D8388
:100D60008D819E81009769F714C06F817885898590
:100D70009A850E944100DC01CB019E838D838D8189
:100D80009E819A83898389819A810197F1F79A8359
:100D9000898382E062E040E00E94630A2F960FB6EA
:100DA000F894DEBF0FBECDBFCF91DF910895DF93E2
:100DB000CF93CDB7DEB764970FB6F894DEBF0FBE02
:100DC000CDBF8F87688B80E06FEF0E941B0A82E0A7
:100DD00060E041E00E94090982E061E041E00E9498
:100DE000090982E062E041E00E94090980E090E0A8
:100DF000A0E2B2E48B879C87AD87BE876B857C853C
:100E00008D859E8520E030E04AEF54E40E94170271
:100E1000DC01CB018F839887A987BA876F8178859A
:100E200089859A8520E030E040E85FE30E94710305
:100E300088232CF481E090E09E838D833FC06F81F6
:100E4000788589859A8520E03FEF4FE757E40E9437
:100E5000110318164CF56B857C858D859E8520E0E9
:100E600030E040E251E40E941702DC01CB01BC01FA
:100E7000CD010E944100DC01CB019E838D830FC018
:100E800088EC90E09C838B838B819C810197F1F7A8
:100E90009C838B838D819E8101979E838D838D8121
:100EA0009E81009769F714C06F81788589859A853E
:100EB0000E944100DC01CB019E838D838D819E8148
:100EC0009A83898389819A810197F1F79A8389832B
:100ED0008889282F30E03C8B2B8B8B899C898E3026
:100EE000910571F02B893C892F30310569F08B8990
:100EF0009C898C30910559F48CE00E949B0507C0B9
:100F00008EE00E949B0503C08FE00E949B058F85A9
:100F1000282F30E03A8B298B89899A89843391056F
:100F200011F129893A892533310534F489899A895F
:100F300080339105A1F01AC029893A8928333105F7
:100F400031F089899A898C33910529F00FC088E3A3
:100F50000E949B050BC08CE30E949B0507C084E3A5
:100F60000E949B0503C084E30E949B0581E00E94D0
:100F70009B0564960FB6F894DEBF0FBECDBFCF9130
:100F8000DF910895DF93CF9300D00F92CDB7DEB7F6
:100F90009B838A8319820EC08981282F30E08A8141
:100FA0009B81FC01E20FF31F80810E943906898139
:100FB0008F5F89838981282F30E08A819B81FC01A2
:100FC000E20FF31F8081882339F70F900F900F9065
:100FD000CF91DF910895DF93CF9300D00F92CDB7DB
:100FE000DEB78A836B838A81882319F48B81898396
:100FF00006C08A81813019F48B81805C8983898164
:1010000080580E949B050F900F900F90CF91DF9119
:101010000895DF93CF93CDB7DEB727970FB6F89437
:10102000DEBF0FBECDBF9C838B836D834E832F832A
:101030008D81882F90E0880F991F880F991F880F46
:10104000991F89838981805C0E949B051A820EC04A
:101050008A81282F30E08B819C81FC01E20FF31FF5
:1010600080810E9439068A818F5F8A838A818830D5
:1010700078F38E816F810E94EB078D810E94390683
:1010800027960FB6F894DEBF0FBECDBFCF91DF918C
:1010900008950F931F93DF93CF93CDB7DEB76B9770
:1010A0000FB6F894DEBF0FBECDBF6C8B7D8B8E8BE1
:1010B0009F8B80E1FE013496DF01282F1D922A9537
:1010C000E9F780E38C8319822EC08981082F10E014
:1010D0008C899D89AE89BF892AE030E040E050E0EC
:1010E000BC01CD010E944316DC01CB01282F205DFD
:1010F000CE010496FC01E00FF11F20838C899D89AD
:10110000AE89BF892AE030E040E050E0BC01CD016B
:101110000E944316DA01C9018C8B9D8BAE8BBF8B6D
:1011200089818F5F89838C899D89AE89BF8900976A
:10113000A105B10551F68981282F30E0CE01049632
:10114000FC01E20FF31F10828981815089831B8289
:1011500033C08B81282F30E0CE010496FC01E20FD2
:10116000F31F80818A838B81482F50E08981282F4B
:1011700030E08B81882F90E0281B390BCE0104963C
:10118000FC01E20FF31F2081CE010496FC01E40F65
:10119000F51F20838981282F30E08B81882F90E0F4
:1011A000281B390BCE010496FC01E20FF31F8A8144
:1011B00080838B818F5F8B838B81A82FB0E0B98F69
:1011C000A88F8981882F90E001969B8F8A8F2A8D26
:1011D0003B8D33232CF48A8D9B8D01969B8F8A8FB8
:1011E0008A8D9B8D95958795A88DB98DA817B90780
:1011F0000CF4AFCFCE0104960E94C2076B960FB6D7
:10120000F894DEBF0FBECDBFCF91DF911F910F913C
:101210000895DF93CF93CDB7DEB728970FB6F89434
:10122000DEBF0FBECDBF8A836B834C8319828B8157
:10123000883008F0F4C08C81882309F077C08A8157
:10124000282F30E038872F838F8198858130910552
:1012500059F12F813885223031052CF48F81988502
:10126000009769F060C02F8138852230310589F1FF
:101270008F8198858330910509F440C054C0AAE35A
:10128000B0E0EAE3F0E08081482F8B81282F30E046
:1012900081E090E0022E02C0880F991F0A94E2F7C5
:1012A000809584238C93BDC0A7E3B0E0E7E3F0E032
:1012B0008081482F8B81282F30E081E090E0022E42
:1012C00002C0880F991F0A94E2F7809584238C93BB
:1012D000A8C0A4E3B0E0E4E3F0E08081482F8B8174
:1012E000282F30E081E090E0022E02C0880F991F85
:1012F0000A94E2F7809584238C9393C0A1E3B0E035
:10130000E1E3F0E08081482F8B81282F30E081E0FD
:1013100090E0022E02C0880F991F0A94E2F7809590
:1013200084238C937EC081E089837BC08C81813053
:1013300009F072C08A81282F30E03E832D838D8191
:101340009E818130910549F12D813E812230310508
:101350002CF48D819E81009761F05BC02D813E81D0
:101360002230310571F18D819E8183309105E9F143
:1013700050C0AAE3B0E0EAE3F0E08081482F8B811F
:10138000282F30E081E090E0022E02C0880F991FE4
:101390000A94E2F7842B8C9344C0A7E3B0E0E7E320
:1013A000F0E08081482F8B81282F30E081E090E0B1
:1013B000022E02C0880F991F0A94E2F7842B8C93A7
:1013C00030C0A4E3B0E0E4E3F0E08081482F8B81FB
:1013D000282F30E081E090E0022E02C0880F991F94
:1013E0000A94E2F7842B8C931CC0A1E3B0E0E1E304
:1013F000F0E08081482F8B81282F30E081E090E061
:10140000022E02C0880F991F0A94E2F7842B8C9356
:1014100008C081E0898305C081E0898302C081E042
:101420008983898128960FB6F894DEBF0FBECDBFA1
:10143000CF91DF910895DF93CF9300D000D00F922A
:10144000CDB7DEB78A836B8319828A81282F30E07B
:101450003D832C838C819D8181309105D1F02C813D
:101460003D81223031052CF48C819D81009761F003
:101470001FC02C813D812230310581F08C819D81FE
:101480008330910581F014C0EAE3F0E08B81808322
:1014900011C0E7E3F0E08B8180830CC0E4E3F0E06F
:1014A0008B81808307C0E1E3F0E08B81808302C001
:1014B00081E0898389810F900F900F900F900F909A
:1014C000CF91DF910895DF93CF93CDB7DEB7289703
:1014D0000FB6F894DEBF0FBECDBF8A836B834C83FB
:1014E00019828B81883008F0F4C08C81882309F040
:1014F00077C08A81282F30E038872F838F819885A5
:101500008130910559F12F813885223031052CF435
:101510008F819885009769F060C02F8138852230CF
:10152000310589F18F8198858330910509F440C098
:1015300054C0ABE3B0E0EBE3F0E08081482F8B8157
:10154000282F30E081E090E0022E02C0880F991F22
:101550000A94E2F7809584238C93BDC0A8E3B0E0A1
:10156000E8E3F0E08081482F8B81282F30E081E094
:1015700090E0022E02C0880F991F0A94E2F780952E
:1015800084238C93A8C0A5E3B0E0E5E3F0E080817C
:10159000482F8B81282F30E081E090E0022E02C09E
:1015A000880F991F0A94E2F7809584238C9393C047
:1015B000A2E3B0E0E2E3F0E08081482F8B81282FA6
:1015C00030E081E090E0022E02C0880F991F0A945B
:1015D000E2F7809584238C937EC081E089837BC071
:1015E0008C81813009F072C08A81282F30E03E83DF
:1015F0002D838D819E818130910549F12D813E8120
:10160000223031052CF48D819E81009761F05BC002
:101610002D813E812230310571F18D819E81833093
:101620009105E9F150C0ABE3B0E0EBE3F0E080817D
:10163000482F8B81282F30E081E090E0022E02C0FD
:10164000880F991F0A94E2F7842B8C9344C0A8E377
:10165000B0E0E8E3F0E08081482F8B81282F30E074
:1016600081E090E0022E02C0880F991F0A94E2F7F1
:10167000842B8C9330C0A5E3B0E0E5E3F0E08081FB
:10168000482F8B81282F30E081E090E0022E02C0AD
:10169000880F991F0A94E2F7842B8C931CC0A2E355
:1016A000B0E0E2E3F0E08081482F8B81282F30E02A
:1016B00081E090E0022E02C0880F991F0A94E2F7A1
:1016C000842B8C9308C081E0898305C081E08983E5
:1016D00002C081E08983898128960FB6F894DEBF25
:1016E0000FBECDBFCF91DF910895DF93CF9300D090
:1016F00000D00F92CDB7DEB78A836B8319828A81BF
:10170000282F30E03D832C838C819D818130910591
:10171000D1F02C813D81223031052CF48C819D81CA
:10172000009761F01FC02C813D812230310581F08E
:101730008C819D818330910581F014C0EBE3F0E052
:101740008B81808311C0E8E3F0E08B8180830CC043
:10175000E5E3F0E08B81808307C0E2E3F0E08B817A
:10176000808302C081E0898389810F900F900F9060
:101770000F900F90CF91DF910895DF93CF93CDB766
:10178000DEB727970FB6F894DEBF0FBECDBF8A83B2
:101790006B835D834C8319828C819D81009709F452
:1017A00078C08B81883008F074C08A81282F30E09F
:1017B0003F832E834E815F814130510559F18E81E7
:1017C0009F818230910534F42E813F8121153105AE
:1017D00069F05CC04E815F814230510579F18E81A4
:1017E0009F818330910509F43DC050C0E9E3F0E0EA
:1017F0008081282F30E08B81882F90E0A90102C0E2
:10180000559547958A95E2F7CA018170EC81FD8173
:10181000808341C0E6E3F0E08081282F30E08B81B7
:10182000882F90E0A90102C0559547958A95E2F767
:10183000CA018170EC81FD8180832DC0E3E3F0E07B
:101840008081282F30E08B81882F90E0A90102C091
:10185000559547958A95E2F7CA018170EC81FD8123
:10186000808319C0E0E3F0E08081282F30E08B8195
:10187000882F90E0A90102C0559547958A95E2F717
:10188000CA018170EC81FD81808305C081E089837C
:1018900002C081E08983898127960FB6F894DEBF64
:1018A0000FBECDBFCF91DF9108950F931F93DF93AC
:1018B000CF93CDB7DEB7C15DD0400FB6F894DEBF91
:1018C0000FBECDBF8CE36CE00E94D706CE018655DB
:1018D0009F4F28E0FC01DF01622F1D926A95E9F716
:1018E000FE01E655FF4F84E08083FE01E655FF4F81
:1018F0008AE08183FE01E655FF4F84E08283FE018A
:10190000E655FF4F8EE08383FE01E655FF4F85E1EC
:101910008483FE01E655FF4F8AE08583FE01E6558C
:10192000FF4F81E18683CE018E549F4F28E0FC015A
:10193000DF01622F1D926A95E9F7FE01EE54FF4F19
:1019400084E08083FE01EE54FF4F8AE08183FE0134
:10195000EE54FF4F84E08283FE01EE54FF4F8EE091
:101960008383FE01EE54FF4F84E08483FE01EE5436
:10197000FF4F8AE08583FE01EE54FF4F81E18683AD
:10198000CE0186549F4F28E0FC01DF01622F1D929B
:101990006A95E9F7FE01E654FF4F84E08083FE017B
:1019A000E654FF4F8AE08183FE01E654FF4F85E055
:1019B0008283FE01E654FF4F8EE08383FE01E654EE
:1019C000FF4F84E18483FE01E654FF4F8CE0858362
:1019D000FE01E654FF4F84E18683CE018E539F4F74
:1019E00028E0FC01DF01622F1D926A95E9F7FE01F4
:1019F000EE53FF4F84E08083FE01EE53FF4F8AE0F9
:101A00008183FE01EE53FF4F84E18283FE01EE539A
:101A1000FF4F8EE08383FE01EE53FF4F85E084830A
:101A2000FE01EE53FF4F86E08583FE01EE53FF4F2C
:101A300085E08683CE0186539F4F28E0FC01DF01BD
:101A4000622F1D926A95E9F7FE01E653FF4F81E18F
:101A50008483FE01E653FF4F81E18583FE01E65357
:101A6000FF4F8FE18683CE0186559F4F60E040E0B7
:101A700020E00E94090880E063E00E94EB0780E616
:101A800090E00E94C20781E065E00E94EB078AE6D1
:101A900090E00E94C207FE01EB55FF4F80E090E00E
:101AA000AAE7B4E480839183A283B3838E010F55A8
:101AB0001F4FFE01EB55FF4F608171818281938141
:101AC00020E030E04AEF54E40E941702DC01CB0131
:101AD000F80180839183A283B383FE01EF55FF4F0A
:101AE000608171818281938120E030E040E85FE392
:101AF0000E947103882344F4FE01E156FF4F81E008
:101B000090E09183808364C0FE01EF55FF4F6081B8
:101B100071818281938120E03FEF4FE757E40E947B
:101B2000110318160CF043C0FE01EB55FF4F608106
:101B300071818281938120E030E040E251E40E9493
:101B40001702DC01CB018E0101561F4FBC01CD01F4
:101B50000E944100DC01CB01F801918380831FC00A
:101B6000FE01E356FF4F88EC90E091838083FE01F5
:101B7000E356FF4F808191810197F1F7FE01E35613
:101B8000FF4F91838083DE01A156BF4FFE01E156D6
:101B9000FF4F80819181019711969C938E93FE0156
:101BA000E156FF4F808191810097D1F627C08E01C9
:101BB00001561F4FFE01EF55FF4F608171818281F9
:101BC00093810E944100DC01CB01F8019183808365
:101BD000DE01A556BF4FFE01E156FF4F8081918186
:101BE0008D939C93FE01E556FF4F80819181019773
:101BF000F1F7FE01E556FF4F9183808381E00E945B
:101C00009B0580E063E00E94EB0783E790E00E9481
:101C1000C20781E065E00E94EB078EE790E00E943A
:101C2000C207FE01E755FF4F108212C1FE01E755C2
:101C3000FF4F8081282F30E085E090E0AC01421B0F
:101C4000530BFE01E755FF4F8081282F30E085E0E0
:101C500090E0BC01621B730B9B01CE018E549F4F21
:101C6000FC01E20FF31F8081282F2061CE018E54EA
:101C70009F4FFC01E40FF51F2083CE018E549F4F30
:101C800061E041E020E00E940908FE01E755FF4FB6
:101C90008081282F30E085E090E0AC01421B530B9F
:101CA000FE01E755FF4F8081282F30E085E090E06E
:101CB000DC01A21BB30B9D01CE018E549F4FFC0192
:101CC000E20FF31F8081282F2F7ECE018E549F4F6D
:101CD000FC01E40FF51F2083FE01E956FF4F80E071
:101CE00090E0A8E4B3E480839183A283B3838E0160
:101CF0000D561F4FFE01E956FF4F608171818281B1
:101D0000938120E030E04AEF54E40E941702DC01A6
:101D1000CB01F80180839183A283B383FE01ED564A
:101D2000FF4F608171818281938120E030E040E843
:101D30005FE30E947103882344F4FE01EF56FF4FD6
:101D400081E090E09183808364C0FE01ED56FF4FF7
:101D5000608171818281938120E03FEF4FE757E4FA
:101D60000E94110318160CF043C0FE01E956FF4F04
:101D7000608171818281938120E030E040E251E412
:101D80000E941702DC01CB018E010F561F4FBC01D0
:101D9000CD010E944100DC01CB01F80191838083D9
:101DA0001FC0FE01E157FF4F88EC90E091838083D4
:101DB000FE01E157FF4F808191810197F1F7FE010C
:101DC000E157FF4F91838083DE01AF56BF4FFE0185
:101DD000EF56FF4F80819181019711969C938E93CE
:101DE000FE01EF56FF4F808191810097D1F627C009
:101DF0008E010F561F4FFE01ED56FF4F608171811E
:101E0000828193810E944100DC01CB01F801918322
:101E10008083DE01A357BF4FFE01EF56FF4F808145
:101E200091818D939C93FE01E357FF4F80819181B7
:101E30000197F1F7FE01E357FF4F91838083DE01A5
:101E4000A755BF4FFE01E755FF4F80818F5F8C93F1
:101E5000FE01E755FF4F8081863008F4E7CEFE0192
:101E6000E755FF4F85E0808312C1FE01E755FF4F24
:101E70008081282F30E085E090E0AC01421B530BBD
:101E8000FE01E755FF4F8081282F30E085E090E08C
:101E9000BC01621B730B9B01CE018E549F4FFC0152
:101EA000E20FF31F8081282F2061CE018E549F4FB7
:101EB000FC01E40FF51F2083CE018E549F4F61E09B
:101EC00041E020E00E940908FE01E755FF4F8081B4
:101ED000282F30E085E090E0AC01421B530BFE015F
:101EE000E755FF4F8081282F30E085E090E0DC014E
:101EF000A21BB30B9D01CE018E549F4FFC01E20F3C
:101F0000F31F8081282F2F7ECE018E549F4FFC011E
:101F1000E40FF51F2083FE01E757FF4F80E090E0BC
:101F2000A8E4B3E480839183A283B3838E010B572B
:101F30001F4FFE01E757FF4F6081718182819381BE
:101F400020E030E04AEF54E40E941702DC01CB01AC
:101F5000F80180839183A283B383FE01EB57FF4F87
:101F6000608171818281938120E030E040E85FE30D
:101F70000E947103882344F4FE01ED57FF4F81E076
:101F800090E09183808364C0FE01EB57FF4F608136
:101F900071818281938120E03FEF4FE757E40E94F7
:101FA000110318160CF043C0FE01E757FF4F608184
:101FB00071818281938120E030E040E251E40E940F
:101FC0001702DC01CB018E010D571F4FBC01CD0163
:101FD0000E944100DC01CB01F801918380831FC086
:101FE000FE01EF57FF4F88EC90E091838083FE0164
:101FF000EF57FF4F808191810197F1F7FE01EF5775
:10200000FF4F91838083DE01AD57BF4FFE01ED5737
:10201000FF4F80819181019711969C938E93FE01D1
:10202000ED57FF4F808191810097D1F627C08E0137
:102030000D571F4FFE01EB57FF4F60817181828169
:1020400093810E944100DC01CB01F80191838083E0
:10205000DE01A158BF4FFE01ED57FF4F80819181F6
:102060008D939C93FE01E158FF4F808191810197F0
:10207000F1F7FE01E158FF4F91838083DE01A75500
:10208000BF4FFE01E755FF4F808181508C93FE01C9
:10209000E755FF4F8081882309F0E7CE81E00E9459
:1020A0009B0580E063E00E94EB0783E790E00E94DD
:1020B000C20781E065E00E94EB0787E890E00E949C
:1020C000C207FE01E558FF4F80E090E0AAEFB3E4BD
:1020D00080839183A283B3838E0109581F4FFE0131
:1020E000E558FF4F608171818281938120E030E06B
:1020F0004AEF54E40E941702DC01CB01F80180830F
:102100009183A283B383FE01E958FF4F60817181FF
:102110008281938120E030E040E85FE30E94710318
:10212000882344F4FE01EB58FF4F81E090E0918357
:10213000808364C0FE01E958FF4F60817181828114
:10214000938120E03FEF4FE757E40E9411031816F8
:102150000CF043C0FE01E558FF4F60817181828120
:10216000938120E030E040E251E40E941702DC015C
:10217000CB018E010B581F4FBC01CD010E944100C5
:10218000DC01CB01F801918380831FC0FE01ED5873
:10219000FF4F88EC90E091838083FE01ED58FF4F64
:1021A000808191810197F1F7FE01ED58FF4F9183F6
:1021B0008083DE01AB58BF4FFE01EB58FF4F80819B
:1021C0009181019711969C938E93FE01EB58FF4FDE
:1021D000808191810097D1F627C08E010B581F4F47
:1021E000FE01E958FF4F60817181828193810E94D5
:1021F0004100DC01CB01F80191838083DE01AF58FF
:10220000BF4FFE01EB58FF4F808191818D939C93CE
:10221000FE01EF58FF4F808191810197F1F7FE0198
:10222000EF58FF4F9183808381E00E949B05CE0190
:1022300086559F4F60E040E020E00E940908FE01C3
:10224000E755FF4F108297C181E00E949B05FE0178
:10225000E755FF4F8081882F90E0880F991F282F26
:102260002F5FCE0186549F4F62E040E00E94090834
:10227000FE01E359FF4F80E090E0A8E4B3E48083DF
:102280009183A283B3838E0107591F4FFE01E35947
:10229000FF4F608171818281938120E030E04AEFBD
:1022A00054E40E941702DC01CB01F8018083918382
:1022B000A283B383FE01E759FF4F60817181828160
:1022C000938120E030E040E85FE30E9471038823BF
:1022D00044F4FE01E959FF4F81E090E0918380834F
:1022E00064C0FE01E759FF4F608171818281938153
:1022F00020E03FEF4FE757E40E94110318160CF05F
:1023000043C0FE01E359FF4F608171818281938157
:1023100020E030E040E251E40E941702DC01CB01F2
:102320008E0109591F4FBC01CD010E944100DC0103
:10233000CB01F801918380831FC0FE01EB59FF4F51
:1023400088EC90E091838083FE01EB59FF4F808100
:1023500091810197F1F7FE01EB59FF4F9183808343
:10236000DE01A959BF4FFE01E959FF4F80819181DC
:10237000019711969C938E93FE01E959FF4F80813E
:1023800091810097D1F627C08E0109591F4FFE0198
:10239000E759FF4F60817181828193810E944100E2
:1023A000DC01CB01F80191838083DE01AD59BF4F81
:1023B000FE01E959FF4F808191818D939C93FE012D
:1023C000ED59FF4F808191810197F1F7FE01ED59A1
:1023D000FF4F9183808381E00E949B05FE01E755BA
:1023E000FF4F8081882F90E00196880F991F282F3A
:1023F000CE018E539F4F62E040E00E940908FE012B
:10240000E15AFF4F80E090E0A8E4B3E48083918339
:10241000A283B3838E01055A1F4FFE01E15AFF4F7D
:10242000608171818281938120E030E04AEF54E441
:102430000E941702DC01CB01F80180839183A28303
:10244000B383FE01E55AFF4F6081718182819381E0
:1024500020E030E040E85FE30E947103882344F409
:10246000FE01E75AFF4F81E090E09183808364C0D2
:10247000FE01E55AFF4F608171818281938120E0E6
:102480003FEF4FE757E40E94110318160CF043C0CA
:10249000FE01E15AFF4F608171818281938120E0CA
:1024A00030E040E251E40E941702DC01CB018E01D2
:1024B000075A1F4FBC01CD010E944100DC01CB0136
:1024C000F801918380831FC0FE01E95AFF4F88EC19
:1024D00090E091838083FE01E95AFF4F80819181D2
:1024E0000197F1F7FE01E95AFF4F91838083DE01E6
:1024F000A75ABF4FFE01E75AFF4F80819181019794
:1025000011969C938E93FE01E75AFF4F8081918133
:102510000097D1F627C08E01075A1F4FFE01E55ADA
:10252000FF4F60817181828193810E944100DC01B3
:10253000CB01F80191838083DE01AB5ABF4FFE01CE
:10254000E75AFF4F808191818D939C93FE01EB5A56
:10255000FF4F808191810197F1F7FE01EB5AFF4F08
:1025600091838083DE01A755BF4FFE01E755FF4FE2
:1025700080818F5F8C93FE01E755FF4F808188300B
:1025800008F462CEFE01E755FF4F81E080836FC102
:1025900081E00E949B05FE01E755FF4F8081282FB7
:1025A00030E088E090E0821B930B880F991F282F62
:1025B000CE018E539F4F62E040E00E940908FE0169
:1025C000EF5AFF4F80E090E0A8E4B3E4808391836A
:1025D000A283B3838E01035B1F4FFE01EF5AFF4FAF
:1025E000608171818281938120E030E04AEF54E480
:1025F0000E941702DC01CB01F80180839183A28342
:10260000B383FE01E35BFF4F60817181828193811F
:1026100020E030E040E85FE30E947103882344F447
:10262000FE01E55BFF4F81E090E09183808364C011
:10263000FE01E35BFF4F608171818281938120E025
:102640003FEF4FE757E40E94110318160CF043C008
:10265000FE01EF5AFF4F608171818281938120E0FA
:1026600030E040E251E40E941702DC01CB018E0110
:10267000055B1F4FBC01CD010E944100DC01CB0175
:10268000F801918380831FC0FE01E75BFF4F88EC58
:1026900090E091838083FE01E75BFF4F8081918111
:1026A0000197F1F7FE01E75BFF4F91838083DE0125
:1026B000A55BBF4FFE01E55BFF4F808191810197D4
:1026C00011969C938E93FE01E55BFF4F8081918173
:1026D0000097D1F627C08E01055B1F4FFE01E35B1B
:1026E000FF4F60817181828193810E944100DC01F2
:1026F000CB01F80191838083DE01A95BBF4FFE010E
:10270000E55BFF4F808191818D939C93FE01E95B96
:10271000FF4F808191810197F1F7FE01E95BFF4F47
:102720009183808381E00E949B05FE01E755FF4F66
:102730008081882F90E0880F991F909581959F4FF9
:10274000282F215FCE0186549F4F62E040E00E9417
:102750000908FE01ED5BFF4F80E090E0A8E4B3E4E0
:1027600080839183A283B3838E01015C1F4FFE019E
:10277000ED5BFF4F608171818281938120E030E0C9
:102780004AEF54E40E941702DC01CB01F801808378
:102790009183A283B383FE01FF9660817181828160
:1027A000938120E030E040E85FE30E9471038823DA
:1027B0002CF481E090E09EAF8DAF46C0FE01FF9605
:1027C000608171818281938120E03FEF4FE757E480
:1027D0000E941103181664F5FE01ED5BFF4F608146
:1027E00071818281938120E030E040E251E40E94D7
:1027F0001702DC01CB01BC01CD010E944100DC01CC
:10280000CB019EAF8DAF0FC088EC90E09CAF8BAF3B
:102810008BAD9CAD0197F1F79CAF8BAF8DAD9EADAD
:1028200001979EAF8DAF8DAD9EAD009769F716C035
:10283000FE01FF9660817181828193810E94410037
:10284000DC01CB019EAF8DAF8DAD9EAD9AAF89AF50
:1028500089AD9AAD0197F1F79AAF89AFDE01A7551F
:10286000BF4FFE01E755FF4F80818F5F8C93FE01C4
:10287000E755FF4F8081883008F48ACE81E00E94BE
:102880009B05CE0186559F4F60E040E020E00E940E
:10289000090880E090E0A8E4B3E48DAB9EABAFAB59
:1028A000B8AF6DA97EA98FA998AD20E030E04AEFBE
:1028B00054E40E941702DC01CB0189AB9AABABABAD
:1028C000BCAB69A97AA98BA99CA920E030E040E8BB
:1028D0005FE30E94710388232CF481E090E098ABC1
:1028E0008FA73FC069A97AA98BA99CA920E03FEFD7
:1028F0004FE757E40E94110318164CF56DA97EA905
:102900008FA998AD20E030E040E251E40E94170228
:10291000DC01CB01BC01CD010E944100DC01CB01F7
:1029200098AB8FA70FC088EC90E09EA78DA78DA5D0
:102930009EA50197F1F79EA78DA78FA598A901974E
:1029400098AB8FA78FA598A9009769F714C069A9BC
:102950007AA98BA99CA90E944100DC01CB0198AB0C
:102960008FA78FA598A99CA78BA78BA59CA501973E
:10297000F1F79CA78BA781E00E949B0580E063E0B4
:102980000E94EB078BE890E00E94C20780E090E095
:10299000AAEFB3E48FA398A7A9A7BAA76FA178A5B8
:1029A00089A59AA520E030E04AEF54E40E9417027E
:1029B000DC01CB018BA39CA3ADA3BEA36BA17CA127
:1029C0008DA19EA120E030E040E85FE30E9471030A
:1029D00088232CF481E090E09AA389A33FC06BA1E7
:1029E0007CA18DA19EA120E03FEF4FE757E40E941C
:1029F000110318164CF56FA178A589A59AA520E0BA
:102A000030E040E251E40E941702DC01CB01BC013E
:102A1000CD010E944100DC01CB019AA389A30FC024
:102A200088EC90E098A38F8F8F8D98A10197F1F794
:102A300098A38F8F89A19AA101979AA389A389A1AD
:102A40009AA1009769F714C06BA17CA18DA19EA1EA
:102A50000E944100DC01CB019AA389A389A19AA11C
:102A60009E8F8D8F8D8D9E8D0197F1F79E8F8D8F0F
:102A7000FE01E755FF4F81E08083FDC0CE018E53FC
:102A80009F4F62E040E020E00E94090880E090E073
:102A9000A8E4B3E4898F9A8FAB8FBC8F698D7A8D50
:102AA0008B8D9C8D20E030E04AEF54E40E941702A9
:102AB000DC01CB018D8B9E8BAF8BB88F6D897E89AE
:102AC0008F89988D20E030E040E85FE30E94710339
:102AD00088232CF481E090E09C8B8B8B3FC06D8928
:102AE0007E898F89988D20E03FEF4FE757E40E9461
:102AF000110318164CF5698D7A8D8B8D9C8D20E015
:102B000030E040E251E40E941702DC01CB01BC013D
:102B1000CD010E944100DC01CB019C8B8B8B0FC04F
:102B200088EC90E09A8B898B89899A890197F1F7D3
:102B30009A8B898B8B899C8901979C8B8B8B8B893A
:102B40009C89009769F714C06D897E898F89988D5B
:102B50000E944100DC01CB019C8B8B8B8B899C8973
:102B6000988B8F878F8598890197F1F7988B8F873E
:102B7000CE0186549F4F62E040E020E00E940908A9
:102B800080E090E0A8E4B3E48B879C87AD87BE87A4
:102B90006B857C858D859E8520E030E04AEF54E48E
:102BA0000E941702DC01CB018F839887A987BA871F
:102BB0006F81788589859A8520E030E040E85FE381
:102BC0000E94710388232CF481E090E09E838D8322
:102BD0003FC06F81788589859A8520E03FEF4FE778
:102BE00057E40E94110318164CF56B857C858D8582
:102BF0009E8520E030E040E251E40E941702DC01B3
:102C0000CB01BC01CD010E944100DC01CB019E83C0
:102C10008D830FC088EC90E09C838B838B819C819B
:102C20000197F1F79C838B838D819E8101979E8311
:102C30008D838D819E81009769F714C06F8178859F
:102C400089859A850E944100DC01CB019E838D839A
:102C50008D819E819A83898389819A810197F1F779
:102C60009A838983DE01A755BF4FFE01E755FF4FC9
:102C700080818F5F8C93FE01E755FF4F8081883004
:102C800008F4FCCEFFCFA1E21A2EAA1BBB1BFD014C
:102C90000DC0AA1FBB1FEE1FFF1FA217B307E4073B
:102CA000F50720F0A21BB30BE40BF50B661F771F93
:102CB000881F991F1A9469F7609570958095909573
:102CC0009B01AC01BD01CF0108952F923F924F921D
:102CD0005F926F927F928F929F92AF92BF92CF92AC
:102CE000DF92EF92FF920F931F93CF93DF93CDB7B5
:102CF000DEB7CA1BDB0B0FB6F894DEBF0FBECDBF2D
:102D000009942A88398848885F846E847D848C84FD
:102D10009B84AA84B984C884DF80EE80FD800C8106
:102D20001B81AA81B981CE0FD11D0FB6F894DEBFE9
:0C2D30000FBECDBFED010895F894FFCF59
:102D3C0048656C6C6F2049616D0048616D6F6B73F9
:102D4C00686100492063616E20506C617900466FA8
:102D5C006F7462616C6C0052756E00492063616E19
:102D6C002044616E6365000000000000000000005C
:00000001FF
