:100000000C942A000C9447000C9447000C94470071
:100010000C9447000C9447000C9447000C94470044
:100020000C9447000C9447000C9447000C94470034
:100030000C9447000C9447000C9447000C94470024
:100040000C94C6060C9447000C9447000C9447008F
:100050000C94470011241FBECFE5D8E0DEBFCDBF12
:1000600010E0A0E6B0E0E8EDF9E202C005900D92E4
:10007000A837B107D9F710E0A8E7B0E001C01D929A
:10008000AD37B107E1F70E9440140C94EA140C94C8
:100090000000EF92FF920F931F937B018C0120E0F1
:1000A00030E040E05FE40E94490388238CF0C801FF
:1000B000B70120E030E040E05FE40E94C1010E940F
:1000C000A9039B01AC01205030404040504806C07D
:1000D000C801B7010E94A9039B01AC01B901CA0183
:1000E0001F910F91FF90EF900895A0E0B0E0EBE733
:1000F000F0E00C94B314DC012B01FA019C919230D6
:1001000008F439C1EB018881823008F433C194309E
:1001100069F4843009F02FC111969C91119789815F
:10012000981709F428C1A0E7B0E025C1843009F48C
:1001300021C18230A9F4923009F01DC19A01AD01AC
:1001400088E0EA010990AE01E90109929E0181501F
:10015000C1F7E201898111969C918923818308C1AD
:10016000923009F407C112962D903C901397EB0141
:100170008A819B811496AD90BD90CD90DC901797AD
:10018000EC80FD800E811F819101281B390BB90184
:1001900037FF04C066277727621B730B6032710537
:1001A0000CF061C0121613066CF537014801062EDB
:1001B00004C096948794779467940A94D2F721E0C8
:1001C00030E040E050E004C0220F331F441F551FB1
:1001D0006A95D2F721503040404050402E213F21B7
:1001E00040235123211531054105510521F021E01E
:1001F00030E040E050E079018A01E628F72808293C
:1002000019293CC0232BD1F1260E371E350146019A
:10021000062E04C096948794779467940A94D2F734
:1002200021E030E040E050E004C0220F331F441FC3
:10023000551F6A95D2F721503040404050402A2146
:100240003B214C215D21211531054105510521F04E
:1002500021E030E040E050E059016A01A628B728CB
:10026000C828D9280BC0821593052CF01C01AA249C
:10027000BB24650103C0EE24FF24870111969C91E5
:10028000D20111968C91981709F445C0992339F041
:10029000A80197012A193B094C095D0906C0A6016E
:1002A00095012E193F09400B510B57FD08C01182D3
:1002B0003382228224833583468357831DC081E0A5
:1002C00081833382228288279927DC01821B930B4A
:1002D000A40BB50B84839583A683B7830DC0220F2F
:1002E000331F441F551F24833583468357838281E0
:1002F000938101979383828324813581468157813D
:10030000DA01C9010197A109B1098F5F9F4FAF4F72
:10031000BF4328F30BC0918333822282EA0CFB1C7B
:100320000C1D1D1DE482F5820683178383E0808304
:10033000248135814681578157FF1AC0C901AA27F8
:1003400097FDA095BA2F81709070A070B0705695EF
:10035000479537952795822B932BA42BB52B848318
:100360009583A683B7838281938101969383828349
:10037000DF0101C0D201CD01CDB7DEB7E2E10C94BF
:10038000CF14A0E2B0E0E7ECF1E00C94BF14698375
:100390007A838B839C832D833E834F835887E9E048
:1003A000EE2EF12CEC0EFD1ECE010196B7010E943F
:1003B000D2048E010F5E1F4FCE010596B8010E9438
:1003C000D2048A8991E089278A8BC701B801AE01DE
:1003D000475E5F4F0E9475000E94FD03A096E6E015
:1003E0000C94DB14A0E2B0E0E8EFF1E00C94BF1451
:1003F00069837A838B839C832D833E834F835887C5
:10040000F9E0EF2EF12CEC0EFD1ECE010196B701A6
:100410000E94D2048E010F5E1F4FCE010596B801D7
:100420000E94D204C701B801AE01475E5F4F0E942F
:1004300075000E94FD03A096E6E00C94DB14A0E298
:10044000B0E0E5E2F2E00C94B31469837A838B8325
:100450009C832D833E834F835887CE010196BE0136
:10046000675F7F4F0E94D204CE010596BE016F5E8A
:100470007F4F0E94D2049985923088F0898982301A
:10048000C8F0943019F4823051F404C0843029F457
:10049000923081F480E790E0C6C0923049F420E0C9
:1004A0009A858A89981321E02A87CE010996BBC0D4
:1004B000823049F420E09A858A89981321E02A8BBA
:1004C000CE014196B0C02D843E844F8458886D88FB
:1004D0007E888F88988CEE24FF248701AA24BB2471
:1004E000650140E050E060E070E0E0E0F0E0C10174
:1004F00081709070892BE9F0E60CF71C081D191D1E
:100500009A01AB012A0D3B1D4C1D5D1D80E090E062
:10051000A0E0B0E0E614F7040805190520F481E036
:1005200090E0A0E0B0E0BA01A901480F591F6A1F8E
:100530007B1FAA0CBB1CCC1CDD1C97FE08C081E0F5
:1005400090E0A0E0B0E0A82AB92ACA2ADB2A3196B6
:10055000E032F10549F0660C771C881C991C569412
:10056000479437942794C3CFFA85EA892B893C892D
:100570008B859C85280F391F2E5F3F4F17C0CA01FE
:1005800081709070892B61F016950795F794E79428
:1005900080E090E0A0E0B0E8E82AF92A0A2B1B2BC3
:1005A00076956795579547952F5F3F4F77FDE7CF36
:1005B0000CC0440F551F661F771F17FD4160EE0CDE
:1005C000FF1C001F111F21503040403090E05907A0
:1005D00090E0690790E4790760F32B8F3C8FDB0193
:1005E000CA018F779070A070B07080349105A1051A
:1005F000B10561F447FD0AC0E114F10401051105DC
:1006000029F0405C5F4F6F4F7F4F40781A8EFE1786
:1006100011F081E08A8F4D8F5E8F6F8F78A383E01A
:10062000898FCE0149960E94FD03A096E2E10C94C9
:10063000CF14A8E1B0E0EFE1F3E00C94BF146983BC
:100640007A838B839C832D833E834F83588789E0F5
:10065000E82EF12CEC0EFD1ECE010196B7010E9492
:10066000D2048E010F5E1F4FCE010596B8010E9485
:10067000D2048985823040F08989823028F0C70110
:10068000B8010E944A0501C08FEF6896E6E00C941D
:10069000DB14A8E1B0E0EFE4F3E00C94BF1469834D
:1006A0007A838B839C832D833E834F83588789E095
:1006B000E82EF12CEC0EFD1ECE010196B7010E9432
:1006C000D2048E010F5E1F4FCE010596B8010E9425
:1006D000D2048985823040F08989823028F0C701B0
:1006E000B8010E944A0501C08FEF6896E6E00C94BD
:1006F000DB14A8E1B0E0EFE7F3E00C94BF146983EA
:100700007A838B839C832D833E834F83588789E034
:10071000E82EF12CEC0EFD1ECE010196B7010E94D1
:10072000D2048E010F5E1F4FCE010596B8010E94C4
:10073000D2048985823040F08989823028F0C7014F
:10074000B8010E944A0501C081E06896E6E00C9479
:10075000DB14ACE0B0E0EFEAF3E00C94C31469837F
:100760007A838B839C83CE010196BE016B5F7F4FA2
:100770000E94D2048D81823061F1823050F1843048
:1007800021F48E81882351F12EC02F81388537FDC9
:1007900020C06E812F3131051CF06623F9F023C093
:1007A0008EE190E0821B930B29853A854B855C8511
:1007B00004C056954795379527958A95D2F76623B5
:1007C000B1F050954095309521953F4F4F4F5F4F79
:1007D0000EC020E030E040E050E009C02FEF3FEFD6
:1007E0004FEF5FE704C020E030E040E050E8B9019F
:1007F000CA012C96E2E00C94DF14DF92EF92FF9294
:100800000F931F93FC01E480F58006811781D1804E
:100810008081823048F480E090E0A0E1B0E0E82AF6
:10082000F92A0A2B1B2BA5C0843009F49FC0823003
:1008300021F4EE24FF24870105C0E114F104010531
:10084000110519F4E0E0F0E096C0628173819FEF3A
:10085000623879070CF05BC022E83FEF261B370BAC
:100860002A3131052CF020E030E040E050E02AC091
:10087000B801A701022E04C0769567955795479554
:100880000A94D2F781E090E0A0E0B0E004C0880FC5
:10089000991FAA1FBB1F2A95D2F70197A109B10979
:1008A0008E219F21A023B1230097A105B10521F03E
:1008B00081E090E0A0E0B0E09A01AB01282B392B59
:1008C0004A2B5B2BDA01C9018F779070A070B07052
:1008D00080349105A105B10539F427FF09C0205CDA
:1008E0003F4F4F4F5F4F04C0215C3F4F4F4F5F4F13
:1008F000E0E0F0E02030A0E03A07A0E04A07A0E402
:100900005A0710F0E1E0F0E079018A0127C0603871
:10091000710564F5FB01E158FF4FD801C7018F77DE
:100920009070A070B07080349105A105B10539F4C4
:10093000E7FE0DC080E490E0A0E0B0E004C08FE3EB
:1009400090E0A0E0B0E0E80EF91E0A1F1B1F17FFA1
:1009500005C016950795F794E794319687E01695AC
:100960000795F794E7948A95D1F705C0EE24FF2404
:100970008701EFEFF0E06E2F679566276795902F60
:100980009F77D794DD24D7948E2F8695492F462BB9
:10099000582F5D29B701CA011F910F91FF90EF9069
:1009A000DF900895FC01DB01408151812281622F9B
:1009B0006F7770E0221F2227221F9381892F880FD3
:1009C000822B282F30E0991F9927991F11969C930D
:1009D000119721153105A9F54115510561057105DD
:1009E00011F482E037C082E89FEF13969C938E93B8
:1009F00012979A01AB0167E0220F331F441F551F66
:100A00006A95D1F783E08C930DC0220F331F441FEA
:100A1000551F12968D919C911397019713969C9355
:100A20008E931297203080E0380780E0480780E4FA
:100A3000580758F314962D933D934D935C93179755
:100A400008952F3F310579F4411551056105710570
:100A500019F484E08C93089564FF03C081E08C93C3
:100A600012C01C9210C02F57304013963C932E9307
:100A7000129783E08C9387E0440F551F661F771F02
:100A80008A95D1F7706414964D935D936D937C9322
:100A9000179708951F93DC01FB019C91923008F495
:100AA00047C08081823008F443C0943051F41196DD
:100AB0001C91843099F58181682F70E0611B710968
:100AC0003FC0843021F0923031F48230B9F181811D
:100AD000882389F12DC011961C9111978230F1F075
:100AE00081811817D9F412962D913C911397828128
:100AF00093818217930794F028173907BCF0149656
:100B00008D919D910D90BC91A02D248135814681C0
:100B10005781281739074A075B0718F4112341F05A
:100B20000AC082179307A407B50740F4112319F0F0
:100B300061E070E005C06FEF7FEF02C060E070E041
:100B4000CB011F910895DF93CF93CDB7DEB7A7E216
:100B5000B0E0E7E2F0E0808180648C93A7E2B0E04F
:100B6000E7E2F0E080818F778C93A7E2B0E0E7E2E4
:100B7000F0E0808180628C93A6E2B0E0E6E2F0E0F3
:100B8000808184608C93A6E2B0E0E6E2F0E08081B0
:100B90008D7F8C93A6E2B0E0E6E2F0E08081816098
:100BA0008C93A6E2B0E0E6E2F0E0808180688C936E
:100BB000CF91DF910895DF93CF93CDB7DEB728971C
:100BC0000FB6F894DEBF0FBECDBF8E8378876F83DC
:100BD0001A821B821C821D82198280917C008823CC
:100BE00009F05EC081E080937C00A7E2B0E0E7E21C
:100BF000F0E08081807E8C93A7E2B0E0E7E2F0E055
:100C000090818E81892B8C93A6E2B0E0E6E2F0E041
:100C1000808180648C930BC08A819B81AC81BD8173
:100C20000196A11DB11D8A839B83AC83BD83E6E23F
:100C3000F0E0808182958F70882F90E081709070B5
:100C4000009761F48A819B81AC81BD81803523EC62
:100C5000920720E0A20720E0B207F0F28A819B8190
:100C6000AC81BD81803523EC920720E0A20720E013
:100C7000B20719F481E0898315C0A6E2B0E0E6E28C
:100C8000F0E0808180618C93E5E2F0E08081882F44
:100C900090E0EF81F8859183808310927C0002C000
:100CA00081E08983898128960FB6F894DEBF0FBE54
:100CB000CDBFCF91DF910895DF93CF9300D000D0C7
:100CC00000D0CDB7DEB78A837C836B835E834D8390
:100CD000198280917C008823C1F58B819C810097CB
:100CE00021F08D819E81009719F481E089832FC0C6
:100CF00081E080937C008B819C819093790080932C
:100D000078008D819E8190937B0080937A00A7E28A
:100D1000B0E0E7E2F0E08081807E8C93A7E2B0E073
:100D2000E7E2F0E090818A81892B8C93A6E2B0E023
:100D3000E6E2F0E0808180648C93A6E2B0E0E6E237
:100D4000F0E0808188608C9302C081E08983898192
:100D500026960FB6F894DEBF0FBECDBFCF91DF91C0
:100D60000895DF93CF9300D0CDB7DEB79A83898300
:100D7000E5E2F0E08081882F90E0E981FA819183BB
:100D800080830F900F90CF91DF9108951F920F9263
:100D90000FB60F9211242F933F934F935F936F934E
:100DA0007F938F939F93AF93BF93EF93FF93DF93C3
:100DB000CF93CDB7DEB7A0917800B0917900E5E28E
:100DC000F0E08081882F90E08D939C9310927C00BE
:100DD000E0917A00F0917B000995A6E2B0E0E6E2AE
:100DE000F0E08081877F8C93CF91DF91FF91EF912D
:100DF000BF91AF919F918F917F916F915F914F9133
:100E00003F912F910F900FBE0F901F901895DF9379
:100E1000CF93CDB7DEB76D970FB6F894DEBF0FBE98
:100E2000CDBF8D8F82E060E040E00E94321282E010
:100E300061E040E00E9432128D8D881F8827881F54
:100E4000813031F480E067E041E00E94321205C059
:100E500080E067E040E00E9432128D8D8295869599
:100E600086958370882F90E081709070882331F090
:100E700080E066E041E00E94321205C080E066E05A
:100E800040E00E9432128D8D829586958770882F62
:100E900090E081709070882331F080E065E041E05F
:100EA0000E94321205C080E065E040E00E943212EC
:100EB0008D8D82958F70882F90E08170907088233F
:100EC00031F080E064E041E00E94321205C080E031
:100ED00064E040E00E94321282E062E041E00E9461
:100EE000321280E090E0A0E0B0E4898F9A8FAB8F5F
:100EF000BC8F698D7A8D8B8D9C8D20E030E04AEF20
:100F000054E40E941F02DC01CB018D8B9E8BAF8BC2
:100F1000B88F6D897E898F89988D20E030E040E818
:100F20005FE30E94790388232CF481E090E09C8B9E
:100F30008B8B3FC06D897E898F89988D20E03FEF34
:100F40004FE757E40E94190318164CF5698D7A8D06
:100F50008B8D9C8D20E030E040E251E40E941F0226
:100F6000DC01CB01BC01CD010E944900DC01CB01B9
:100F70009C8B8B8B0FC088EC90E09A8B898B898936
:100F80009A890197F1F79A8B898B8B899C890197B4
:100F90009C8B8B8B8B899C89009769F714C06D891A
:100FA0007E898F89988D0E944900DC01CB019C8B42
:100FB0008B8B8B899C89988B8F878F8598890197DC
:100FC000F1F7988B8F8782E062E040E00E94321256
:100FD0008D8D869586958695882F90E0817090708E
:100FE000882331F080E067E041E00E94321205C0C2
:100FF00080E067E040E00E9432128D8D86958695F4
:10100000882F90E081709070882331F080E066E056
:1010100041E00E94321205C080E066E040E00E949C
:1010200032128D8D8695882F90E081709070882384
:1010300031F080E065E041E00E94321205C080E0BE
:1010400065E040E00E9432128D8D882F90E0817023
:101050009070882331F080E064E041E00E94321219
:1010600005C080E064E040E00E94321282E062E06D
:1010700041E00E94321280E090E0A0E0B0E48B8773
:101080009C87AD87BE876B857C858D859E8520E09E
:1010900030E04AEF54E40E941F02DC01CB018F8351
:1010A0009887A987BA876F81788589859A8520E096
:1010B00030E040E85FE30E94790388232CF481E06C
:1010C00090E09E838D833FC06F81788589859A8566
:1010D00020E03FEF4FE757E40E94190318164CF544
:1010E0006B857C858D859E8520E030E040E251E473
:1010F0000E941F02DC01CB01BC01CD010E9449000E
:10110000DC01CB019E838D830FC088EC90E09C8333
:101110008B838B819C810197F1F79C838B838D81DD
:101120009E8101979E838D838D819E81009769F7B3
:1011300014C06F81788589859A850E944900DC01F9
:10114000CB019E838D838D819E819A838983898142
:101150009A810197F1F79A83898382E062E040E007
:101160000E9432126D960FB6F894DEBF0FBECDBF4F
:10117000CF91DF910895DF93CF93CDB7DEB76D9711
:101180000FB6F894DEBF0FBECDBF8D8F82E060E05A
:1011900041E00E94321282E061E040E00E9432129F
:1011A0008D8D881F8827881F813031F480E067E0AB
:1011B00041E00E94321205C080E067E040E00E94FA
:1011C00032128D8D8295869586958370882F90E05A
:1011D00081709070882331F080E066E041E00E94E9
:1011E000321205C080E066E040E00E9432128D8D30
:1011F000829586958770882F90E081709070882303
:1012000031F080E065E041E00E94321205C080E0EC
:1012100065E040E00E9432128D8D82958F70882F9C
:1012200090E081709070882331F080E064E041E0CC
:101230000E94321205C080E064E040E00E94321259
:1012400082E062E041E00E94321280E090E0A0E0A3
:10125000B0E4898F9A8FAB8FBC8F698D7A8D8B8D1F
:101260009C8D20E030E04AEF54E40E941F02DC0134
:10127000CB018D8B9E8BAF8BB88F6D897E898F89CB
:10128000988D20E030E040E85FE30E9479038823F6
:101290002CF481E090E09C8B8B8B3FC06D897E8924
:1012A0008F89988D20E03FEF4FE757E40E941903A4
:1012B00018164CF5698D7A8D8B8D9C8D20E030E071
:1012C00040E251E40E941F02DC01CB01BC01CD01D0
:1012D0000E944900DC01CB019C8B8B8B0FC088ECFA
:1012E00090E09A8B898B89899A890197F1F79A8B7B
:1012F000898B8B899C8901979C8B8B8B8B899C8993
:10130000009769F714C06D897E898F89988D0E9436
:101310004900DC01CB019C8B8B8B8B899C89988B42
:101320008F878F8598890197F1F7988B8F8782E057
:1013300062E040E00E9432128D8D869586958695FA
:10134000882F90E081709070882331F080E067E012
:1013500041E00E94321205C080E067E040E00E9458
:1013600032128D8D86958695882F90E081709070D1
:10137000882331F080E066E041E00E94321205C02F
:1013800080E066E040E00E9432128D8D8695882FC5
:1013900090E081709070882331F080E065E041E05A
:1013A0000E94321205C080E065E040E00E943212E7
:1013B0008D8D882F90E081709070882331F080E0CF
:1013C00064E041E00E94321205C080E064E040E049
:1013D0000E94321282E062E041E00E94321280E01C
:1013E00090E0A0E0B0E48B879C87AD87BE876B85DB
:1013F0007C858D859E8520E030E04AEF54E40E9494
:101400001F02DC01CB018F839887A987BA876F8180
:10141000788589859A8520E030E040E85FE30E9486
:10142000790388232CF481E090E09E838D833FC074
:101430006F81788589859A8520E03FEF4FE757E4F3
:101440000E94190318164CF56B857C858D859E8549
:1014500020E030E040E251E40E941F02DC01CB01B9
:10146000BC01CD010E944900DC01CB019E838D832C
:101470000FC088EC90E09C838B838B819C810197CB
:10148000F1F79C838B838D819E8101979E838D8351
:101490008D819E81009769F714C06F817885898559
:1014A0009A850E944900DC01CB019E838D838D814A
:1014B0009E819A83898389819A810197F1F79A8322
:1014C000898382E062E040E00E9432126D960FB69E
:1014D000F894DEBF0FBECDBFCF91DF9108950F937B
:1014E0001F93DF93CF93CDB7DEB7C856D0400FB66A
:1014F000F894DEBF0FBECDBFFE01ED59FF4F8083D4
:10150000FE01EC59FF4F608380E067E041E00E94FC
:10151000D81080E066E041E00E94D81080E065E0ED
:1015200041E00E94D81080E064E041E00E94D810C1
:1015300082E060E041E00E94D81082E061E041E09A
:101540000E94D81082E062E041E00E94D810FE01C3
:10155000E15AFF4F80E090E0A0E2B2E48083918303
:10156000A283B3838E01055A1F4FFE01E15AFF4F3C
:10157000608171818281938120E030E04AEF54E400
:101580000E941F02DC01CB01F80180839183A283BA
:10159000B383FE01E55AFF4F60817181828193819F
:1015A00020E030E040E85FE30E947903882344F4C0
:1015B000FE01E75AFF4F81E090E09183808364C091
:1015C000FE01E55AFF4F608171818281938120E0A5
:1015D0003FEF4FE757E40E94190318160CF043C081
:1015E000FE01E15AFF4F608171818281938120E089
:1015F00030E040E251E40E941F02DC01CB018E0189
:10160000075A1F4FBC01CD010E944900DC01CB01EC
:10161000F801918380831FC0FE01E95AFF4F88ECD7
:1016200090E091838083FE01E95AFF4F8081918190
:101630000197F1F7FE01E95AFF4F91838083DE01A4
:10164000A75ABF4FFE01E75AFF4F80819181019752
:1016500011969C938E93FE01E75AFF4F80819181F2
:101660000097D1F627C08E01075A1F4FFE01E55A99
:10167000FF4F60817181828193810E944900DC016A
:10168000CB01F80191838083DE01AB5ABF4FFE018D
:10169000E75AFF4F808191818D939C93FE01EB5A15
:1016A000FF4F808191810197F1F7FE01EB5AFF4FC7
:1016B0009183808382E060E040E00E94321282E009
:1016C00061E040E00E94321280E067E040E00E946A
:1016D000321280E066E040E00E94321280E065E075
:1016E00041E00E94321280E064E040E00E94321249
:1016F00082E062E041E00E943212FE01EF5AFF4FA9
:1017000080E090E0A0E0B0E480839183A283B38383
:101710008E01035B1F4FFE01EF5AFF4F6081718105
:101720008281938120E030E04AEF54E40E941F025E
:10173000DC01CB01F80180839183A283B383FE0196
:10174000E35BFF4F608171818281938120E030E013
:1017500040E85FE30E947903882344F4FE01E55BDF
:10176000FF4F81E090E09183808364C0FE01E35BE2
:10177000FF4F608171818281938120E03FEF4FE7CD
:1017800057E40E94190318160CF043C0FE01EF5AEB
:10179000FF4F608171818281938120E030E040E2DF
:1017A00051E40E941F02DC01CB018E01055B1F4F3B
:1017B000BC01CD010E944900DC01CB01F8019183FD
:1017C00080831FC0FE01E75BFF4F88EC90E09183B0
:1017D0008083FE01E75BFF4F808191810197F1F7E4
:1017E000FE01E75BFF4F91838083DE01A55BBF4F66
:1017F000FE01E55BFF4F80819181019711969C93DB
:101800008E93FE01E55BFF4F808191810097D1F6B9
:1018100027C08E01055B1F4FFE01E35BFF4F608118
:101820007181828193810E944900DC01CB01F80122
:1018300091838083DE01A95BBF4FFE01E55BFF4F13
:10184000808191818D939C93FE01E95BFF4F8081A4
:1018500091810197F1F7FE01E95BFF4F918380834E
:1018600082E062E040E00E94321280E067E040E007
:101870000E94321280E066E040E00E94321280E076
:1018800065E041E00E94321280E064E040E00E94A6
:10189000321282E062E041E00E943212FE01ED5B12
:1018A000FF4F80E090E0A0E0B0E480839183A283CA
:1018B000B3838E01015C1F4FFE01ED5BFF4F608122
:1018C00071818281938120E030E04AEF54E40E94EC
:1018D0001F02DC01CB01F80180839183A283B383D3
:1018E000FE01FF96608171818281938120E030E06A
:1018F00040E85FE30E94790388232CF481E090E0C4
:101900009EAF8DAF46C0FE01FF96608171818281DE
:10191000938120E03FEF4FE757E40E941903181628
:1019200064F5FE01ED5BFF4F6081718182819381DF
:1019300020E030E040E251E40E941F02DC01CB01D4
:10194000BC01CD010E944900DC01CB019EAF8DAFEF
:101950000FC088EC90E09CAF8BAF8BAD9CAD019736
:10196000F1F79CAF8BAF8DAD9EAD01979EAF8DAF64
:101970008DAD9EAD009769F716C0FE01FF966081A0
:101980007181828193810E944900DC01CB019EAF6D
:101990008DAF8DAD9EAD9AAF89AF89AD9AAD0197F0
:1019A000F1F79AAF89AF82E062E040E00E94321224
:1019B000FE01ED59FF4F8081282F30E0A9963FAFFF
:1019C0002EAFA997A9968EAD9FADA99784339105A7
:1019D00009F4B5C1A996EEADFFADA997E533F105C0
:1019E0004CF4A9962EAD3FADA9972033310509F4EB
:1019F0001FC12BC2A9968EAD9FADA99788339105C3
:101A000049F0A996EEADFFADA997EC33F10509F4C5
:101A100088C01BC280E067E041E00E94321280E093
:101A200066E040E00E94321282E062E041E00E9403
:101A3000321280E090E0A0E0B0E48DAB9EABAFABA3
:101A4000B8AF6DA97EA98FA998AD20E030E04AEF2C
:101A500054E40E941F02DC01CB0189AB9AABABAB13
:101A6000BCAB69A97AA98BA99CA920E030E040E829
:101A70005FE30E94790388232CF481E090E098AB27
:101A80008FA73FC069A97AA98BA99CA920E03FEF45
:101A90004FE757E40E94190318164CF56DA97EA96B
:101AA0008FA998AD20E030E040E251E40E941F028F
:101AB000DC01CB01BC01CD010E944900DC01CB015E
:101AC00098AB8FA70FC088EC90E09EA78DA78DA53F
:101AD0009EA50197F1F79EA78DA78FA598A90197BD
:101AE00098AB8FA78FA598A9009769F714C069A92B
:101AF0007AA98BA99CA90E944900DC01CB0198AB73
:101B00008FA78FA598A99CA78BA78BA59CA50197AC
:101B1000F1F79CA78BA782E062E040E00E943212BE
:101B200094C180E067E041E00E94321280E066E00C
:101B300041E00E94321282E062E041E00E943212F3
:101B400080E090E0A0E0B0E48FA398A7A9A7BAA78F
:101B50006FA178A589A59AA520E030E04AEF54E46A
:101B60000E941F02DC01CB018BA39CA3ADA3BEA3EB
:101B70006BA17CA18DA19EA120E030E040E85FE355
:101B80000E94790388232CF481E090E09AA389A332
:101B90003FC06BA17CA18DA19EA120E03FEF4FE74C
:101BA00057E40E94190318164CF56FA178A589A572
:101BB0009AA520E030E040E251E40E941F02DC01DF
:101BC000CB01BC01CD010E944900DC01CB019AA3ED
:101BD00089A30FC088EC90E098A38F8F8F8D98A178
:101BE0000197F1F798A38F8F89A19AA101979AA3E2
:101BF00089A389A19AA1009769F714C06BA17CA160
:101C00008DA19EA10E944900DC01CB019AA389A36A
:101C100089A19AA19E8F8D8F8D8D9E8D0197F1F751
:101C20009E8F8D8F82E062E040E00E9432120DC1F3
:101C300080E067E040E00E94321280E066E040E031
:101C40000E94321282E062E041E00E94321280E0A3
:101C500090E0A0E0B0E4898F9A8FAB8FBC8F698D44
:101C60007A8D8B8D9C8D20E030E04AEF54E40E9409
:101C70001F02DC01CB018D8B9E8BAF8BB88F6D89E2
:101C80007E898F89988D20E030E040E85FE30E94F4
:101C9000790388232CF481E090E09C8B8B8B3FC0F0
:101CA0006D897E898F89988D20E03FEF4FE757E45B
:101CB0000E94190318164CF5698D7A8D8B8D9C8DB9
:101CC00020E030E040E251E40E941F02DC01CB0141
:101CD000BC01CD010E944900DC01CB019C8B8B8BA8
:101CE0000FC088EC90E09A8B898B89899A8901973B
:101CF000F1F79A8B898B8B899C8901979C8B8B8BB5
:101D00008B899C89009769F714C06D897E898F89BA
:101D1000988D0E944900DC01CB019C8B8B8B8B89B9
:101D20009C89988B8F878F8598890197F1F7988B7D
:101D30008F8782E062E040E00E94321286C080E03D
:101D400067E040E00E94321280E066E041E00E94DD
:101D5000321282E062E041E00E94321280E090E0C4
:101D6000A0E0B0E48B879C87AD87BE876B857C85C0
:101D70008D859E8520E030E04AEF54E40E941F02EA
:101D8000DC01CB018F839887A987BA876F8178851B
:101D900089859A8520E030E040E85FE30E9479037E
:101DA00088232CF481E090E09E838D833FC06F8177
:101DB000788589859A8520E03FEF4FE757E40E94B8
:101DC000190318164CF56B857C858D859E8520E062
:101DD00030E040E251E40E941F02DC01CB01BC0173
:101DE000CD010E944900DC01CB019E838D830FC091
:101DF00088EC90E09C838B838B819C810197F1F729
:101E00009C838B838D819E8101979E838D838D81A1
:101E10009E81009769F714C06F81788589859A85BE
:101E20000E944900DC01CB019E838D838D819E81C0
:101E30009A83898389819A810197F1F79A838983AB
:101E400082E062E040E00E943212FE01EC59FF4F56
:101E50008081282F30E0A7963FAF2EAFA797A79697
:101E60008EAD9FADA7978E30910591F0A796EEAD00
:101E7000FFADA797EF30F10579F0A7962EAD3FADF6
:101E8000A7972C30310559F48CE00E94070707C052
:101E90008EE00E94070703C08FE00E94070781E0E1
:101EA0000E940707C859DF4F0FB6F894DEBF0FBE78
:101EB000CDBFCF91DF911F910F910895DF93CF9305
:101EC00000D00F92CDB7DEB79B838A83198215C0ED
:101ED0008981282F30E08A819B81FC01E20FF31F6A
:101EE00080810E94BB0889818F5F898389818031CD
:101EF00021F481E060E00E948E0F8981282F30E07C
:101F00008A819B81FC01E20FF31F8081882301F706
:101F10000F900F900F90CF91DF910895DF93CF93A3
:101F200000D00F92CDB7DEB78A836B838A81882376
:101F300019F48B81898306C08A81813019F48B81E1
:101F4000805C8983898180580E9407070F900F90D9
:101F50000F90CF91DF910895DF93CF93CDB7DEB788
:101F600027970FB6F894DEBF0FBECDBF9C838B833F
:101F70006D834E832F838D81882F90E0880F991F6A
:101F8000880F991F880F991F89838981805C0E941F
:101F900007071A820EC08A81282F30E08B819C812E
:101FA000FC01E20FF31F80810E94BB088A818F5FD2
:101FB0008A838A81883078F38E816F810E948E0FA8
:101FC0008D810E94BB0827960FB6F894DEBF0FBE26
:101FD000CDBFCF91DF9108950F931F93DF93CF93E0
:101FE000CDB7DEB76B970FB6F894DEBF0FBECDBF8F
:101FF0006C8B7D8B8E8B9F8B80E1FE013496DF0195
:10200000282F1D922A95E9F780E38C8319828C8909
:102010009D89AE89BF890097A105B10591F580E33F
:102020000E94BB0899C08981082F10E08C899D8986
:10203000AE89BF892AE030E040E050E0BC01CD012C
:102040000E949114DC01CB01282F205DCE01049663
:10205000FC01E00FF11F20838C899D89AE89BF8927
:102060002AE030E040E050E0BC01CD010E94911434
:10207000DA01C9018C8B9D8BAE8BBF8B89818F5F01
:1020800089838C899D89AE89BF890097A105B10597
:1020900051F68981282F30E0CE010496FC01E20F31
:1020A000F31F10828981815089831B8233C08B8109
:1020B000282F30E0CE010496FC01E20FF31F80814F
:1020C0008A838B81482F50E08981282F30E08B81D3
:1020D000882F90E0281B390BCE010496FC01E20FFB
:1020E000F31F2081CE010496FC01E40FF51F20832D
:1020F0008981282F30E08B81882F90E0281B390BB5
:10210000CE010496FC01E20FF31F8A8180838B814C
:102110008F5F8B838B81A82FB0E0B98FA88F8981C7
:10212000882F90E001969B8F8A8F2A8D3B8D3323D9
:102130002CF48A8D9B8D01969B8F8A8F8A8D9B8D27
:1021400095958795A88DB98DA817B9070CF4AFCFD1
:10215000CE0104960E945E0F6B960FB6F894DEBF18
:102160000FBECDBFCF91DF911F910F910895DF93E7
:10217000CF93CDB7DEB7EAE3F0E01082E7E3F0E01B
:102180008FEF8083E4E3F0E01082E1E3F0E083E0AE
:102190008083EBE3F0E01082E8E3F0E01082E5E317
:1021A000F0E01082E2E3F0E01082CF91DF91089539
:1021B000DF93CF93CDB7DEB728970FB6F894DEBF85
:1021C0000FBECDBF8A836B834C8319828B8188308D
:1021D00008F0F4C08C81882309F077C08A81282F09
:1021E00030E038872F838F8198858130910559F1B0
:1021F0002F813885223031052CF48F819885009706
:1022000069F060C02F8138852230310589F18F81D6
:1022100098858330910509F440C054C0AAE3B0E02A
:10222000EAE3F0E08081482F8B81282F30E081E0C5
:1022300090E0022E02C0880F991F0A94E2F7809561
:1022400084238C93BDC0A7E3B0E0E7E3F0E0808196
:10225000482F8B81282F30E081E090E0022E02C0D1
:10226000880F991F0A94E2F7809584238C93A8C065
:10227000A4E3B0E0E4E3F0E08081482F8B81282FD5
:1022800030E081E090E0022E02C0880F991F0A948E
:10229000E2F7809584238C9393C0A1E3B0E0E1E35F
:1022A000F0E08081482F8B81282F30E081E090E0A2
:1022B000022E02C0880F991F0A94E2F780958423AA
:1022C0008C937EC081E089837BC08C81813009F052
:1022D00072C08A81282F30E03E832D838D819E81BC
:1022E0008130910549F12D813E81223031052CF458
:1022F0008D819E81009761F05BC02D813E812230EF
:10230000310571F18D819E8183309105E9F150C0D5
:10231000AAE3B0E0EAE3F0E08081482F8B81282F28
:1023200030E081E090E0022E02C0880F991F0A94ED
:10233000E2F7842B8C9344C0A7E3B0E0E7E3F0E03E
:102340008081482F8B81282F30E081E090E0022EA1
:1023500002C0880F991F0A94E2F7842B8C9330C037
:10236000A4E3B0E0E4E3F0E08081482F8B81282FE4
:1023700030E081E090E0022E02C0880F991F0A949D
:10238000E2F7842B8C931CC0A1E3B0E0E1E3F0E022
:102390008081482F8B81282F30E081E090E0022E51
:1023A00002C0880F991F0A94E2F7842B8C9308C00F
:1023B00081E0898305C081E0898302C081E089834F
:1023C000898128960FB6F894DEBF0FBECDBFCF919E
:1023D000DF910895DF93CF9300D000D00F92CDB757
:1023E000DEB78A836B8319828A81282F30E03D8390
:1023F0002C838C819D8181309105D1F02C813D8190
:10240000223031052CF48C819D81009761F01FC032
:102410002C813D812230310581F08C819D8183307A
:10242000910581F014C0EAE3F0E08B81808311C054
:10243000E7E3F0E08B8180830CC0E4E3F0E08B8184
:10244000808307C0E1E3F0E08B81808302C081E0FC
:10245000898389810F900F900F900F900F90CF91EB
:10246000DF910895DF93CF93CDB7DEB728970FB6EE
:10247000F894DEBF0FBECDBF8A836B834C83198275
:102480008B81883008F0F4C08C81882309F077C0F4
:102490008A81282F30E038872F838F81988581307B
:1024A000910559F12F813885223031052CF48F8127
:1024B0009885009769F060C02F81388522303105FA
:1024C00089F18F8198858330910509F440C054C00B
:1024D000ABE3B0E0EBE3F0E08081482F8B81282F65
:1024E00030E081E090E0022E02C0880F991F0A942C
:1024F000E2F7809584238C93BDC0A8E3B0E0E8E3C5
:10250000F0E08081482F8B81282F30E081E090E03F
:10251000022E02C0880F991F0A94E2F78095842347
:102520008C93A8C0A5E3B0E0E5E3F0E08081482FFC
:102530008B81282F30E081E090E0022E02C0880FCE
:10254000991F0A94E2F7809584238C9393C0A2E3A9
:10255000B0E0E2E3F0E08081482F8B81282F30E06B
:1025600081E090E0022E02C0880F991F0A94E2F7E2
:10257000809584238C937EC081E089837BC08C818D
:10258000813009F072C08A81282F30E03E832D838C
:102590008D819E818130910549F12D813E812230CE
:1025A00031052CF48D819E81009761F05BC02D81F7
:1025B0003E812230310571F18D819E8183309105FC
:1025C000E9F150C0ABE3B0E0EBE3F0E08081482FED
:1025D0008B81282F30E081E090E0022E02C0880F2E
:1025E000991F0A94E2F7842B8C9344C0A8E3B0E0CF
:1025F000E8E3F0E08081482F8B81282F30E081E0F4
:1026000090E0022E02C0880F991F0A94E2F7842BF3
:102610008C9330C0A5E3B0E0E5E3F0E08081482F83
:102620008B81282F30E081E090E0022E02C0880FDD
:10263000991F0A94E2F7842B8C931CC0A2E3B0E0AC
:10264000E2E3F0E08081482F8B81282F30E081E0A9
:1026500090E0022E02C0880F991F0A94E2F7842BA3
:102660008C9308C081E0898305C081E0898302C022
:1026700081E08983898128960FB6F894DEBF0FBE6A
:10268000CDBFCF91DF910895DF93CF9300D000D0DD
:102690000F92CDB7DEB78A836B8319828A81282F88
:1026A00030E03D832C838C819D8181309105D1F078
:1026B0002C813D81223031052CF48C819D81009745
:1026C00061F01FC02C813D812230310581F08C8169
:1026D0009D818330910581F014C0EBE3F0E08B81A4
:1026E000808311C0E8E3F0E08B8180830CC0E5E3D8
:1026F000F0E08B81808307C0E2E3F0E08B81808390
:1027000002C081E0898389810F900F900F900F9014
:102710000F90CF91DF910895DF93CF93CDB7DEB7C0
:1027200027970FB6F894DEBF0FBECDBF8A836B83A9
:102730005D834C8319828C819D81009709F478C058
:102740008B81883008F074C08A81282F30E03F8365
:102750002E834E815F814130510559F18E819F81D9
:102760008230910534F42E813F812115310569F0C5
:102770005CC04E815F814230510579F18E819F812D
:102780008330910509F43DC050C0E9E3F0E0808159
:10279000282F30E08B81882F90E0A90102C0559549
:1027A00047958A95E2F7CA018170EC81FD818083AB
:1027B00041C0E6E3F0E08081282F30E08B81882F54
:1027C00090E0A90102C0559547958A95E2F7CA01A4
:1027D0008170EC81FD8180832DC0E3E3F0E0808196
:1027E000282F30E08B81882F90E0A90102C05595F9
:1027F00047958A95E2F7CA018170EC81FD8180835B
:1028000019C0E0E3F0E08081282F30E08B81882F31
:1028100090E0A90102C0559547958A95E2F7CA0153
:102820008170EC81FD81808305C081E0898302C0D5
:1028300081E08983898127960FB6F894DEBF0FBEA9
:10284000CDBFCF91DF910895DF93CF93CDB7DEB7A2
:10285000AFE5B0E0EFE5F0E0808180688C93CF9148
:10286000DF910895DF93CF93CDB7DEB7AFE5B0E04A
:10287000EFE5F0E080818F778C93CF91DF91089521
:10288000DF93CF9300D000D0CDB7DEB71C821B8280
:102890001A8219820E94B7108CE36CE00E946F0AC2
:1028A0000E94A30580E690E00E945E0F9E012D5FCE
:1028B0003F4F80E0B9010E94DB058B819C818F3FF7
:1028C0009105F9F489818823E1F48A818F5F8A83F5
:1028D00080E06EE00E948E0F8A81882F90E0A0E059
:1028E000B0E0BC01CD010E94EC0F83E061E041E06B
:1028F0000E94321283E060E041E00E94321281E0E7
:1029000089838B819C81009789F683E061E040E0B8
:102910000E94321283E060E040E00E94321219828D
:10292000C5CFA1E21A2EAA1BBB1BFD010DC0AA1F19
:10293000BB1FEE1FFF1FA217B307E407F50720F028
:10294000A21BB30BE40BF50B661F771F881F991FA3
:102950001A9469F760957095809590959B01AC01EC
:10296000BD01CF0108952F923F924F925F926F92D7
:102970007F928F929F92AF92BF92CF92DF92EF920F
:10298000FF920F931F93CF93DF93CDB7DEB7CA1B90
:10299000DB0B0FB6F894DEBF0FBECDBF09942A88BB
:1029A000398848885F846E847D848C849B84AA8463
:1029B000B984C884DF80EE80FD800C811B81AA81F0
:1029C000B981CE0FD11D0FB6F894DEBF0FBECDBFBB
:0829D000ED010895F894FFCF1A
:1029D800546F74616C20436172206E6F203D30002B
:0829E8000000000000000000E7
:00000001FF
