:100000000C942A000C94A3050C94D0050C94FD05C7
:100010000C9447000C9447000C9447000C94470044
:100020000C9447000C9447000C9447000C94470034
:100030000C9447000C9447000C9447000C94470024
:100040000C9447000C9447000C9447000C94470014
:100050000C94470011241FBECFE5D8E0DEBFCDBF12
:1000600010E0A0E6B0E0E2EAF6E302C005900D92EF
:10007000A237B107D9F710E0A2E7B0E001C01D92A6
:10008000A837B107E1F70E949C180C944F1B0C9401
:100090000000EF92FF920F931F937B018C0120E0F1
:1000A00030E040E05FE40E94490388238CF0C801FF
:1000B000B70120E030E040E05FE40E94C1010E940F
:1000C000A9039B01AC01205030404040504806C07D
:1000D000C801B7010E94A9039B01AC01B901CA0183
:1000E0001F910F91FF90EF900895A0E0B0E0EBE733
:1000F000F0E00C94181BDC012B01FA019C9192306A
:1001000008F439C1EB018881823008F433C194309E
:1001100069F4843009F02FC111969C91119789815F
:10012000981709F428C1A0E6B0E025C1843009F48D
:1001300021C18230A9F4923009F01DC19A01AD01AC
:1001400088E0EA010990AE01E90109929E0181501F
:10015000C1F7E201898111969C918923818308C1AD
:10016000923009F407C112962D903C901397EB0141
:100170008A819B811496AD90BD90CD90DC901797AD
:10018000EC80FD800E811F819101281B390BB90184
:1001900037FF04C066277727621B730B6032710537
:1001A0000CF061C0121613066CF537014801062EDB
:1001B00004C096948794779467940A94D2F721E0C8
:1001C00030E040E050E004C0220F331F441F551FB1
:1001D0006A95D2F721503040404050402E213F21B7
:1001E00040235123211531054105510521F021E01E
:1001F00030E040E050E079018A01E628F72808293C
:1002000019293CC0232BD1F1260E371E350146019A
:10021000062E04C096948794779467940A94D2F734
:1002200021E030E040E050E004C0220F331F441FC3
:10023000551F6A95D2F721503040404050402A2146
:100240003B214C215D21211531054105510521F04E
:1002500021E030E040E050E059016A01A628B728CB
:10026000C828D9280BC0821593052CF01C01AA249C
:10027000BB24650103C0EE24FF24870111969C91E5
:10028000D20111968C91981709F445C0992339F041
:10029000A80197012A193B094C095D0906C0A6016E
:1002A00095012E193F09400B510B57FD08C01182D3
:1002B0003382228224833583468357831DC081E0A5
:1002C00081833382228288279927DC01821B930B4A
:1002D000A40BB50B84839583A683B7830DC0220F2F
:1002E000331F441F551F24833583468357838281E0
:1002F000938101979383828324813581468157813D
:10030000DA01C9010197A109B1098F5F9F4FAF4F72
:10031000BF4328F30BC0918333822282EA0CFB1C7B
:100320000C1D1D1DE482F5820683178383E0808304
:10033000248135814681578157FF1AC0C901AA27F8
:1003400097FDA095BA2F81709070A070B0705695EF
:10035000479537952795822B932BA42BB52B848318
:100360009583A683B7838281938101969383828349
:10037000DF0101C0D201CD01CDB7DEB7E2E10C94BF
:10038000341BA0E2B0E0E7ECF1E00C94241B69839D
:100390007A838B839C832D833E834F835887E9E048
:1003A000EE2EF12CEC0EFD1ECE010196B7010E943F
:1003B000D2048E010F5E1F4FCE010596B8010E9438
:1003C000D2048A8991E089278A8BC701B801AE01DE
:1003D000475E5F4F0E9475000E94FD03A096E6E015
:1003E0000C94401BA0E2B0E0E8EFF1E00C94241B79
:1003F00069837A838B839C832D833E834F835887C5
:10040000F9E0EF2EF12CEC0EFD1ECE010196B701A6
:100410000E94D2048E010F5E1F4FCE010596B801D7
:100420000E94D204C701B801AE01475E5F4F0E942F
:1004300075000E94FD03A096E6E00C94401BA0E22C
:10044000B0E0E5E2F2E00C94181B69837A838B83B9
:100450009C832D833E834F835887CE010196BE0136
:10046000675F7F4F0E94D204CE010596BE016F5E8A
:100470007F4F0E94D2049985923088F0898982301A
:10048000C8F0943019F4823051F404C0843029F457
:10049000923081F480E690E0C6C0923049F420E0CA
:1004A0009A858A89981321E02A87CE010996BBC0D4
:1004B000823049F420E09A858A89981321E02A8BBA
:1004C000CE014196B0C02D843E844F8458886D88FB
:1004D0007E888F88988CEE24FF248701AA24BB2471
:1004E000650140E050E060E070E0E0E0F0E0C10174
:1004F00081709070892BE9F0E60CF71C081D191D1E
:100500009A01AB012A0D3B1D4C1D5D1D80E090E062
:10051000A0E0B0E0E614F7040805190520F481E036
:1005200090E0A0E0B0E0BA01A901480F591F6A1F8E
:100530007B1FAA0CBB1CCC1CDD1C97FE08C081E0F5
:1005400090E0A0E0B0E0A82AB92ACA2ADB2A3196B6
:10055000E032F10549F0660C771C881C991C569412
:10056000479437942794C3CFFA85EA892B893C892D
:100570008B859C85280F391F2E5F3F4F17C0CA01FE
:1005800081709070892B61F016950795F794E79428
:1005900080E090E0A0E0B0E8E82AF92A0A2B1B2BC3
:1005A00076956795579547952F5F3F4F77FDE7CF36
:1005B0000CC0440F551F661F771F17FD4160EE0CDE
:1005C000FF1C001F111F21503040403090E05907A0
:1005D00090E0690790E4790760F32B8F3C8FDB0193
:1005E000CA018F779070A070B07080349105A1051A
:1005F000B10561F447FD0AC0E114F10401051105DC
:1006000029F0405C5F4F6F4F7F4F40781A8EFE1786
:1006100011F081E08A8F4D8F5E8F6F8F78A383E01A
:10062000898FCE0149960E94FD03A096E2E10C94C9
:10063000341BA8E1B0E0EFE1F3E00C94241B6983E4
:100640007A838B839C832D833E834F83588789E0F5
:10065000E82EF12CEC0EFD1ECE010196B7010E9492
:10066000D2048E010F5E1F4FCE010596B8010E9485
:10067000D2048985823040F08989823028F0C70110
:10068000B8010E944A0501C08FEF6896E6E00C941D
:10069000401BA8E1B0E0EFE4F3E00C94241B698375
:1006A0007A838B839C832D833E834F83588789E095
:1006B000E82EF12CEC0EFD1ECE010196B7010E9432
:1006C000D2048E010F5E1F4FCE010596B8010E9425
:1006D000D2048985823040F08989823028F0C701B0
:1006E000B8010E944A0501C08FEF6896E6E00C94BD
:1006F000401BA8E1B0E0EFE7F3E00C94241B698312
:100700007A838B839C832D833E834F83588789E034
:10071000E82EF12CEC0EFD1ECE010196B7010E94D1
:10072000D2048E010F5E1F4FCE010596B8010E94C4
:10073000D2048985823040F08989823028F0C7014F
:10074000B8010E944A0501C081E06896E6E00C9479
:10075000401BACE0B0E0EFEAF3E00C94281B6983A7
:100760007A838B839C83CE010196BE016B5F7F4FA2
:100770000E94D2048D81823061F1823050F1843048
:1007800021F48E81882351F12EC02F81388537FDC9
:1007900020C06E812F3131051CF06623F9F023C093
:1007A0008EE190E0821B930B29853A854B855C8511
:1007B00004C056954795379527958A95D2F76623B5
:1007C000B1F050954095309521953F4F4F4F5F4F79
:1007D0000EC020E030E040E050E009C02FEF3FEFD6
:1007E0004FEF5FE704C020E030E040E050E8B9019F
:1007F000CA012C96E2E00C94441BDF92EF92FF9228
:100800000F931F93FC01E480F58006811781D1804E
:100810008081823048F480E090E0A0E1B0E0E82AF6
:10082000F92A0A2B1B2BA5C0843009F49FC0823003
:1008300021F4EE24FF24870105C0E114F104010531
:10084000110519F4E0E0F0E096C0628173819FEF3A
:10085000623879070CF05BC022E83FEF261B370BAC
:100860002A3131052CF020E030E040E050E02AC091
:10087000B801A701022E04C0769567955795479554
:100880000A94D2F781E090E0A0E0B0E004C0880FC5
:10089000991FAA1FBB1F2A95D2F70197A109B10979
:1008A0008E219F21A023B1230097A105B10521F03E
:1008B00081E090E0A0E0B0E09A01AB01282B392B59
:1008C0004A2B5B2BDA01C9018F779070A070B07052
:1008D00080349105A105B10539F427FF09C0205CDA
:1008E0003F4F4F4F5F4F04C0215C3F4F4F4F5F4F13
:1008F000E0E0F0E02030A0E03A07A0E04A07A0E402
:100900005A0710F0E1E0F0E079018A0127C0603871
:10091000710564F5FB01E158FF4FD801C7018F77DE
:100920009070A070B07080349105A105B10539F4C4
:10093000E7FE0DC080E490E0A0E0B0E004C08FE3EB
:1009400090E0A0E0B0E0E80EF91E0A1F1B1F17FFA1
:1009500005C016950795F794E794319687E01695AC
:100960000795F794E7948A95D1F705C0EE24FF2404
:100970008701EFEFF0E06E2F679566276795902F60
:100980009F77D794DD24D7948E2F8695492F462BB9
:10099000582F5D29B701CA011F910F91FF90EF9069
:1009A000DF900895FC01DB01408151812281622F9B
:1009B0006F7770E0221F2227221F9381892F880FD3
:1009C000822B282F30E0991F9927991F11969C930D
:1009D000119721153105A9F54115510561057105DD
:1009E00011F482E037C082E89FEF13969C938E93B8
:1009F00012979A01AB0167E0220F331F441F551F66
:100A00006A95D1F783E08C930DC0220F331F441FEA
:100A1000551F12968D919C911397019713969C9355
:100A20008E931297203080E0380780E0480780E4FA
:100A3000580758F314962D933D934D935C93179755
:100A400008952F3F310579F4411551056105710570
:100A500019F484E08C93089564FF03C081E08C93C3
:100A600012C01C9210C02F57304013963C932E9307
:100A7000129783E08C9387E0440F551F661F771F02
:100A80008A95D1F7706414964D935D936D937C9322
:100A9000179708951F93DC01FB019C91923008F495
:100AA00047C08081823008F443C0943051F41196DD
:100AB0001C91843099F58181682F70E0611B710968
:100AC0003FC0843021F0923031F48230B9F181811D
:100AD000882389F12DC011961C9111978230F1F075
:100AE00081811817D9F412962D913C911397828128
:100AF00093818217930794F028173907BCF0149656
:100B00008D919D910D90BC91A02D248135814681C0
:100B10005781281739074A075B0718F4112341F05A
:100B20000AC082179307A407B50740F4112319F0F0
:100B300061E070E005C06FEF7FEF02C060E070E041
:100B4000CB011F9108951F920F920FB60F9211249F
:100B50002F933F934F935F936F937F938F939F93C5
:100B6000AF93BF93EF93FF93DF93CF93CDB7DEB7F0
:100B7000E0917200F09173000995CF91DF91FF91A0
:100B8000EF91BF91AF919F918F917F916F915F9105
:100B90004F913F912F910F900FBE0F901F9018957E
:100BA0001F920F920FB60F9211242F933F934F93E2
:100BB0005F936F937F938F939F93AF93BF93EF93C5
:100BC000FF93DF93CF93CDB7DEB7E0917400F09140
:100BD00075000995CF91DF91FF91EF91BF91AF9192
:100BE0009F918F917F916F915F914F913F912F9145
:100BF0000F900FBE0F901F9018951F920F920FB677
:100C00000F9211242F933F934F935F936F937F9392
:100C10008F939F93AF93BF93EF93FF93DF93CF9304
:100C2000CDB7DEB7E0917600F09177000995CF91CE
:100C3000DF91FF91EF91BF91AF919F918F917F9144
:100C40006F915F914F913F912F910F900FBE0F9039
:100C50001F901895DF93CF9300D000D0CDB7DEB7AB
:100C600089838981282F30E03C832B838B819C8171
:100C7000009731F02B813C812130310559F014C0AF
:100C8000AFE5B0E0EFE5F0E0808180688C9331E083
:100C90003A830BC0AFE5B0E0EFE5F0E080818F77FD
:100CA0008C9381E08A8301C01A828A810F900F9011
:100CB0000F900F90CF91DF910895DF93CF9300D0E5
:100CC00000D0CDB7DEB78983ABE5B0E0EBE5F0E06F
:100CD000808180648C938981282F30E03C832B8332
:100CE0008B819C810097B1F02B813C8121303105B3
:100CF00011F5A5E5B0E0E5E5F0E0808181608C9339
:100D0000A5E5B0E0E5E5F0E0808182608C9331E01C
:100D10003A8312C0A5E5B0E0E5E5F0E080818E7F82
:100D20008C93A5E5B0E0E5E5F0E0808182608C93EE
:100D300081E08A8301C01A828A810F900F900F9000
:100D40000F90CF91DF910895DF93CF9300D0CDB76F
:100D5000DEB79A83898389819A8190937300809307
:100D600072000F900F90CF91DF910895DF93CF9392
:100D700000D000D0CDB7DEB78983ABE5B0E0EBE5BE
:100D8000F0E0808180688C938981282F30E03C835B
:100D90002B838B819C810097B1F02B813C8121308A
:100DA000310511F5A5E5B0E0E5E5F0E0808184606E
:100DB0008C93A5E5B0E0E5E5F0E0808188608C9358
:100DC00031E03A8312C0A5E5B0E0E5E5F0E08081CE
:100DD0008B7F8C93A5E5B0E0E5E5F0E0808188604D
:100DE0008C9381E08A8301C01A828A810F900F90D0
:100DF0000F900F90CF91DF910895DF93CF9300D0A4
:100E0000CDB7DEB79A83898389819A8190937500E3
:100E1000809374000F900F90CF91DF910895DF932E
:100E2000CF9300D000D0CDB7DEB78983ABE5B0E07B
:100E3000EBE5F0E0808180628C938981282F30E09F
:100E40003C832B838B819C81009779F02B813C81A3
:100E500021303105A1F4A4E5B0E0E4E5F0E08081C3
:100E600080648C9331E03A830BC0A4E5B0E0E4E504
:100E7000F0E080818F7B8C9381E08A8301C01A82AD
:100E80008A810F900F900F900F90CF91DF9108956E
:100E9000DF93CF9300D0CDB7DEB79A838983898162
:100EA0009A8190937700809376000F900F90CF9166
:100EB000DF910895DF93CF93CDB7DEB7EAE3F0E09B
:100EC0001082E7E3F0E01082E4E3F0E01082E1E377
:100ED000F0E01082EBE3F0E01082E8E3F0E0108253
:100EE000E5E3F0E01082E2E3F0E01082CF91DF91E1
:100EF0000895DF93CF93CDB7DEB72E970FB6F89452
:100F0000DEBF0FBECDBF89836A834B838A81883061
:100F100010F01E860EC18981282F30E03D872C8776
:100F20008C859D858130910509F451C02C853D85C6
:100F3000223031052CF48C859D85009771F0F5C029
:100F40002C853D852230310509F47BC08C859D853B
:100F50008330910509F4AFC0E8C08B81282F30E0C1
:100F60003B872A878A859B85009731F02A853B85B8
:100F700021303105B1F029C0AAE3B0E0EAE3F0E0A6
:100F80008081482F8A81282F30E081E090E0022E76
:100F900002C0880F991F0A94E2F7809584238C93EE
:100FA000C6C0AAE3B0E0EAE3F0E08081482F8A817E
:100FB000282F30E081E090E0022E02C0880F991FB8
:100FC0000A94E2F7842B8C93B2C01E86B2C08B8148
:100FD000282F30E03987288788859985009731F058
:100FE0002885398521303105B1F029C0A7E3B0E06B
:100FF000E7E3F0E08081482F8A81282F30E081E00C
:1010000090E0022E02C0880F991F0A94E2F78095A3
:1010100084238C938CC0A7E3B0E0E7E3F0E0808109
:10102000482F8A81282F30E081E090E0022E02C014
:10103000880F991F0A94E2F7842B8C9378C01E8640
:1010400078C08B81282F30E03F832E838E819F8153
:10105000009731F02E813F8121303105B1F029C058
:10106000A4E3B0E0E4E3F0E08081482F8A81282FF8
:1010700030E081E090E0022E02C0880F991F0A94B0
:10108000E2F7809584238C9352C0A4E3B0E0E4E3BC
:10109000F0E08081482F8A81282F30E081E090E0C5
:1010A000022E02C0880F991F0A94E2F7842B8C93BA
:1010B0003EC01E863EC08B81282F30E03D832C83AE
:1010C0008C819D81009731F02C813D81213031054B
:1010D000B1F029C0A1E3B0E0E1E3F0E08081482F66
:1010E0008A81282F30E081E090E0022E02C0880F34
:1010F000991F0A94E2F7809584238C9318C0A1E38A
:10110000B0E0E1E3F0E08081482F8A81282F30E0D1
:1011100081E090E0022E02C0880F991F0A94E2F746
:10112000842B8C9304C01E8604C01E8602C031E04E
:101130003E878E852E960FB6F894DEBF0FBECDBFCC
:10114000CF91DF910895DF93CF9300D000D00F921D
:10115000CDB7DEB789836A838981282F30E03D834C
:101160002C838C819D8181309105D1F02C813D8132
:10117000223031052CF48C819D81009761F01FC0D5
:101180002C813D812230310581F08C819D8183301D
:10119000910581F014C0EAE3F0E08A81808311C0F8
:1011A000E7E3F0E08A8180830CC0E4E3F0E08A8129
:1011B000808307C0E1E3F0E08A81808302C01B8264
:1011C00002C091E09B838B810F900F900F900F9046
:1011D0000F90CF91DF910895DF93CF93CDB7DEB716
:1011E0002E970FB6F894DEBF0FBECDBF89836A83FA
:1011F0004B838A81883010F01E860EC18981282F8A
:1012000030E03D872C878C859D858130910509F4E0
:1012100051C02C853D85223031052CF48C859D856F
:10122000009771F0F5C02C853D852230310509F419
:101230007BC08C859D858330910509F4AFC0E8C0E3
:101240008B81282F30E03B872A878A859B850097F2
:1012500031F02A853B8521303105B1F029C0ABE35F
:10126000B0E0EBE3F0E08081482F8A81282F30E066
:1012700081E090E0022E02C0880F991F0A94E2F7E5
:10128000809584238C93C6C0ABE3B0E0EBE3F0E041
:101290008081482F8A81282F30E081E090E0022E63
:1012A00002C0880F991F0A94E2F7842B8C93B2C076
:1012B0001E86B2C08B81282F30E039872887888529
:1012C0009985009731F02885398521303105B1F0B5
:1012D00029C0A8E3B0E0E8E3F0E08081482F8A81EC
:1012E000282F30E081E090E0022E02C0880F991F85
:1012F0000A94E2F7809584238C938CC0A8E3B0E035
:10130000E8E3F0E08081482F8A81282F30E081E0F7
:1013100090E0022E02C0880F991F0A94E2F7842BF6
:101320008C9378C01E8678C08B81282F30E03F8355
:101330002E838E819F81009731F02E813F81213055
:101340003105B1F029C0A5E3B0E0E5E3F0E080812C
:10135000482F8A81282F30E081E090E0022E02C0E1
:10136000880F991F0A94E2F7809584238C9352C0CA
:10137000A5E3B0E0E5E3F0E08081482F8A81282FE3
:1013800030E081E090E0022E02C0880F991F0A949D
:10139000E2F7842B8C933EC01E863EC08B81282FA3
:1013A00030E03D832C838C819D81009731F02C812E
:1013B0003D8121303105B1F029C0A2E3B0E0E2E384
:1013C000F0E08081482F8A81282F30E081E090E092
:1013D000022E02C0880F991F0A94E2F78095842399
:1013E0008C9318C0A2E3B0E0E2E3F0E08081482FE4
:1013F0008A81282F30E081E090E0022E02C0880F21
:10140000991F0A94E2F7842B8C9304C01E8604C0B3
:101410001E8602C031E03E878E852E960FB6F89468
:10142000DEBF0FBECDBFCF91DF910895DF93CF9385
:1014300000D000D00F92CDB7DEB789836A8389814F
:10144000282F30E03D832C838C819D818130910554
:10145000D1F02C813D81223031052CF48C819D818D
:10146000009761F01FC02C813D812230310581F051
:101470008C819D818330910581F014C0EBE3F0E015
:101480008A81808311C0E8E3F0E08A8180830CC008
:10149000E5E3F0E08A81808307C0E2E3F0E08A813F
:1014A000808302C01B8202C091E09B838B810F90DE
:1014B0000F900F900F900F90CF91DF910895DF93D1
:1014C000CF93CDB7DEB727970FB6F894DEBF0FBE28
:1014D000CDBF89836A835C834B838A81883010F017
:1014E0001F827BC08B819C81009711F41F8275C085
:1014F0008981282F30E03E832D834D815E814130EC
:10150000510559F18D819E818230910534F42D81F0
:101510003E812115310569F05CC04D815E8142300C
:10152000510579F18D819E818330910509F43DC08B
:1015300050C0E9E3F0E08081282F30E08A81882FD5
:1015400090E0A90102C0559547958A95E2F7CA0136
:101550008170EB81FC8180833EC0E6E3F0E0808116
:10156000282F30E08A81882F90E0A90102C055958C
:1015700047958A95E2F7CA018170EB81FC818083EF
:101580002AC0E3E3F0E08081282F30E08A81882FB1
:1015900090E0A90102C0559547958A95E2F7CA01E6
:1015A0008170EB81FC81808316C0E0E3F0E08081F4
:1015B000282F30E08A81882F90E0A90102C055953C
:1015C00047958A95E2F7CA018170EB81FC8180839F
:1015D00002C01F8202C051E05F838F8127960FB641
:1015E000F894DEBF0FBECDBFCF91DF910895DF939A
:1015F000CF93CDB7DEB72E970FB6F894DEBF0FBEF0
:10160000CDBF89836A834B838A81883010F01E8620
:101610000EC18981282F30E03D872C878C859D85E0
:101620008130910509F451C02C853D85223031056A
:101630002CF48C859D85009771F0F5C02C853D8537
:101640002230310509F47BC08C859D85833091055E
:1016500009F4AFC0E8C08B81282F30E03B872A8790
:101660008A859B85009731F02A853B85213031059D
:10167000B1F029C0ABE3B0E0EBE3F0E08081482FAC
:101680008A81282F30E081E090E0022E02C0880F8E
:10169000991F0A94E2F7809584238C93C6C0ABE32C
:1016A000B0E0EBE3F0E08081482F8A81282F30E022
:1016B00081E090E0022E02C0880F991F0A94E2F7A1
:1016C000842B8C93B2C01E86B2C08B81282F30E051
:1016D0003987288788859985009731F0288539854D
:1016E00021303105B1F029C0A8E3B0E0E8E3F0E033
:1016F0008081482F8A81282F30E081E090E0022EFF
:1017000002C0880F991F0A94E2F7809584238C9376
:101710008CC0A8E3B0E0E8E3F0E08081482F8A8144
:10172000282F30E081E090E0022E02C0880F991F40
:101730000A94E2F7842B8C9378C01E8678C08B8144
:10174000282F30E03F832E838E819F81009731F0D8
:101750002E813F8121303105B1F029C0A5E3B0E0F1
:10176000E5E3F0E08081482F8A81282F30E081E096
:1017700090E0022E02C0880F991F0A94E2F780952C
:1017800084238C9352C0A5E3B0E0E5E3F0E08081D0
:10179000482F8A81282F30E081E090E0022E02C09D
:1017A000880F991F0A94E2F7842B8C933EC01E8603
:1017B0003EC08B81282F30E03D832C838C819D811E
:1017C000009731F02C813D8121303105B1F029C0E5
:1017D000A2E3B0E0E2E3F0E08081482F8A81282F85
:1017E00030E081E090E0022E02C0880F991F0A9439
:1017F000E2F7809584238C9318C0A2E3B0E0E2E383
:10180000F0E08081482F8A81282F30E081E090E04D
:10181000022E02C0880F991F0A94E2F7842B8C9342
:1018200004C01E8604C01E8602C031E03E878E853D
:101830002E960FB6F894DEBF0FBECDBFCF91DF91CD
:101840000895DF93CF93CDB7DEB76E970FB6F894B8
:10185000DEBF0FBECDBF89836A834B838981282F6A
:1018600030E03E8F2D8F8D8D9E8D8130910509F456
:101870004FC22D8D3E8D2230310534F48D8D9E8DDD
:10188000009781F00C9406152D8D3E8D2230310588
:1018900009F468C48D8D9E8D8330910509F48CC642
:1018A0000C9406158A81282F30E03C8F2B8F8B8D6E
:1018B0009C8D009739F02B8D3C8D2130310509F43A
:1018C00018C124C280E06FEF0E94A30880E067E0A7
:1018D00040E00E94EC088B81282F30E03A8F298F5E
:1018E000898D9A8D8430910509F492C0298D3A8DA5
:1018F00025303105ECF4898D9A8D8130910509F4FC
:101900004BC0298D3A8D223031052CF4898D9A8D6A
:10191000009799F1EBC0298D3A8D2230310509F4F9
:101920004FC0898D9A8D8330910509F45DC0DEC06A
:10193000298D3A8D2730310509F4A6C0898D9A8DFD
:10194000883091056CF4298D3A8D2530310509F4E4
:1019500078C0898D9A8D8630910509F486C0C6C0FD
:10196000298D3A8D2830310509F4A7C0898D9A8DCB
:101970008930910509F4ABC0B9C080E06FEF0E94D7
:10198000A30880E06FEF0E94160A80E066E040E066
:101990000E94EC080C94081580E06FEF0E94A308E9
:1019A00080E060E00E94160A80E061E041E00E9471
:1019B000EC0880E062E041E00E94EC080C9408151D
:1019C00080E06FEF0E94A30880E06FEF0E94160A8C
:1019D00080E062E040E00E94EC0880E065E040E0EA
:1019E0000E94EC080C94081580E06FEF0E94A30899
:1019F00080E06FEF0E94160A80E064E040E00E9401
:101A0000EC0880E065E040E00E94EC080C940815CA
:101A100080E06FEF0E94A30880E06FEF0E94160A3B
:101A200080E060E040E00E94EC0880E063E040E09D
:101A30000E94EC0880E064E040E00E94EC080C9416
:101A4000081580E06FEF0E94A30880E06FEF0E940E
:101A5000160A80E061E040E00E94EC0880E064E06B
:101A600040E00E94EC080C94081580E06FEF0E94A3
:101A7000A30880E06FEF0E94160A80E061E040E07A
:101A80000E94EC080C94081580E06FEF0E94A308F8
:101A900080E060E00E94160A80E060E041E00E9481
:101AA000EC0880E061E041E00E94EC0880E062E048
:101AB00041E00E94EC080C94081580E06FEF0E9452
:101AC000A30880E06FEF0E94160A0C94081580E0CE
:101AD0006FEF0E94A30880E06FEF0E94160A80E07B
:101AE00064E040E00E94EC080C940815188E0C94F9
:101AF0000A1580E06FEF0E94A30880E067E041E0F4
:101B00000E94EC088B81282F30E03F8B2E8B8E8932
:101B10009F898430910509F48FC02E893F89253033
:101B20003105ECF48E899F898130910509F44BC011
:101B30002E893F89223031052CF48E899F890097A8
:101B400099F1E2C02E893F892230310509F44EC057
:101B50008E899F898330910509F45BC0D5C02E8999
:101B60003F892730310509F4A0C08E899F898830CC
:101B700091056CF42E893F892530310509F474C034
:101B80008E899F898630910509F481C0BDC02E8958
:101B90003F892830310509F4A0C08E899F8989309A
:101BA000910509F4A3C0B0C080E06FEF0E94A308C4
:101BB00080E060E00E94160A80E066E041E00E945A
:101BC000EC080C94081580E06FEF0E94A30880E0F9
:101BD0006FEF0E94160A80E061E040E00E94EC088E
:101BE00080E062E040E00E94EC0812C780E06FEF06
:101BF0000E94A30880E060E00E94160A80E062E094
:101C000041E00E94EC0880E065E041E00E94EC08C1
:101C1000FFC680E06FEF0E94A30880E060E00E94B2
:101C2000160A80E064E041E00E94EC0880E065E094
:101C300041E00E94EC08ECC680E06FEF0E94A30830
:101C400080E060E00E94160A80E060E041E00E94CF
:101C5000EC0880E063E041E00E94EC0880E064E092
:101C600041E00E94EC08D4C680E06FEF0E94A30818
:101C700080E060E00E94160A80E061E041E00E949E
:101C8000EC0880E064E041E00E94EC08C1C680E01E
:101C90006FEF0E94A30880E060E00E94160A80E0D7
:101CA00061E041E00E94EC08B3C680E06FEF0E9463
:101CB000A30880E06FEF0E94160A80E060E040E039
:101CC0000E94EC0880E061E040E00E94EC0880E0C7
:101CD00062E040E00E94EC089BC680E06FEF0E944B
:101CE000A30880E060E00E94160A92C680E06FEFD1
:101CF0000E94A30880E060E00E94160A80E064E091
:101D000041E00E94EC0884C6188E84C6188E82C6F4
:101D10008A81282F30E03D8B2C8B8C899D89009700
:101D200039F02C893D892130310509F40DC118C2E3
:101D300081E06FEF0E94A30881E067E040E00E942D
:101D4000EC088B81282F30E03B8B2A8B8A899B897A
:101D50008430910509F48EC02A893B8925303105EC
:101D6000ECF48A899B898130910509F44AC02A895B
:101D70003B89223031052CF48A899B89009799F19F
:101D8000E1C02A893B892230310509F44DC08A8996
:101D90009B898330910509F45AC0D4C02A893B89B4
:101DA0002730310509F49FC08A899B8988309105C5
:101DB0006CF42A893B892530310509F473C08A897E
:101DC0009B898630910509F480C0BCC02A893B8973
:101DD0002830310509F49FC08A899B898930910593
:101DE00009F4A2C0AFC081E06FEF0E94A30881E0B8
:101DF0006FEF0E94160A81E066E040E00E94EC0866
:101E000007C681E06FEF0E94A30881E060E00E94B6
:101E1000160A81E061E041E00E94EC0881E062E0A6
:101E200041E00E94EC08F4C581E06FEF0E94A30836
:101E300081E06FEF0E94160A81E062E040E00E94BC
:101E4000EC0881E065E040E00E94EC08E1C581E03B
:101E50006FEF0E94A30881E06FEF0E94160A81E0F5
:101E600064E040E00E94EC0881E065E040E00E9410
:101E7000EC08CEC581E06FEF0E94A30881E06FEF10
:101E80000E94160A81E060E040E00E94EC0881E0D8
:101E900063E040E00E94EC0881E064E040E00E94E2
:101EA000EC08B6C581E06FEF0E94A30881E06FEFF8
:101EB0000E94160A81E061E040E00E94EC0881E0A7
:101EC00064E040E00E94EC08A3C581E06FEF0E944F
:101ED000A30881E06FEF0E94160A81E061E040E014
:101EE0000E94EC0895C581E06FEF0E94A30881E095
:101EF00060E00E94160A81E060E041E00E94EC0888
:101F000081E061E041E00E94EC0881E062E041E0B4
:101F10000E94EC087DC581E06FEF0E94A30881E07C
:101F20006FEF0E94160A74C581E06FEF0E94A3084C
:101F300081E06FEF0E94160A81E064E040E00E94B9
:101F4000EC0866C5188E66C581E06FEF0E94A30895
:101F500081E067E041E00E94EC088B81282F30E0AF
:101F6000398B288B888999898430910509F48EC032
:101F70002889398925303105ECF48889998981309F
:101F8000910509F44AC028893989223031052CF499
:101F900088899989009799F1E1C028893989223087
:101FA000310509F44DC0888999898330910509F478
:101FB0005AC0D4C0288939892730310509F49FC017
:101FC00088899989883091056CF428893989253068
:101FD000310509F473C0888999898630910509F41F
:101FE00080C0BCC0288939892830310509F49FC0D8
:101FF000888999898930910509F4A2C0AFC081E030
:102000006FEF0E94A30881E060E00E94160A81E061
:1020100066E041E00E94EC08FBC481E06FEF0E94A3
:10202000A30881E06FEF0E94160A81E061E040E0C2
:102030000E94EC0881E062E040E00E94EC08E8C405
:1020400081E06FEF0E94A30881E060E00E94160A21
:1020500081E062E041E00E94EC0881E065E041E05F
:102060000E94EC08D5C481E06FEF0E94A30881E0D4
:1020700060E00E94160A81E064E041E00E94EC0802
:1020800081E065E041E00E94EC08C2C481E06FEFAE
:102090000E94A30881E060E00E94160A81E060E0EF
:1020A00041E00E94EC0881E063E041E00E94EC081E
:1020B00081E064E041E00E94EC08AAC481E06FEF97
:1020C0000E94A30881E060E00E94160A81E061E0BE
:1020D00041E00E94EC0881E064E041E00E94EC08ED
:1020E00097C481E06FEF0E94A30881E060E00E9446
:1020F000160A81E061E041E00E94EC0889C481E0B9
:102100006FEF0E94A30881E06FEF0E94160A81E042
:1021100060E040E00E94EC0881E061E040E00E9465
:10212000EC0881E062E040E00E94EC0871C481E0CC
:102130006FEF0E94A30881E060E00E94160A68C465
:1021400081E06FEF0E94A30881E060E00E94160A20
:1021500081E064E041E00E94EC085AC4188E5AC441
:10216000188E58C48A81282F30E03F872E878E85AD
:102170009F85009739F02E853F852130310509F480
:102180000DC118C282E06FEF0E94A30882E067E0F1
:1021900040E00E94EC088B81282F30E03D872C879F
:1021A0008C859D858430910509F48EC02C853D85F4
:1021B00025303105ECF48C859D858130910509F43D
:1021C0004AC02C853D85223031052CF48C859D85B7
:1021D000009799F1E1C02C853D852230310509F445
:1021E0004DC08C859D858330910509F45AC0D4C0BB
:1021F0002C853D852730310509F49FC08C859D8550
:10220000883091056CF42C853D852530310509F425
:1022100073C08C859D858630910509F480C0BCC053
:102220002C853D852830310509F49FC08C859D851E
:102230008930910509F4A2C0AFC082E06FEF0E941F
:10224000A30882E06FEF0E94160A82E066E040E099
:102250000E94EC08DDC382E06FEF0E94A30882E0D9
:1022600060E00E94160A82E061E041E00E94EC0812
:1022700082E062E041E00E94EC08CAC382E06FEFB6
:102280000E94A30882E06FEF0E94160A82E062E0DB
:1022900040E00E94EC0882E065E040E00E94EC082B
:1022A000B7C382E06FEF0E94A30882E06FEF0E9445
:1022B000160A82E064E040E00E94EC0882E065E0FB
:1022C00040E00E94EC08A4C382E06FEF0E94A308E4
:1022D00082E06FEF0E94160A82E060E040E00E9418
:1022E000EC0882E063E040E00E94EC0882E064E0F9
:1022F00040E00E94EC088CC382E06FEF0E94A308CC
:1023000082E06FEF0E94160A82E061E040E00E94E6
:10231000EC0882E064E040E00E94EC0879C382E0CF
:102320006FEF0E94A30882E06FEF0E94160A82E01E
:1023300061E040E00E94EC086BC382E06FEF0E9416
:10234000A30882E060E00E94160A82E060E041E0BB
:102350000E94EC0882E061E041E00E94EC0882E02B
:1023600062E041E00E94EC0853C382E06FEF0E94FC
:10237000A30882E06FEF0E94160A4AC382E06FEF63
:102380000E94A30882E06FEF0E94160A82E064E0D8
:1023900040E00E94EC083CC3188E3CC382E06FEF23
:1023A0000E94A30882E067E041E00E94EC088B8174
:1023B000282F30E03B872A878A859B8584309105CA
:1023C00009F48EC02A853B8525303105ECF48A85D9
:1023D0009B858130910509F44AC02A853B852230CE
:1023E00031052CF48A859B85009799F1E1C02A85F7
:1023F0003B852230310509F44DC08A859B858330A9
:10240000910509F45AC0D4C02A853B85273031058F
:1024100009F49FC08A859B85883091056CF42A85D4
:102420003B852530310509F473C08A859B8586304C
:10243000910509F480C0BCC02A853B852830310550
:1024400009F49FC08A859B858930910509F4A2C053
:10245000AFC082E06FEF0E94A30882E060E00E94BC
:10246000160A82E066E041E00E94EC08D1C282E0F8
:102470006FEF0E94A30882E06FEF0E94160A82E0CD
:1024800061E040E00E94EC0882E062E040E00E94EF
:10249000EC08BEC282E06FEF0E94A30882E060E019
:1024A0000E94160A82E062E041E00E94EC0882E0AD
:1024B00065E041E00E94EC08ABC282E06FEF0E9451
:1024C000A30882E060E00E94160A82E064E041E036
:1024D0000E94EC0882E065E041E00E94EC0898C2AE
:1024E00082E06FEF0E94A30882E060E00E94160A7B
:1024F00082E060E041E00E94EC0882E063E041E0BD
:102500000E94EC0882E064E041E00E94EC0880C296
:1025100082E06FEF0E94A30882E060E00E94160A4A
:1025200082E061E041E00E94EC0882E064E041E08A
:102530000E94EC086DC282E06FEF0E94A30882E067
:1025400060E00E94160A82E061E041E00E94EC082F
:102550005FC282E06FEF0E94A30882E06FEF0E94EB
:10256000160A82E060E040E00E94EC0882E061E050
:1025700040E00E94EC0882E062E040E00E94EC084B
:1025800047C282E06FEF0E94A30882E060E00E94F1
:10259000160A3EC282E06FEF0E94A30882E060E06C
:1025A0000E94160A82E064E041E00E94EC0830C21A
:1025B000188E30C2188E2EC28A81282F30E03987BB
:1025C000288788859985009739F0288539852130B5
:1025D000310509F40DC118C283E06FEF0E94A30812
:1025E00083E067E040E00E94EC088B81282F30E018
:1025F0003F832E838E819F818430910509F48EC0A4
:102600002E813F8125303105ECF48E819F81813010
:10261000910509F44AC02E813F81223031052CF406
:102620008E819F81009799F1E1C02E813F812230F8
:10263000310509F44DC08E819F818330910509F4E5
:102640005AC0D4C02E813F812730310509F49FC084
:102650008E819F81883091056CF42E813F812530D9
:10266000310509F473C08E819F818630910509F48C
:1026700080C0BCC02E813F812830310509F49FC045
:102680008E819F818930910509F4A2C0AFC083E09B
:102690006FEF0E94A30883E06FEF0E94160A83E0A9
:1026A00066E040E00E94EC08B3C183E06FEF0E9457
:1026B000A30883E060E00E94160A83E061E041E045
:1026C0000E94EC0883E062E041E00E94EC08A0C1B7
:1026D00083E06FEF0E94A30883E06FEF0E94160A69
:1026E00083E062E040E00E94EC0883E065E040E0C7
:1026F0000E94EC088DC183E06FEF0E94A30883E085
:102700006FEF0E94160A83E064E040E00E94EC084C
:1027100083E065E040E00E94EC087AC183E06FEF5F
:102720000E94A30883E06FEF0E94160A83E060E036
:1027300040E00E94EC0883E063E040E00E94EC0887
:1027400083E064E040E00E94EC0862C183E06FEF48
:102750000E94A30883E06FEF0E94160A83E061E005
:1027600040E00E94EC0883E064E040E00E94EC0856
:102770004FC183E06FEF0E94A30883E06FEF0E94D8
:10278000160A83E061E040E00E94EC0841C183E06A
:102790006FEF0E94A30883E060E00E94160A83E0C6
:1027A00060E041E00E94EC0883E061E041E00E94CB
:1027B000EC0883E062E041E00E94EC0829C183E07C
:1027C0006FEF0E94A30883E06FEF0E94160A20C1FA
:1027D00083E06FEF0E94A30883E06FEF0E94160A68
:1027E00083E064E040E00E94EC0812C1188E12C140
:1027F00083E06FEF0E94A30883E067E041E00E945E
:10280000EC088B81282F30E03D832C838C819D81C7
:102810008430910509F48EC02C813D81253031052D
:10282000ECF48C819D818130910509F44AC02C81A2
:102830003D81223031052CF48C819D81009799F1E6
:10284000E1C02C813D812230310509F44DC08C81DD
:102850009D818330910509F45AC0D4C02C813D81FB
:102860002730310509F49FC08C819D818830910506
:102870006CF42C813D812530310509F473C08C81C5
:102880009D818630910509F480C0BCC02C813D81BA
:102890002830310509F49FC08C819D8189309105D4
:1028A00009F4A2C0AFC083E06FEF0E94A30883E0E9
:1028B00060E00E94160A83E066E041E00E94EC08B6
:1028C000A7C083E06FEF0E94A30883E06FEF0E9430
:1028D000160A83E061E040E00E94EC0883E062E0D9
:1028E00040E00E94EC0894C083E06FEF0E94A308D0
:1028F00083E060E00E94160A83E062E041E00E940B
:10290000EC0883E065E041E00E94EC0881C083E0D0
:102910006FEF0E94A30883E060E00E94160A83E044
:1029200064E041E00E94EC0883E065E041E00E9441
:10293000EC086EC083E06FEF0E94A30883E060E0C4
:102940000E94160A83E060E041E00E94EC0883E008
:1029500063E041E00E94EC0883E064E041E00E9413
:10296000EC0856C083E06FEF0E94A30883E060E0AC
:102970000E94160A83E061E041E00E94EC0883E0D7
:1029800064E041E00E94EC0843C083E06FEF0E94E6
:10299000A30883E060E00E94160A83E061E041E062
:1029A0000E94EC0835C083E06FEF0E94A30883E02B
:1029B0006FEF0E94160A83E060E040E00E94EC089E
:1029C00083E061E040E00E94EC0883E062E040E0E8
:1029D0000E94EC081DC083E06FEF0E94A30883E013
:1029E00060E00E94160A14C083E06FEF0E94A30803
:1029F00083E060E00E94160A83E064E041E00E9408
:102A0000EC0806C0188E06C0188E04C0188E02C0CE
:102A100091E0988F888D6E960FB6F894DEBF0FBE4A
:102A2000CDBFCF91DF910895DF93CF93CDB7DEB7C0
:102A30002E970FB6F894DEBF0FBECDBF80E061E0E9
:102A40000E94A30882E060E041E00E94790782E0F2
:102A500061E041E00E94790782E062E041E00E948B
:102A6000790780E090E0A0E2B2E48B879C87AD8795
:102A7000BE876B857C858D859E8520E030E04AEFA2
:102A800054E40E941F02DC01CB018F839887A98741
:102A9000BA876F81788589859A8520E030E040E8A3
:102AA0005FE30E94790388232CF481E090E09E8309
:102AB0008D833FC06F81788589859A8520E03FEFBF
:102AC0004FE757E40E94190318164CF56B857C8577
:102AD0008D859E8520E030E040E251E40E941F0297
:102AE000DC01CB01BC01CD010E944900DC01CB011E
:102AF0009E838D830FC088EC90E09C838B838B81B9
:102B00009C810197F1F79C838B838D819E81019736
:102B10009E838D838D819E81009769F714C06F819C
:102B2000788589859A850E944900DC01CB019E83C6
:102B30008D838D819E819A83898389819A81019772
:102B4000F1F79A8389838CE30E94B5158FE00E9488
:102B5000B51581E00E94B5152E960FB6F894DEBF2C
:102B60000FBECDBFCF91DF910895DF93CF93CDB747
:102B7000DEB72F970FB6F894DEBF0FBECDBF8F879D
:102B800082E060E040E00E94EC0882E061E040E02A
:102B90000E94EC0880E06F850E94160A82E062E0E5
:102BA00041E00E94EC0880E090E0A0E0B0E48B8778
:102BB0009C87AD87BE876B857C858D859E8520E053
:102BC00030E04AEF54E40E941F02DC01CB018F8306
:102BD0009887A987BA876F81788589859A8520E04B
:102BE00030E040E85FE30E94790388232CF481E021
:102BF00090E09E838D833FC06F81788589859A851B
:102C000020E03FEF4FE757E40E94190318164CF5F8
:102C10006B857C858D859E8520E030E040E251E427
:102C20000E941F02DC01CB01BC01CD010E944900C2
:102C3000DC01CB019E838D830FC088EC90E09C83E8
:102C40008B838B819C810197F1F79C838B838D8192
:102C50009E8101979E838D838D819E81009769F768
:102C600014C06F81788589859A850E944900DC01AE
:102C7000CB019E838D838D819E819A8389838981F7
:102C80009A810197F1F79A83898382E062E040E0BC
:102C90000E94EC082F960FB6F894DEBF0FBECDBF92
:102CA000CF91DF910895DF93CF93CDB7DEB72F9704
:102CB0000FB6F894DEBF0FBECDBF8F8782E060E015
:102CC00041E00E94EC0882E061E040E00E94EC08F4
:102CD00080E06F850E94160A82E062E041E00E9477
:102CE000EC0880E090E0A0E0B0E48B879C87AD87A3
:102CF000BE876B857C858D859E8520E030E04AEF20
:102D000054E40E941F02DC01CB018F839887A987BE
:102D1000BA876F81788589859A8520E030E040E820
:102D20005FE30E94790388232CF481E090E09E8386
:102D30008D833FC06F81788589859A8520E03FEF3C
:102D40004FE757E40E94190318164CF56B857C85F4
:102D50008D859E8520E030E040E251E40E941F0214
:102D6000DC01CB01BC01CD010E944900DC01CB019B
:102D70009E838D830FC088EC90E09C838B838B8136
:102D80009C810197F1F79C838B838D819E810197B4
:102D90009E838D838D819E81009769F714C06F811A
:102DA000788589859A850E944900DC01CB019E8344
:102DB0008D838D819E819A83898389819A810197F0
:102DC000F1F79A83898382E062E040E00E94EC0898
:102DD0002F960FB6F894DEBF0FBECDBFCF91DF9117
:102DE0000895DF93CF9300D00F92CDB7DEB79B83CA
:102DF0008A8319820EC08981282F30E08A819B81C5
:102E0000FC01E20FF31F80810E94531689818F5FBE
:102E100089838981282F30E08A819B81FC01E20F20
:102E2000F31F8081882339F70F900F900F90CF9177
:102E3000DF910895DF93CF9300D000D0CDB7DEB7F8
:102E40008A836B838A81882349F48B818983898172
:102E500080580E94B51581E08C830EC08A81813034
:102E600051F48B81805C8983898180580E94B515DB
:102E700081E08C8301C01C828C810F900F900F9099
:102E80000F90CF91DF910895DF93CF93CDB7DEB749
:102E900027970FB6F894DEBF0FBECDBF9C838B8300
:102EA0006D834E832F831A828D81882F90E0880F47
:102EB000991F880F991F880F991F8A838A81805CC8
:102EC0000E94B51519820EC08981282F30E08B81B0
:102ED0009C81FC01E20FF31F80810E9453168981BF
:102EE0008F5F89838981883078F38E816F810E941A
:102EF0001A178D810E94531627960FB6F894DEBFDD
:102F00000FBECDBFCF91DF910895DF93CF93CDB7A3
:102F1000DEB72A970FB6F894DEBF0FBECDBF898308
:102F20006A834B838A81282F30E03A8729878985F5
:102F30009A85009739F029853A852130310509F4C1
:102F400077C0ECC08B81282F30E038872F838F81AA
:102F500098858130910559F12F81388522303105CE
:102F60002CF48F819885009769F060C02F81388597
:102F70002230310589F18F8198858330910509F4DC
:102F800040C054C080E060E041E00E94790780E0EA
:102F900061E041E00E94790780E060E041E00E944A
:102FA000EC0880E061E041E00E94EC08B9C080E0FC
:102FB00060E041E00E94790780E061E041E00E942A
:102FC000790780E060E040E00E94EC0880E061E08A
:102FD00041E00E94EC08A4C080E060E041E00E9473
:102FE000790780E061E041E00E94790780E060E0DD
:102FF00041E00E94EC0880E061E040E00E94EC08C3
:103000008FC080E060E041E00E94790780E061E0ED
:1030100041E00E94790780E060E040E00E94EC0817
:1030200080E061E040E00E94EC087AC01E827AC035
:103030008B81282F30E03D832C838C819D818130D2
:10304000910559F12C813D81223031052CF48C8180
:103050009D81009769F060C02C813D81223031054F
:1030600089F18C819D818330910509F440C054C061
:1030700080E060E041E00E94790780E061E041E0AB
:103080000E94790780E060E040E00E94EC0880E068
:1030900061E040E00E94EC0843C080E060E041E075
:1030A0000E94790780E061E041E00E94790780E0BA
:1030B00060E041E00E94EC0880E061E040E00E94B6
:1030C000EC082EC080E060E041E00E94790780E0DB
:1030D00061E041E00E94790780E060E040E00E940A
:1030E000EC0880E061E041E00E94EC0819C080E05B
:1030F00060E041E00E94790780E061E041E00E94E9
:10310000790780E060E041E00E94EC0880E060E048
:1031100041E00E94EC0804C01E8204C01E8202C06E
:1031200091E09E838E812A960FB6F894DEBF0FBE83
:10313000CDBFCF91DF910895DF93CF93CDB7DEB7A9
:10314000CB54D0400FB6F894DEBF0FBECDBFCE013A
:10315000CD9629969FAF8EAF2997E8E6F0E02B96A3
:10316000FFAFEEAF2B97FAE02C96FFAF2C972B9684
:10317000EEADFFAD2B9700802B968EAD9FAD2B97BC
:1031800001962B969FAF8EAF2B972996EEADFFAD94
:103190002997008229968EAD9FAD29970196299691
:1031A0009FAF8EAF29972C969FAD2C9791502C9660
:1031B0009FAF2C972C96EFAD2C97EE23C1F619AE4E
:1031C00032C21AAE29C21CAE20C21BAE17C280E0AA
:1031D00060E040E00E9485178BAD282F30E0CE01E3
:1031E000CD96FC01E20FF31F908181E060E0492F52
:1031F0000E94210C80E090E0A0EAB2E48DAB9EAB8F
:10320000AFABB8AF6DA97EA98FA998AD20E030E033
:103210004AEF54E40E941F02DC01CB0189AB9AAB58
:10322000ABABBCAB69A97AA98BA99CA920E030E023
:1032300040E85FE30E94790388232CF481E090E06A
:1032400098AB8FA73FC069A97AA98BA99CA920E058
:103250003FEF4FE757E40E94190318164CF56DA98C
:103260007EA98FA998AD20E030E040E251E40E94B1
:103270001F02DC01CB01BC01CD010E944900DC0131
:10328000CB0198AB8FA70FC088EC90E09EA78DA7CD
:103290008DA59EA50197F1F79EA78DA78FA598A94B
:1032A000019798AB8FA78FA598A9009769F714C0CD
:1032B00069A97AA98BA99CA90E944900DC01CB01CC
:1032C00098AB8FA78FA598A99CA78BA78BA59CA52A
:1032D0000197F1F79CA78BA780E060E041E00E9496
:1032E00085178CAD282F30E0CE01CD96FC01E20F82
:1032F000F31F908181E060E0492F0E94210C80E063
:1033000090E0A0EAB2E48FA398A7A9A7BAA76FA1FB
:1033100078A589A59AA520E030E04AEF54E40E9400
:103320001F02DC01CB018BA39CA3ADA3BEA36BA1A9
:103330007CA18DA19EA120E030E040E85FE30E94E7
:10334000790388232CF481E090E09AA389A33FC0FD
:103350006BA17CA18DA19EA120E03FEF4FE757E438
:103360000E94190318164CF56FA178A589A59AA596
:1033700020E030E040E251E40E941F02DC01CB017A
:10338000BC01CD010E944900DC01CB019AA389A3B5
:103390000FC088EC90E098A38F8F8F8D98A1019734
:1033A000F1F798A38F8F89A19AA101979AA389A376
:1033B00089A19AA1009769F714C06BA17CA18DA186
:1033C0009EA10E944900DC01CB019AA389A389A197
:1033D0009AA19E8F8D8F8D8D9E8D0197F1F79E8F77
:1033E0008D8F80E060E042E00E9485178AAD282F33
:1033F00030E0CE01CD96FC01E20FF31F908181E019
:1034000060E0492F0E94210C80E090E0A0E7B2E448
:10341000898F9A8FAB8FBC8F698D7A8D8B8D9C8DA8
:1034200020E030E04AEF54E40E941F02DC01CB01AF
:103430008D8B9E8BAF8BB88F6D897E898F89988D90
:1034400020E030E040E85FE30E94790388232CF419
:1034500081E090E09C8B8B8B3FC06D897E898F894A
:10346000988D20E03FEF4FE757E40E9419031816AC
:103470004CF5698D7A8D8B8D9C8D20E030E040E29B
:1034800051E40E941F02DC01CB01BC01CD010E946E
:103490004900DC01CB019C8B8B8B0FC088EC90E04A
:1034A0009A8B898B89899A890197F1F79A8B898BF5
:1034B0008B899C8901979C8B8B8B8B899C8900972E
:1034C00069F714C06D897E898F89988D0E944900A3
:1034D000DC01CB019C8B8B8B8B899C89988B8F8794
:1034E0008F8598890197F1F7988B8F8780E060E04E
:1034F00043E00E94851789AD282F30E0CE01CD969C
:10350000FC01E20FF31F908181E060E0492F0E94EF
:10351000210C80E090E0A0E7B2E48B879C87AD8728
:10352000BE876B857C858D859E8520E030E04AEFE7
:1035300054E40E941F02DC01CB018F839887A98786
:10354000BA876F81788589859A8520E030E040E8E8
:103550005FE30E94790388232CF481E090E09E834E
:103560008D833FC06F81788589859A8520E03FEF04
:103570004FE757E40E94190318164CF56B857C85BC
:103580008D859E8520E030E040E251E40E941F02DC
:10359000DC01CB01BC01CD010E944900DC01CB0163
:1035A0009E838D830FC088EC90E09C838B838B81FE
:1035B0009C810197F1F79C838B838D819E8101977C
:1035C0009E838D838D819E81009769F714C06F81E2
:1035D000788589859A850E944900DC01CB019E830C
:1035E0008D838D819E819A83898389819A810197B8
:1035F000F1F79A8389838BAD8F5F8BAF8BAD8A3068
:1036000008F4E5CD8CAD8F5F8CAF8CAD863008F4BF
:10361000DCCD8AAD8F5F8AAF8AAD8A3008F4D3CD16
:1036200089AD8F5F89AF89AD863008F4CACDC7CD2B
:103630002F923F924F925F926F927F928F929F92C2
:10364000AF92BF92CF92DF92EF92FF920F931F93B0
:10365000CF93DF93CDB7DEB7CA1BDB0B0FB6F89461
:10366000DEBF0FBECDBF09942A88398848885F84A1
:103670006E847D848C849B84AA84B984C884DF8012
:10368000EE80FD800C811B81AA81B981CE0FD11DF6
:103690000FB6F894DEBF0FBECDBFED010895F894CC
:0236A000FFCF5A
:1036A20000000000000000000001020304050607FC
:0236B200080905
:00000001FF
